:020000040800F2
:10000000000003208D050008C51F0008C71F000859
:10001000C91F0008CB1F0008CD1F0008000000000A
:100020000000000000000000000000000173000854
:10003000CF1F00080000000091730008216C000829
:10004000DD050008DD050008DD050008DD05000808
:10005000DD050008DD050008DD050008DD050008F8
:10006000DD050008DD050008DD050008DD050008E8
:10007000DD050008DD050008DD050008DD050008D8
:10008000DD050008DD050008DD050008DD050008C8
:10009000DD050008DD050008DD050008DD050008B8
:1000A000DD050008DD050008DD050008DD050008A8
:1000B000DD050008DD050008DD050008DD05000898
:1000C000DD050008DD050008DD050008DD05000888
:1000D000DD050008DD050008DD050008DD05000878
:1000E000DD050008DD050008DD050008DD05000868
:1000F000DD050008DD050008DD050008DD05000858
:10010000DD050008DD050008DD050008DD05000847
:10011000DD050008DD050008D11F0008DD05000829
:10012000DD050008DD050008DD050008DD05000827
:10013000DD050008DD050008DD050008DD05000817
:10014000DD050008DD050008DD050008DD05000807
:10015000DD050008DD050008DD050008DD050008F7
:10016000DD050008DD050008DD050008DD050008E7
:10017000DD050008DD050008DD05000800000000C1
:10018000DD050008DD050008DD050008DD050008C7
:10019000DD050008DD050008DD050008DD050008B7
:0C01A000DD1F0008DD050008E91F000855
:1001B00010B5054C237833B9044B13B10448AFF3A1
:1001C00000800123237010BD6401002000000000A6
:1001D0006824020808B5034B1BB103490348AFF379
:1001E000008008BD000000006801002068240208AB
:1001F00001F0FF01102A2BDB10F0070F08D010F8D8
:10020000013B013A8B422DD010F0070F42B3F6D1DB
:10021000F0B441EA012141EA014122F007047FF0F4
:1002200000070023F0E80256083C85EA010586EA4B
:10023000010685FA47F5A3FA87F586FA47F6A5FA87
:1002400087F68EB9EED1F0BC01F0FF0102F0070293
:1002500032B110F8013B013A83EA010313B1F8D13E
:100260000020704701387047002D06BF354603381F
:10027000073815F0010F07D1013015F4807F02BF58
:10028000013015F4C03F0130F0BC0138704700BFA9
:1002900053B94AB9002908BF00281CBF4FF0FF31ED
:1002A0004FF0FF3000F070B9ADF1080C6DE904CEED
:1002B00000F006F8DDF804E0DDE9022304B0704741
:1002C0002DE9F047089E0D4604460F46002B4AD103
:1002D0008A42944665D9B2FA82F343B102FA03FC2A
:1002E000C3F120029F4020FA02F217439C404FEADC
:1002F0001C4E1FFA8CF5B7FBFEF1220C0EFB11779A
:1003000042EA074201FB05F090420AD91CEB0202C7
:1003100001F1FF3780F01C81904240F219810239CF
:100320006244121AA4B2B2FBFEF00EFB102244EAA1
:10033000024400FB05F5A5420AD91CEB040400F1B8
:10034000FF3280F00781A54240F204816444023804
:1003500040EA0140641B00211EB1DC400023C6E9D5
:100360000043BDE8F0878B4208D9002E00F0ED80F5
:100370000021C6E900050846BDE8F087B3FA83F11D
:10038000002949D1AB4202D3824200F2F880841A9C
:1003900065EB030201201746002EE2D0C6E90047B4
:1003A000DFE702B9FFDEB2FA82F3002B40F0908063
:1003B0008A1A4FEA1C471FFA8CFE0121B2FBF7F59F
:1003C00007FB1520220C42EA00420EFB05F090428A
:1003D00008D91CEB020205F1FF3802D2904200F26C
:1003E000CB804546121AA4B2B2FBF7F007FB1022ED
:1003F00044EA02440EFB00FEA64508D91CEB0404A7
:1004000000F1FF3202D2A64500F2BB801046A4EBF9
:100410000E0440EA05409FE7C1F120078B4022FA15
:1004200007FC4CEA030C05FA01F420FA07F3FD403F
:100430004FEA1C492343B5FBF9F81FFA8CFE09FB70
:1004400018551C0C44EA054408FB0EF5A54202FAB7
:1004500001F200FA01F00BD91CEB040408F1FF3A99
:1004600080F08880A54240F28580A8F102086444AB
:10047000641B9DB2B4FBF9F309FB134445EA044441
:1004800003FB0EFEA64508D91CEB040403F1FF355F
:100490006CD2A6456AD9023B644443EA0843A3FBF5
:1004A0000295A4EB0E04AC42C846AE4656D353D0D8
:1004B00056B1B0EB080264EB0E0404FA07F7CA4029
:1004C000CC401743C6E9007418460021BDE8F08708
:1004D000C3F1200102FA03FC20FA01F225FA01F12E
:1004E0009D402A434FEA1C471FFA8CFEB1FBF7F0F0
:1004F00007FB1015110C41EA054100FB0EF58D427A
:1005000004FA03F408D91CEB010100F1FF382FD2E3
:100510008D422DD902386144491B92B2B1FBF7F5E7
:1005200007FB151142EA014205FB0EF1914208D981
:100530001CEB020205F1FF3816D2914214D9023D9C
:100540006244521A45EA004138E73146304608E72E
:100550003946E6E61046FBE64845A9D2B9EB020863
:1005600065EB0C0E013BA3E74546EAE72B4694E713
:100570004046D1E7D0467BE7023D624432E7084679
:100580000AE76444023842E7704700BFDFF834D01E
:10059000002103E00C4B5B58435004310B480C4BDB
:1005A00042189A42F6D30B4A02E0002342F8043B79
:1005B000094B9A42F9D303F0E9FE21F0DBF900F090
:1005C00071FF704700000320B4F20808000000200B
:1005D0006401002064010020E4400120FEE7704730
:1005E00008B500F061FDBDE8084000F0E9BC00F08E
:1005F0005DBD704710B50421044620F02EF9204659
:1006000010BD000038B50C4B0C4C18800C4B8220F0
:1006100019806368984740F6110398420AD1094D42
:1006200023682C60822098472B688220DB689847DB
:10063000002038BD0120FCE7800100204C00002094
:1006400082010020840100204FF4A071F020FFF708
:10065000D9BF0000F7B5334D2B6804461B698220D3
:10066000984780B2208000284AD02B680DF10602FE
:100670005B6901A982209847BDF8063040F6746294
:1006800093423FD9ADF80620BDF80630D21A92B297
:100690000A2A3DD90B23B2FBF3F2234B1B889A4263
:1006A00001D9013B9AB2BDF8043040F6B8318B4213
:1006B00030D8C3F571630E339BB20F21B3FBF1F356
:1006C0001A4909888B4201D901398BB2184E194D4C
:1006D00030682F68834281B28CBF591AC91AB8B2E8
:1006E000BA428CBF101A801A89B280B2014405291F
:1006F000C8BF33603368C8BF2A6063802B68A3809B
:1007000003B0F0BDB32B9CBFB423ADF80630BBE7FC
:100710000022C8E7C3F56D6308339BB20E2BCCD81B
:100720000023D3E784010020820100208001002003
:10073000880100208C01002037B568460D4614461C
:10074000FFF788FFBDF8000030B1BDF802302B6024
:10075000BDF804302360012003B030BD032821D848
:10076000DFE800F0020B12190F4B1A68B2FA82F29E
:10077000520904210D4804F0DDBA0B4B5A68B2FA55
:1007800082F252090821F5E7074B9A68B2FA82F221
:1007900052091021EEE7044BDA68B2FA82F25209EC
:1007A0002021E7E7704700BF9001002000100240C1
:1007B000032821D8DFE800F0020B12190F4B1A684A
:1007C000003A18BF012204210D4804F0B3BA0B4BC4
:1007D0005A68003A18BF01220821F5E7074B9A68CA
:1007E000003A18BF01221021EEE7044BDA68003A04
:1007F00018BF01222021E7E7704700BF90010020C9
:100800000010024003280DD8DFE800F00206080AB5
:100810000421054804F093BA0821FAE71021F8E70B
:100820002021F6E7704700BF0010024008B50328FA
:1008300011D8DFE800F0020A0C0E0421074804F08A
:1008400073FA431E5842584108BD0821F6E71021AB
:10085000F4E72021F2E70020F3E700BF0010024098
:1008600070B5084D00240126E0B2FFF7DFFF18B194
:100870002B68012B18BF2E600134052C05F10405EF
:10088000F2D170BD90010020012380F8781080F82B
:100890007930704700207047034B4164003918BF1E
:1008A00001211970704700BFAB3401200020704750
:1008B000836B0BB10846184770474FF6FF707047BF
:1008C000406803689B69184770477047704700008D
:1008D00010B5044600F0D6FC23680349D3F88C30E9
:1008E0002046BDE810401847000000D008B5036856
:1008F0000446D3F880309847236820469B6F98477A
:1009000000F0ECF8236820461B6F9847292001F07F
:1009100047F800F0E3F8236820461B6F9847F8E794
:1009200010B5044609F084FC23682046D3F8AC30A7
:10093000BDE81040184700F097BC00F09BBC00F0E9
:10094000BFBC00F06DBC00F0C7BC00F0CFBC00F035
:1009500071BC08F0D9BE10B57C2104461FF07DFFA4
:10096000204610BD90F87A301BB1406803681B68C0
:10097000184718467047000010B590F8341090F8EA
:1009800078400C4B8C421A7809D03AB90A4A0B4984
:100990001488088810800C8001221A7010BD002A6B
:1009A000FCD0054A05491488088810800C80002274
:1009B000F3E700BFA4340120A0340120A2340120B9
:1009C00070B50D46194635B9094B0A4A0A4840F236
:1009D000D22120F033FDC0E90F52084B003A18BF76
:1009E00001221A700368BDE87040D3F88C301847B4
:1009F000B8250208F02502083E260208AA34012084
:100A000008B5094B1B888B4203D8084B1B889342BF
:100A100005D9074B074A08489E2120F00FFD074BD8
:100A20001980074B1A8008BDA0340120A234012090
:100A300083260208E62602083E260208A634012084
:100A4000A8340120012108B50022084606F075F9F6
:100A50000A4B186028B90A4B0A4A28210A4820F094
:100A6000EDFC00220421012006F004FA074B186077
:100A700018B9074B034A2C21F0E708BDA401002058
:100A8000042802084D2802087C280208A001002042
:100A9000CC280208024B4FF0FF31186806F097B9D6
:100AA000A4010020014B186806F0BCB9A401002085
:100AB000024B0021186806F08AB900BFA40100208B
:100AC000FFF7F0BF03480449006800231A4606F008
:100AD0000CBA00BFA00100200400002013B5084C90
:100AE00000231A4601A9206806F02FFA20684FF06B
:100AF000FF33002201A906F028FA02B010BD00BFA2
:100B0000A001002003685B6C184701207047036850
:100B10009B6A184782B0002301930D4B1A6B42F475
:100B200000021A631A6B02F400020192019A1A6918
:100B300042F400021A611A6922F400021A61054B9C
:100B4000054A1A61054B4FF080629A6002B0704707
:100B50000038024080240020A10B000800E100E0E2
:100B600040F2EF3070470000054B0360054B4FF03B
:100B70008062C3F88820BFF34F8FBFF36F8F704739
:100B80006C2A020800E100E010B504464FF45A61F7
:100B9000FFF7EAFF20461FF060FE204610BD000070
:100BA000024B1B68586803685B691847AC34012026
:100BB00070B5044625460A4B0C300026606026724C
:100BC000667245F8203B6022294609F089FC04F54D
:100BD0005A63EE602435AB42FBD1204670BD00BFA6
:100BE0006C2A020808B50B290BD8DFE801F01206C1
:100BF000100A0A0A0A0808080808012008BD05208A
:100C0000FCE7054B054A0648652120F017FC00204B
:100C1000F4E70220F2E700BF0E29020829290208A2
:100C20007329020808B50A2909D8DFE801F010067F
:100C30000E080808080606060600012008BD054B38
:100C4000054A0648862120F0F9FB0020F6E702203D
:100C5000F4E700BF0E290208C1290208732902081F
:100C60002DE9F84391F81D800C4641460746FFF7F1
:100C7000B9FF94F81E90054649463846FFF7B2FF83
:100C8000494606463846FFF7CDFFA18A628B434BA3
:100C9000521A1A649A61228B521A1A61E28A5863B4
:100CA00042EA01425A6420696268D863DA602768C0
:100CB000802F28D0227F0FD8202F65D0402F63D0DF
:100CC000042F1AD0354B45EA026545F40035C84576
:100CD000DD615FD0324A44E0B7F5807F04D0B7F5DC
:100CE000007FEFD12F4900E02F4941EA0262DA612B
:100CF000E2681A625E62586132E045EA026242F4DA
:100D00000032DA61F6E7A7683A1DDA62217F3A78A5
:100D100045EA016545F40035DD615E62586142B126
:100D2000012A21D0214B224A22484FF4887120F019
:100D300085FBDA69798822F47F42013922F01002BA
:100D400042EA0122DA610121144BDA6942F0200201
:100D5000DA61DA699206FCD410229A600029B9D0CF
:100D6000154A1A60BDE8F883DA69788822F47F4270
:100D7000013822F0100242EA0022FF3942F010024C
:100D800018BF0121DA61DFE745EA0262034B42F452
:100D90000032B6E740F20122E3E700BF00B00240B4
:100DA00001020100090002000A0002000C2A0208E8
:100DB000262A0208732902080102020038B50C46EF
:100DC000897FFFF72FFFA58AE28A164B21695863B6
:100DD00042EA05425A64628BD963521B1A64256841
:100DE000082D0ED19A611A615862207F0E4A42EA9C
:100DF0000062DA61E2681A620C4A5961D9601A60CD
:100E000038BD0022D8611A61E1680A0A480902F473
:100E1000784200F4FC600243C1F3C4010A439A63C0
:100E2000034AECE700B002400900010001020200A1
:100E300001020300034B1A68D207FCD423229A60F4
:100E4000704700BF00B0024030B50F4C2568ED0779
:100E5000FCD423250904A56041F001010225FF2BE4
:100E600065636164E0630AD00849656241EA03632F
:100E7000E361074B22626061E060236030BDE561A1
:100E8000039BA363034BF8E700B002400900010095
:100E9000010002000100030001207047402070475C
:100EA00000EB81100830704700EB8110083070476C
:100EB0000120704741F2E810704741F2E81303FB4C
:100EC00001000830704741F2E81303FB01000830CD
:100ED0007047012070471020704700EB0110083068
:100EE000704700EB011008307047084602F0D4BB91
:100EF00010B5034B0360044607F0A7FF204610BD62
:100F0000242B020810B50446FFF7F2FF20464821C3
:100F10001FF0A3FC204610BD10B5034B0360044630
:100F200007F093FF204610BDF02A020810B50446D2
:100F3000FFF7F2FF204641F2F0111FF08EFC204631
:100F400010BD000010B5034B0360044607F07DFFA1
:100F5000204610BDBC2A020810B50446FFF7F2FF78
:100F6000204618211FF079FC204610BD10B5094B12
:100F70000360044600F590501C30FFF7B9FF04F100
:100F80002C00FFF7C9FF04F11400FFF7DBFF204638
:100F900010BD00BF582B020808B50248FFF7E6FF56
:100FA00008BD00BFAC01002010B50446FFF7DEFF0E
:100FB000204641F2CC311FF050FC204610BD00000D
:100FC0002DE9F34101F084F8054601F085F800248D
:100FD0000146234628462246009410F0E9F8264BA5
:100FE000264A274D1A60204602F012FD254810F0CF
:100FF00047F82B68BFF35B8FDB0736D428461FF01A
:101000002EFC90B3204C214F214B236007F1540656
:1010100004F1140004F12C086060C4F80880E76053
:10102000266107F013FF1B4B6361404607F00EFF7C
:10103000194BE362384607F009FF04F58053174A5D
:10104000C3F81C2203F5197002F0C8FE224607F10E
:101050004801304602F0B8FE304602F01DFB104851
:1010600020F00AFA28461FF006FC0E4802B0BDE840
:10107000F041FFF72DBC00BF103501209823002060
:10108000A801002008000020AC010020C8130020A7
:10109000582B0208BC2A0208F02A0208242B020856
:1010A000990F00081C230020704700000148FFF73B
:1010B0001DBC00BF1C23002070B5224E224C234DC6
:1010C000234B23603046FFF773FD284614F03CFBAA
:1010D000204B2148DC6000224FF48071C3E91212DA
:1010E0001E491A86C3E91A121D4999671D4983F8DA
:1010F00058200B60F02101801B485A6601801B4874
:1011000083F870204FF4A071C3E90422C3E90622DA
:10111000C3E90822C3E90A22C3E90E22C3E9102267
:10112000C3E91422C3E917225A67C3E901650180A4
:101130000F4801800F490A70012283F834200E4ABB
:101140001A6070BD7C150020781500209C230020BB
:10115000A82502081C230020A03401200100000162
:1011600000000101AC340120A6340120A23401208A
:10117000A8340120A4340120342702080148FFF7D5
:10118000F3BC00BF7C1500200020704781807047B1
:10119000C180704701817047418170477047704737
:1011A00070477047704710B4C4880368121B848866
:1011B0005B6D091B12B25DF8044B09B218474FF67C
:1011C000FF7383814FF0FF3303621368C3611060C4
:1011D000704790F825201AB190F8242002B11860C9
:1011E0007047002070478B888380012070477047CC
:1011F00080F82610704790F82600704710B500223E
:10120000B1F90840B1F90A10028042808480C1809F
:1012100010BD0022028042808280C28070470000A0
:10122000034B902283F85A2383F85823704700BF5A
:1012300000E100E0094A0A49D3680A48C3F30A03F7
:10124000013B9BB20B801169C1F30A010139018096
:101250001364536B43F0010353637047006801400C
:101260002224002020240020014BD3F8AC0070473A
:1012700000680140024B0122C3F8AC105A6270476B
:101280000068014070B5044608F093FA23685D6E6B
:101290000CF0E0FD01462046A8472368054AD3F834
:1012A00088502046AC460023BDE87040A2F51631B8
:1012B000604700BF00B004D008F062BA08F06CBA12
:1012C00008F028BA08F089BB90F8252012B103680D
:1012D0005B69184770470000034B4FF080629A60CB
:1012E0004FF080729A60704700E100E0084B4FF0C9
:1012F0008062C3F88820BFF34F8FBFF36F8F4FF02A
:101300008072C3F88820BFF34F8FBFF36F8F704791
:1013100000E100E070B50023124E8380124B0360A1
:10132000336893F8582005460AB1D86C00B998681C
:101330000368DB6A98473368B0FA80F4D86C6409B4
:1013400030B10368DB6A9847002808BF44F0010405
:101350002CB9064B064A07482C2120F06FF8284686
:1013600070BD00BFAC340120682C0208642B020859
:10137000C22B0208FB2B020810B5144C236823B3C0
:10138000134B144A1B6C11888B4213D1124B1988D2
:1013900004F0B2FA226892F86A30013382F86A30B7
:1013A000FFF790FB206808F043FFBDE810400020E5
:1013B000FFF7D4B904F0A0FA206803681B6A9847C5
:1013C000BDE810400020FFF7F3B910BDAC34012098
:1013D00000680140222400202024002007B5064B8D
:1013E000ADF806001B68054801220DF1060104F066
:1013F000CBFF03B05DF804FB10000020F0250020B7
:1014000008B5642005F08DFCFBE7000030B595B011
:10141000102200210AA820F004FA1422002103A8B7
:1014200020F0FFF900241D4B01941A6C42F0805209
:101430001A641B6C03F080530193019B184B0294B8
:101440001A6842F440421A601B6803F44043029356
:101450000122029B4FF48033CDE9082302254FF48B
:101460008003CDE90E5308214FF4A873CDE9101382
:1014700008A804231393129504F05CFA0F23CDE916
:1014800003354FF4A0504FF48053CDE906030521F6
:1014900003A8059404F028FC15B030BD00380240C4
:1014A000007000402DE980489BB002F07DFFFFF7FF
:1014B000ADFF142200210DA8002420F0B2F9C64B84
:1014C00000941A6BC548C64E42F010021A631A6B9C
:1014D00002F010020092009A01941A6B42F020026E
:1014E0001A631A6B02F020020192019A02941A6B9D
:1014F00042F080021A631A6B02F080020292029A92
:1015000003941A6B42F004021A631A6B02F004028D
:101510000392039A04941A6B42F001021A631A6B45
:1015200002F001020492049A05941A6B42F002023E
:101530001A631A6B02F002020592059A06941A6B5E
:1015400042F040021A631A6B02F040020692069AB9
:1015500007941A6B42F008021A631B6B03F008032E
:10156000079322463C21079B03F0E4FB9D4822465B
:10157000042103F0DFFB9C4822464FF4405103F066
:10158000D9FB224699484FF4C04103F0D3FB012513
:101590003C234FF003089148CDF840800DA9022765
:1015A0004FF00409CDE90D350F9403F0D7FA8D48BB
:1015B0000F940DA9CDE90D95109703F0CFFA8C4843
:1015C0000F940DA9CDE90D5403F0C8FA4FF4405320
:1015D00085480DA9CDE90D35CDE90F4703F0BEFAD9
:1015E0000DA94FF4C0438148CDE90D35CDE90F4435
:1015F00003F0B4FA7F48804B036003F0A3F97F4AFD
:101600007F4B3462C6E9002330464FF48043C6E97D
:101610000434C6E90244C6E9064403F075FD10210E
:10162000304603F0B1FF2146304603F0CCFF754849
:10163000754984624FF48273C0E900134FF4007659
:101640001823C0E906630A23704EC362C0E902444E
:10165000C0E90444C0E9084404F03AFE6C4B0D971D
:10166000C6E900354FF0100A4023C6E904A34FF441
:10167000C073C6E906344FF40063C6E908344FF47A
:101680000053B3620DA907233046CDE90E39CDE9E9
:1016900010384FF0080BC6E90249CDE9127704F083
:1016A00015FD4FF6FF7209A93046CDE90AB5089439
:1016B00009950C9404F02AFD284602F0A1FE4FF68D
:1016C000FF7209A93046CDE9097BCDE90B5404F03E
:1016D0001DFD4FF6FF7209A93046CDE9098BCDE912
:1016E0000B9404F013FD4FF40C730893089B0C93B8
:1016F0004FF6FF7209A93046CDE9099B0B9504F01E
:1017000005FD40F26A51304604F01EFD34222146A8
:101710000DEB020020F085F83E4E3F4BB486C6E943
:1017200000340923C6E905351D2340F20D1CC6E926
:10173000073840F24313C6E909C340F2171E40F2CE
:1017400047133046C6E90BE3C6E90244346186F824
:10175000364003F0D9FFFF21F022CDE912144FF4F7
:10176000806805214FF4A073CDE90E24CDE91481E2
:10177000CDE916420DA922463046CDE91037274E55
:1017800018930D94ADF864408DF8664004F087F826
:10179000234B33601B68DFF8989098473368214EDD
:1017A000DB689847204BC6E90A47C6E90C44304637
:1017B000C6E90034C6E9027403F0D4F8294630467D
:1017C00003F088F9194E524621460DA820F029F859
:1017D0004FF480332EE000BF00380240001002407A
:1017E000C024002000080240000C02400018024003
:1017F000000002407824002000300240005C0040DD
:10180000A0860100F025002000500140BC250020EA
:10181000400100A014250020006801402824002079
:10182000140000208024002000B00240302400205A
:1018300000200140C6E900933046164BB362B46005
:101840003461347686F82040F462F460F56186F8FD
:101850003040756102F0E8FD0DA93046CDE90D5527
:101860000F9402F083FFFEF7BBFEFEF7B8FE05F013
:10187000E5F9094A0948214605F00CFA084B094ADE
:1018800018602146084805F005FA084B186005F075
:10189000E7F9FEE70100000FBC2C02080114000864
:1018A0002C240020982C0208EF0500082424002096
:1018B000704770477FB5094B8DF817201B6802935E
:1018C0000DF117020123009201930A4601460448D4
:1018D00003F0C2FC07B05DF804FB00BF0C00002061
:1018E000C02400207FB500238DF81730084B1B68FB
:1018F00002930A4601230DF117010091019301465D
:10190000044803F039FD9DF8170007B05DF804FBAB
:101910000C000020C02400201FB5084C2468009251
:10192000CDE901340A4601230146054803F024FDB0
:10193000003818BF012004B010BD00BF0C0000200B
:10194000C024002002F05CBD08B506480022042136
:1019500003F0F0F9BDE8084002480122042103F039
:10196000E9B900BF0008024038B50B4D044601221A
:101970000A484FF4005103F0DDF900220421284603
:1019800003F0D8F92046FFF729FD28460122BDE8DB
:101990003840042103F0CEB900080240000C024098
:1019A00038B50B4D044600220A484FF4005103F0AD
:1019B000C1F900220421284603F0BCF92046FFF7B4
:1019C0000DFD28460122BDE83840042103F0B2B9DC
:1019D00000080240000C0240F7B5144E144F0546B3
:1019E0000C4630460022042103F0A4F900224FF4F3
:1019F0000051384603F09EF92846FFF7EFFC0D4BE7
:101A00000D481B68224601A904F05AFE38460122FF
:101A10004FF40051019C03F08DF93046012204215E
:101A200003F088F9204603B0F0BD00BF0008024073
:101A3000000C024010000020F025002002F0E0BC65
:101A40000268034B9A4201D102F0C8BC704700BF44
:101A5000001000407047000082B00E4B0022009240
:101A6000596C41F480415964596C01F480410091F2
:101A700000990192196C41F0805119641B6C03F0BC
:101A800080530193019B0F216FF0010002B002F01F
:101A900019BF00BF0038024010B5044688B01422B8
:101AA000002103A81FF0BDFE2268124B9A421ED1EE
:101AB00003F58C33002101915A6C0F4842F4807277
:101AC0005A645A6C02F480720192019A02911A6B64
:101AD00042F001021A631B6B03F001030293029BA5
:101AE0000222032303A9CDE9032303F037F808B04A
:101AF00010BD00BF00200140000002400268094BF9
:101B00009A4282B00BD100230193074B1A6B42F427
:101B100080521A631B6B03F480530193019B02B044
:101B2000704700BF003002400038024007B50F4B3D
:101B300002689A4216D10022A3F5F0430192196B74
:101B400041F4000119631B6B03F4000301930521A9
:101B50005A20019B02F0B6FE5A2003B05DF804EB58
:101B600002F0E2BE03B05DF804FB00BF00B002402B
:101B70002DE9F043044689B01422002103A81FF088
:101B800050FE2268244B9A4243D1244C244800251D
:101B90000095236B43F004032363236B03F00403DA
:101BA0000093009B0195236B43F001032363236B98
:101BB00003F001030193019B4FF012094FF40073EE
:101BC0004FF001080327042603A9CDE90339CDE925
:101BD0000587079602F0C2FF4FF4807311480796FD
:101BE00003A9CDE90339CDE9058702F0B7FF0295D6
:101BF000236C43F400032364236C03F40003029377
:101C0000029B236A43F400032362236A23F4000344
:101C1000236209B0BDE8F083005C00400038024058
:101C20000008024000000240F0B599B004461422BA
:101C3000002107A81FF0F5FD30220DEB0200002166
:101C40001FF0EFFD22685E4B9A4240F0B7800823F8
:101C50000C93C0231093042312930CA84FF4003369
:101C6000159304F009F908B1FFF7F4FE554B5648F7
:101C7000002400945A6C42F080625A645A6C02F05C
:101C800080620092009A01941A6B42F020021A635B
:101C90001A6B02F020020192019A02941A6B42F030
:101CA00001021A631A6B02F001020292029A039473
:101CB0001A6B42F002021A631A6B02F002020392DC
:101CC000039A04941A6B42F040021A631A6B02F0F2
:101CD00040020492049A05941A6B42F004021A63BB
:101CE0001A6B02F004020592059A06941A6B42F0F0
:101CF00008021A631B6B03F00803069302250E26E5
:101D0000069B0B964FF4806307A9CDE90735CDE913
:101D1000094502F023FF41F658032C480B9607A90A
:101D2000CDE907350927CDE9094502F017FF03235F
:101D300027480B9707A9CDE90735CDE9094502F0FA
:101D40000DFF4FF4706322480B9607A9CDE90735C4
:101D5000CDE9094502F002FF4FF40C631D480B96D4
:101D600007A9CDE90735CDE9094502F0F7FEC02303
:101D700019480B9607A9CDE90735CDE9094502F0C9
:101D8000EDFE082315480B9607A9CDE90735CDE9E7
:101D9000094502F0E3FE4FF4A0530E480B9707A944
:101DA000CDE90735CDE9094502F0D8FE5820224695
:101DB000052102F087FD582002F0B6FD19B0F0BDF4
:101DC0000068014000380240001402400000024058
:101DD000000402400018024000080240000C0240CB
:101DE00010B5044688B01422002103A81FF019FD85
:101DF0002268144B9A4223D103F5684300210191D4
:101E00005A6C114842F480125A645A6C02F48012DF
:101E10000192019A02911A6B42F020021A631B6B25
:101E200003F020030293029B4FF46072022303210C
:101E3000CDE903230523CDE9061303A902F08EFEA5
:101E400008B010BD00500140001402402DE9F041DF
:101E500086B0002303932B4B1C68002C4FD14FF00E
:101E60000108C3F80080284B00949A6B274842EA87
:101E700008029A639B6B03EA080300930227032678
:101E80000C25009B01A94FF63F03CDE90137CDE9B1
:101E9000046502F063FE1E48059501A9CDE901879E
:101EA000CDE9034602F05AFE48F23313194805956E
:101EB00001A9CDE90137CDE9034602F04FFE4FF607
:101EC00083731548059501A9CDE90137CDE903468E
:101ED00002F044FE4CF203731048059501A9CDE9C8
:101EE0000137CDE9034602F039FE60230C48059521
:101EF00001A9CDE90137CDE9034602F02FFE06B076
:101F0000BDE8F0814826002000380240001402405D
:101F1000000802400018024000100240000C02407D
:101F20000004024070B588B000230293204B1A6C65
:101F300042F010021A641B6C03F010030293054672
:101F400001A903A8029B03F079FF069B4BBB03F09A
:101F500065FF184E184B336040F2E733F360174BC0
:101F6000B0FBF3F3013B7360304600233361B36091
:101F7000B36104F089FD044680B9304604F03EFCAC
:101F8000044658B9362002F0CFFC0F2D0DD822465A
:101F90002946362002F096FC094B1D60204608B009
:101FA00070BD03F03BFF4000D3E70124F6E700BF1C
:101FB000003802404C2600200010004040420F0034
:101FC0007C0000207047FEE7FEE7FEE7FEE7704773
:101FD000014804F051BC00BF4C260020014803F02A
:101FE00001BC00BF14250020014802F0E9BC00BF7D
:101FF000802400200120704708B51FF0B5FC16238F
:1020000003604FF0FF3008BD08B51FF0ADFC16238C
:102010000360FEE770B50D4614460E46731B9C42E6
:1020200001DC204670BDAFF3008006F8010BF5E738
:1020300070B50D4614460E46731B9C4201DC2046CB
:1020400070BD16F8010BAFF30080F5E74FF0FF30DD
:1020500070474FF400534B600020704701207047D9
:10206000002070470A4A116808B5034609B90949B2
:1020700011601068694603448B4206D91FF074FC56
:102080000C2303604FF0FF3008BD1360FCE700BF76
:1020900094260020E8400120704710B50421044632
:1020A0001EF0DBFB204610BD012908B506D0022931
:1020B00008D059B901F0F8FC006808BD01F0F4FC43
:1020C0004068FAE701F0F0FC8068F6E70020F4E7EA
:1020D00000487047F42C02080920704713B500240B
:1020E00051B1036801948DF8034001AA9C680DF179
:1020F0000303A04702B010BD0846FBE7C089704744
:10210000008A7047C088704780887047807A00F0E6
:102110007F007047807AC0097047806A70477047B7
:1021200070477047704770477047704770477047F7
:1021300090F82C304BB100F16C021268C2653BB1D3
:1021400000F174031B680366704700F16802F4E74E
:1021500000F17003F6E770477047704730B4C2680B
:1021600044685510034604EB6200D20748BF625929
:102170009B6830BC48BFD358184743682BB183686D
:102180002BB9C06800F00100704718467047012065
:10219000704730B4C26844685510034604EB6200CF
:1021A000D20748BF62599B6830BC48BFD358184714
:1021B00043682BB183682BB9C06800F001007047F9
:1021C000184670470120704790F82D3080F85A303B
:1021D000704710B5782104461EF03FFB204610BD25
:1021E00010B5102104461EF038FB204610BD10B576
:1021F000102104461EF031FB204610BD10B54FF4EF
:10220000D07104461EF029FB204610BD10B50446CF
:10221000006B50B10368DB68984730B1206B0368EE
:1022200021469B68BDE81040184710BD00F1980397
:10223000994270B504460D4602D10368DB6A98479F
:1022400004F1D0039D4205D1236820461B6BBDE8F5
:102250007040184770BD0B7970B590F82C6004463B
:102260000D469BB98EB9B3FA83F35B0984F82C3021
:1022700023682046D3F88C309847236820465B6952
:10228000984716B12B79012B03D070BD002EFCD0DE
:10229000E9E723682046D3F88830BDE87040184746
:1022A00000F58470884208B505D10BF0D3FDBDE878
:1022B000084001F001BA08BD074A02600022C0E9E7
:1022C0000122C0E90322C0E90522C0E907224FF438
:1022D00080728284704700BF5844020870B503685A
:1022E00004461B6B154698472368294620465B6BBE
:1022F000BDE87040184770B504461D46BDF9106032
:10230000FFF7ECFF2368294620469B6B984723681C
:1023100031462046DB6BBDE87040184710B52622D9
:10232000044600211FF07DFA2046FFF7C5FF044B4D
:102330002360FF2384F826300023A362204610BDCB
:102340005841020810B52622044600211FF069FA00
:102350002046FFF7B1FF0023A36284F82C3001234D
:10236000064A84F824304FF6FF73E385238684F809
:1023700032302260A386204610BD00BF74400208A0
:102380002DE9F04F2DED028B044687B0A1460025C4
:102390000DF09EF96E4BE56349F8403B04F16C0B80
:1023A0004846FFF7BBFF04F19808584604F1D007F0
:1023B000FFF7B4FF4046FFF7C5FF04F5847A3846BF
:1023C000FFF7C0FF5046FFF777FF4FF47F43A4F8B5
:1023D00034314FF0010384F82C315E4BC4F80831DE
:1023E00004F59E7308EE103AC4F83051C4F8385121
:1023F0001846FFF793FF584BC4F83C312A4618EEB5
:10240000100A2946C4E95C55C4E95E55C4F8685110
:10241000A4F86C51FFF762FF18EE101A504606F050
:10242000DDFE4E4BC4E960344D4BC4E962354D4B83
:10243000C4E964344C4BC4E966354FF4A0732A46B2
:10244000009329464846F023FFF755FF261D4FF01D
:102450007F43A3664946304606F0C0FE4FF4A073A2
:102460002A46009329465846F023FFF744FF3F4B86
:10247000C4F894305946304606F0B0FE4FF00409D7
:10248000404652223321FFF729FF4FF0050B05AAE2
:1024900004A94046A4F8CC90ADF810B0ADF8149063
:1024A00008F050FE4046012108F0B5FA04F5C0736B
:1024B000C4F8C03041463046039306F08FFE3846DC
:1024C000AC223321FFF70AFF05AA062304A93846E8
:1024D000A4F80491ADF81030ADF8149008F032FE75
:1024E0003846012108F097FA039BC4F8F8303946C2
:1024F0003046322706F072FE18EE100A2A462946A8
:1025000000978023FFF7F7FE194A1A4B1A49A4F8DF
:102510006CB1C4E95C23194B5046C4E95E13FFF764
:1025200007FE04F5C873C4F838314FF4877280236E
:10253000504600974421FFF7DEFE3046514606F034
:102540004DFE204607B0BDEC028BBDE8F08F00BF0A
:102550007C2E0208B02D0208A84202084C2E020868
:102560002D220008642E0208A122000800003DFF71
:10257000050099FFCC9900FF000066FF996633FFC4
:10258000704730B50368018185B06D460146D3F8C8
:10259000843004462846984795E807003C3484E890
:1025A000070005B030BD30B50368418185B06D4688
:1025B0000146D3F8843004462846984795E807003A
:1025C0003C3484E8070005B030BD00220280428020
:1025D0008280C280704780F83610704770B50368FB
:1025E00004461B6B154698472368294620465B6EB8
:1025F000BDE87040184700207047806C70477047F6
:1026000070477047704770477047704730B4C26872
:1026100044685510034604EB6200D20748BF625974
:102620009B6830BC48BFD358184743682BB18368B8
:102630002BB9C06800F001007047184670470120B0
:10264000704730B4C26844685510034604EB62001A
:10265000D20748BF62599B6830BC48BFD35818475F
:1026600043682BB183682BB9C06800F00100704744
:10267000184670470120704710B5082104461EF027
:10268000ECF8204610BD10B54C2104461EF0E5F8CC
:10269000204610BD10B5102104461EF0DEF820467D
:1026A00010BD10B5102104461EF0D7F8204610BD0D
:1026B00010B54FF4007104461EF0CFF8204610BD4F
:1026C00008B5FEF701FE08BD00F5CC73994270B560
:1026D00004460D4602D10368DB6A984704F5AE73E1
:1026E0009D4205D1236820461B6BBDE8704018470A
:1026F00070BD0000036870B55E6B124B1B6804462A
:102700008DB22BB9104B114A6C2111481EF096FE68
:102710001049828D0988914203D80F4B0B4A6D21D5
:10272000F3E713F812200D4B1B6853F822000368DF
:102730001B6B9847281A01B233462046BDE870400B
:10274000184700BF04350120B02E0208F22E0208FF
:102750002D2F020808350120742F02080C350120A6
:102760009830884208B505D10BF074FBBDE80840ED
:1027700000F0B2BF08BD00224FF0FF31C0E90021D8
:10278000826070472DE9F04F2DED028B04468DB02D
:10279000A14600250CF09CFFAC4BE56349F8403B9B
:1027A0004846FFF7BBFD04F16C0304F19807184697
:1027B00008EE903AFFF7B2FD3846FFF77DFD4FF483
:1027C0007F43A4F8C4304FF0010304F1CC0A84F82D
:1027D000BC309F4BC4F89830C4F8C050C4F8C850FF
:1027E0005046FFF79BFD9B4BC4F8CC302A46294648
:1027F0005046C4E94055C4E94255C4F8F850A4F81D
:10280000FC50FFF76BFD04F588763846514606F01C
:10281000E5FC2622294630461FF003F83046FFF734
:102820004BFD8D4BC4F838314FF6FF73A4F83C31A3
:102830004FF47F03C4F84431884BC4F810314FF093
:10284000FF33C4E9543504F5AE731846C4F840515B
:10285000A4F84851C4F84C51C4F8585104F5CC7B45
:1028600008EE103A08F0B8FE584608F0B5FE7C4B6A
:10287000C4E978347B4BC4E97A357B4BC4E97C34BA
:102880007A4BC4E97E354FF4A0732A46484600933C
:102890002946F023FFF72FFD04F104084FF07F4392
:1028A0004946A366404606F099FC4FF4A0732A46B9
:1028B00018EE900A00932946F023FFF71CFD6C4B9D
:1028C000C4F8943018EE901A40464FF0320906F0E2
:1028D00085FC294680232A465046CDF80090FFF714
:1028E0000AFD0523A4F8FC30A3F5CE03614AC4F821
:1028F0000031614BC4E94123604BC4F80C313846C8
:10290000FFF716FC04F5F8734FF487723846C4F8E5
:10291000C83044218023CDF80090FFF7ECFC394605
:10292000404606F05BFC3B2267213046FFF7D6FCB1
:102930004FF0FF33C4F84031D4F81031A4F84451BB
:1029400002AF3846D3F884303146984797E80700FD
:1029500004F5A67383E80700494B1B6804F5EA7782
:102960002BB9484B484A602148481EF067FD484B48
:102970001B88022B03D8474B434A6121F4E7464B9F
:102980000221186801F080F8444A034606213846BF
:102990000EF068FBC4F85871304608F0D1F90AAF60
:1029A0002D4B0A93394603233046ADF82C3008F0FE
:1029B000E7F93146404606F011FC18EE100A2946A8
:1029C000B122FFF78BFC072308AA18EE100A4FF07C
:1029D0000109ADF82430ADF8283007A909AB0097FC
:1029E00004F5F076ADF81C50ADF8209008F05EFDCF
:1029F0006123C4F8943118EE101A4046C4F884617B
:102A000006F0ECFB294658466E22FFF767FC0823C8
:102A1000ADF82430ADF8283008AA09AB07A958460C
:102A20000097ADF81C50ADF8209008F03FFD5F23F3
:102A30004046C4F8D031C4F8C061594606F0CEFB18
:102A400020460DB0BDEC028BBDE8F08FC830020807
:102A5000B02D0208A8420208F82F02080830020828
:102A600098300208C9260008B03002086127000823
:102A700000003DFFCC9900FF000066FF996633FF20
:102A800004350120B02E0208B22F02082D2F0208B3
:102A900008350120742F020810350120EA2F0208A2
:102AA000704770470420704703299EBF00EB8100E8
:102AB000C264C365704703299ABF00EB8101C86CEB
:102AC0000020704703299ABF00EB8101C86D0020E8
:102AD000704703299EBF00EB8100C266C367704741
:102AE00003299ABF00EB8101C86E002070470329BB
:102AF0009ABF00EB8101C86F0020704710B58C2190
:102B000004461DF0AAFE204610BD000010B5034B80
:102B10000360044609F09CFC204610BD9831020871
:102B200007B5074B0360019009F092FC019841F250
:102B3000E8111DF092FE019803B05DF804FB00BFA0
:102B40009831020810B5044607F07AFD0A4B23605D
:102B50000023C4E91333C4E91533C4E91733C4E9C6
:102B60001933C4E91B33C4E91D33C4E91F33C4E975
:102B70002133204610BD00BF0431020803682DE94F
:102B8000F0411B6F05460C46984700260746BE429B
:102B900004F1080404DB2846BDE8F04107F068BDF5
:102BA00014ED017A54ED027A2B68F0EE476AB0EE2C
:102BB000677AFEEEED6ABEEEED7AD3F874803146A8
:102BC00016EE903A17EE102A2846C0470136DEE787
:102BD0002DE9F04F2DED028B04469BB0A346002556
:102BE0000CF076FDC74BE5634BF8403B5846FFF7CA
:102BF00095FB04F16C03184604F1980808EE103AAE
:102C0000C14EFFF78BFB4046FFF79CFF04F5927324
:102C100006F12409184604F59C770293FEF77AFB27
:102C2000C4F82461C4F82C91C4F830513846FFF739
:102C300089FF04F5E27318460393FEF76BFB4FF42C
:102C40008073A4F8FC31B14BC4F800324FF6FF7327
:102C5000A4F804324FF47F03C4F80C32AC4BC4F830
:102C6000C461C4F8D83104F509764FF0FF33C4E9E4
:102C70008635C4F8CC91C4E97755C4E97955C4E9DF
:102C80007B55C4E97D55C4F8D051C4F80852A4F866
:102C90001052C4F81452C4F82052304608F00EF90D
:102CA0004FF4616104F5767009F0C8FB4FF4A0732E
:102CB0002A4600932946F0235846FFF71CFB04F1EF
:102CC00004094FF07F43A3665946484606F086FA4A
:102CD0004FF4A0732A4618EE100A00932946F023F9
:102CE000FFF709FB8B4BC4F8943018EE101A4846D6
:102CF00006F074FA50230093194617224046FFF756
:102D0000FAFAD4F8C83004F5EC7A13B9D4F8CC3018
:102D100023B1C4E93255404607F0AAFC4FF4806362
:102D2000C4E93533404607F0A3FCD4F8D0302BB1CA
:102D30000023C4F8D030404607F09AFC764BC4F824
:102D40003031DFF8F8C14FF47843A4F83431029BF6
:102D5000C4F8C030BCE80F000AAD0FC59CE80F00F6
:102D600085E80F000AA94046FFF708FF414648469C
:102D700006F034FA50230093194617223846FFF71D
:102D8000BAFAD4F8683113B9D4F86C312BB10023F6
:102D9000C4E95A33384607F06BFC4FF48063C4E94A
:102DA0005D33384607F064FCD4F870312BB1002352
:102DB000C4F87031384607F05BFCDFF880E1039B14
:102DC000C4F86031BEE80F000DF1480CACE80F000C
:102DD0009EE80F004FF0FF358CE80F00C4F8D0518B
:102DE000A4F8D45112A938464FF00008FFF7C6FEE8
:102DF0003946484684F85D8106F0F0F97B2244218B
:102E00005046FFF76BFAD4F8D831C4F8085204AD35
:102E10002846D3F88430A4F80C825146984795E8A8
:102E200007000AF13C0383E807003C4B1B6804F5EC
:102E300071752BB93A4B3B4A60213B481EF0FEFAB4
:102E40003A4B1B881BB93A4B364A6121F5E7394B9F
:102E50004146186800F018FE374A03460A21284602
:102E60000EF000F9C4F82052504607F069FF012522
:102E7000264B089308A95046ADF8245007F080FF70
:102E80005146484606F0AAF9022308A93046ADF893
:102E9000203006F035F9F023009341463046962263
:102EA000FFF729FA78221146304608F0B2F830468A
:102EB00070226FF0700108F031F9434664224146F8
:102EC0003046CDF8008005F0E0FF3046322108F0B2
:102ED000CFF8432307223046032108F085F829461E
:102EE000304608F023F82946304608F022F84846D4
:102EF000314606F073F920461BB0BDEC028BBDE8ED
:102F0000F08F00BF98310208783E0208F82F0208BF
:102F10000830020800003DFF0000FFFF04350120DB
:102F2000B02E0208B22F02082D2F0208083501200A
:102F3000742F020810350120EA2F020880240208AD
:102F40007047704700F598730868496803C3704775
:102F5000704770474160704770470000064BC0F8EB
:102F60004C310023C0F8503100F5A273C0F848017D
:102F7000C0F84031704700BF1933000801230372C5
:102F80007047704770477047704770477047704789
:102F900010B4C26841685410034601EB6200D207C6
:102FA00048BF0A599B685DF8044B48BFD35818477F
:102FB00043682BB183682BB9C06800F001007047EB
:102FC000184670470120704710B5142104461DF0C3
:102FD00044FC204610BD10B50C2104461DF03DFCFC
:102FE000204610BD10B5102104461DF036FC2046C9
:102FF00010BD10B54FF4AE7104461DF02EFC2046F6
:1030000010BD10B5402104461DF027FC204610BD20
:1030100010B50AF01FFF0368BDE81040DB6B1847CE
:1030200070B50446B2B01D49C02202A81EF0C8FC0B
:10303000237C2F2B03D90123237232B070BD33B907
:10304000174B1B781BB10AF005FF0AF009FF032597
:10305000013DF2D0237C302BEFD832AA02EB830360
:10306000E68953F8C03C608993FBF6F206FB123305
:1030700013FB00F3ADF804006068A189ADF80030DF
:103080000368ADF8061012FB01F21B69ADF80220CF
:1030900069469847237C01332374D9E7A0240208AA
:1030A000AA340120054B1B7801462BB1406818B1AA
:1030B00003680C315B6E1847704700BFAB340120CA
:1030C000037A70B50546BBB940680368DB69984769
:1030D00004463CB96868036805F10C011B6EBDE845
:1030E00070401847A1886B8FC91A236820461B6B54
:1030F00009B29847A469ECE770BD70B5044690F832
:10310000390094F838300130C0B2984284F8390060
:1031100005D901232372002384F8393070BDB4F936
:103120003A2000210CF086FC10F0010283B206D098
:103130004FF6FF710028D8BF0A46134418B2238AFD
:10314000C01AA08760680368DB69984705462DB9F7
:1031500060680368BDE870405B691847A988A38F61
:1031600019442B6828461B6B09B29847AD69EEE7F6
:1031700010B50446D0F8400158B10368DB689847A1
:1031800038B1D4F8400103689B6898470023C4F81D
:10319000403110BD2DE9F047D0E955690546B068CA
:1031A00003681B6A9847B0F5017F05D2504B514A1E
:1031B000A32151481EF042F9706803681B6A9847C2
:1031C0000F2803D84D4B4B4AA421F2E7F06803685F
:1031D0001B6A9847132803D8494B464AA521E8E7BC
:1031E0000AF038FEDFF82C8104300AF099FED8F896
:1031F000000010B10368DB689847D8F8000010B1F0
:1032000003681B6898473F4F386810B103685B69D3
:103210009847D5F83C0110B103685B689847386857
:1032200010B103681B689847D5F83C0110B10368DA
:103230009B689847F068036800215B6A9847002301
:10324000436003720374304B304A02601A88304B7B
:103250001B889A42044640D9073206210533D2081A
:10326000B3FBF1F308219BB2B068A38103686281CC
:103270005B6AE18100219847824600F0E1FC7068BA
:10328000036800215B6A98475146064600F0B2FC8D
:10329000C8F80040C5F83C61C7F800A02EB3331D44
:1032A000C9F80030DAF80030C6F808905046DB68FC
:1032B000CAF83C609847336830461B6898472146F7
:1032C00050460CF0B1FB236820461B6998472368E1
:1032D00020465B69BDE8F0471847073305320621F1
:1032E000DB08B2FBF1F292B2BEE73346D8E700BF8B
:1032F000C43102085232020859330208A0330208CE
:1033000043340208F0340120A03401209C37020825
:10331000A2340120F43401202DE9F14FD0E9555AAF
:103320000746A86803681B6A9847B0F5D07F05D2A6
:10333000454B464AA32146481EF080F8686803685A
:103340001B6A98470F2803D8424B404AA421F2E752
:10335000E86803681B6A98470B2803D83E4B3B4A32
:10336000A521E8E70AF076FDDFF8F49004300AF0D2
:10337000D7FDD9F8000010B10368DB689847D9F889
:10338000000010B103681B689847DFF8D880D8F8B0
:10339000000010B103685B699847D7F83C0110B191
:1033A00003685B689847D8F8000010B103681B6891
:1033B0009847D7F83C0110B103689B689847E868C4
:1033C000036800215B6A98474FF0000B234B0360B2
:1033D0000446C0F804B080F808B0A86803685946ED
:1033E0005B6A9847064600F0EBFB6868036859463D
:1033F0005B6A98473146054600F078FBC9F8004003
:10340000C7F83C51C8F80060E5B12B1DCAF8003080
:103410003368C5F808A03046DB68F56398472B6829
:1034200028461B689847214630460CF0FDFA236871
:1034300020461B69984723685B69204601B0BDE8B8
:10344000F04F18472B46E1E7C4310208E634020882
:1034500059330208A03302084334020878370208BF
:10346000F4340120F03401202DE9F74FD0E9555A0A
:103470000746A86803681B6A984741F2E713984219
:1034800005D85C4B5C4AA3215C481DF0D7FF6868F7
:1034900003681B6A98470F2803D8594B564AA42142
:1034A000F2E7E86803681B6A98473F2803D8554B42
:1034B000514AA521E8E70AF0CDFCDFF85C91043021
:1034C0000AF02EFDD9F8000010B10368DB689847B8
:1034D000D9F8000010B103681B689847DFF83C81F9
:1034E000D8F8000010B103685B699847D7F83C0131
:1034F00010B103685B689847D8F8000010B1036802
:103500001B689847D7F83C0110B103689B6898473F
:10351000E868036800215B6A984706463A4B4FF01B
:10352000000BC0F804B080F808B046F80C3B044625
:10353000304607F009FB14232387344BA4F83CB032
:103540001B78002B37D101232372A8680368002160
:103550005B6A9847064600F0F5FB6868036800213F
:103560005B6A98473146054600F0C6FBC9F8004043
:10357000C7F83C51C8F80060002D39D02B1DCAF89F
:1035800000303368C5F808A03046DB68F56398471B
:103590002B6828461B689847214630460CF044FAB1
:1035A000236820461B69984723685B69204603B05F
:1035B000BDE8F04F1847164A164BE168B2F90020F3
:1035C0000192C4F810B03046D1F838B0B3F9001009
:1035D000D847E168019AD1F83CB030461146D84747
:1035E000304607F02DFA0B4B1B885B426387ACE734
:1035F0002B46C4E7C4310208EA35020859330208F1
:10360000A033020843340208C0370208AB3401205B
:10361000A2340120A0340120F4340120F034012030
:10362000044B1B6893F858200AB1D86C00B998680D
:10363000704700BFAC340120F8B5044617460E466B
:103640000AF03CFD104B1C60104B2360104B002512
:10365000C4E951350F4BC4E953551868036801217B
:103660009B68C4E94F55C4E955769847284600F051
:10367000CFF9FFF7D5FF13F096FEFFF7D1FF13F058
:103680000DFF2046F8BD00BF003501202437020899
:103690000C370208AC340120064BC0F84C31002333
:1036A000C0F8503100F5A273C0F84801C0F84031AD
:1036B000704700BF19330008064BC0F84C31002397
:1036C000C0F8503100F5A273C0F84801C0F840318D
:1036D000704700BF95310008064BC0F84C310023FD
:1036E000C0F8503100F5A273C0F84801C0F840316D
:1036F000704700BF69340008406A7047806A7047AD
:1037000070478B88C0690A68DB0A50F823001044B0
:10371000704710B5C2B1137BB3B1547BD27A240287
:1037200004F4E0641443026A98B202EB8402138842
:103730008B4202D192F9020010BD05D8013880B247
:1037400004320028F3D1F7E70020F5E710B52C216B
:1037500004461DF082F8204610BD000030B58BB045
:103760000446BDF860500895BDF85C5007959DF87B
:10377000505006959DF84C5005959DF8485004957D
:103780009DF8445003959DF8405002959DF83C509B
:103790000195BDF8385000950BF0F2FC064B236004
:1037A000159BE361169B2362199B63621A9BA362BC
:1037B00020460BB030BD00BFE43702087047000060
:1037C00030B5164D2C68BFF35B8F14F001048FB039
:1037D00020D128461DF043F8E0B13F230993104B58
:1037E0000893104B104911480A940122CDE9064371
:1037F0000423CDE903320A230093CDE90B44CDE93C
:1038000001440594FFF7AAFF09481DF035FE28463C
:103810001DF031F805480FB030BD00BF98260020DC
:103820004C550208585502083C5402089C260020BA
:10383000BD3700087047000030B5164D2C68BFF347
:103840005B8F14F001048FB021D128461DF007F8DA
:10385000E8B13F230993104B0893104B10491148CE
:103860000A94CDE9064301220423CDE9033214234F
:1038700000931122CDE90B44CDE901440594FFF7F3
:103880006DFF09481DF0F8FD28461CF0F4FF0548BF
:103890000FB030BDC8260020505502085C55020804
:1038A0004C540208CC260020353800087047000030
:1038B00030B5164D2C68BFF35B8F14F001048FB048
:1038C00020D128461CF0CBFFE0B13F230993104BD9
:1038D0000893104B104911480A940122CDE9064380
:1038E0000423CDE9033228230093CDE90B44CDE92D
:1038F00001440594FFF732FF09481DF0BDFD28463D
:103900001CF0B9FF05480FB030BD00BFF8260020FD
:1039100054550208605502083C550208FC26002058
:10392000AD38000800207047002070470EB403B582
:1039300003AB002153F8042B01930BF049FA02B0BA
:103940005DF804EB03B070470CB407B504AB53F853
:10395000042B01930BF03CFA03B05DF804EB02B0CA
:1039600070470000436C10B5044673B3038F2BB946
:10397000184B194AC52119481DF060FDC38E00EB94
:1039800043035B8C0BB30CF0C4FD238F012B03D8D6
:10399000134B144ACB21EEE7E28E531C9BB2092B4A
:1039A000194688BFA3F10A0104EB410140F63F101C
:1039B000498C814209D10A2B04EB420228BF002323
:1039C00004EB4303508C588451842046BDE81040DA
:1039D0000CF0A2BC3C38020845380208F038020856
:1039E0003A390208483902080CF05DBC10B586B0BF
:1039F00002AC84E806001A460AAB05930193099BC2
:103A000000932146089B09F0A7FD06B010BD0000F9
:103A100038B518BB124B13481C681349B4B122685F
:103A200022440260626822440A60A26814440F4B78
:103A300000221A8000F038F8054600F033F80C4BED
:103A40001C600C4B1D600C4B188007E00B4B036097
:103A50000B4B0B600B4B1C68002CE8D138BD00BF32
:103A6000282700202C270020302700203427002082
:103A7000043501200C350120083501207455020859
:103A80006455020894550208044B1B6853F8210042
:103A9000034B1B6803EB4000704700BF302700203A
:103AA0002C2700200420704700487047382700204A
:103AB00010B5FFF7C1FE044C2060FFF7F9FE60600F
:103AC000FFF77EFEA06010BD3827002070477047CA
:103AD000704704387047704710B5102104461CF039
:103AE000BCFE204610BDA0F10400F5E710B5002291
:103AF0008260044AC16002F108042032046042601E
:103B000010BD00BF1C3A02087047000010B5034BFF
:103B100003600446FEF70AFB204610BD083B02087E
:103B200010B50446FFF7F2FF20464FF4D0711CF0A9
:103B300094FE204610BD000008B5054B1B682BB94C
:103B4000044B054A054890211DF078FC008808BD0B
:103B50003C3501204C3A0208883A0208BB3A020878
:103B600038B50446C630FFF7E7FF054604F1CC0040
:103B7000FFF7E2FF854218BF0122BDE83840034845
:103B800008BF00224FF4005101F0D4B800180240E1
:103B900038B50446FE30FFF7CFFF054604F58270C6
:103BA000FFF7CAFF854218BF0122BDE8384003482D
:103BB00008BF00224FF4804101F0BCB80018024059
:103BC00010B50446FEF7DCFB014B2360204610BD18
:103BD000083B0208FEF7ABBA7047043870477047DD
:103BE00010B5102104461CF038FE204610BDA0F18F
:103BF0000400F5E710B500228260044AC16002F1BA
:103C0000080420320460426010BD00BF3C3B020843
:103C10007047000010B5034B03600446FEF7F1FC4B
:103C2000204610BD783B020810B50446FFF7F2FFAE
:103C300020464FF401711CF010FE204610BD00001C
:103C400010B50446FEF79EFD034B23600023A4F845
:103C50000032204610BD00BF783B0208FEF7D2BC00
:103C600010B5B0F80032084A01331BB20446A0F880
:103C70000032062100F5EA700DF0F4F904F58870C1
:103C8000BDE810400BF0CEB96C3B0208B0F8003232
:103C9000094A10B5013B1BB223EAE3730446A0F8BE
:103CA0000032062100F5EA700DF0DCF904F58870A9
:103CB000BDE810400BF0B6B96C3B02087047043801
:103CC00070477047C0680368DB6A1847A0F10400BA
:103CD000FFF7F8BFC06803681B6B1847A0F104002A
:103CE000FFF7F8BF10B5102104461CF0B6FD2046C2
:103CF00010BDA0F10400F5E710B500228260044A6F
:103D0000C16002F1080428320460426010BD00BFA7
:103D1000AC3B02087047000010B5034B036004463B
:103D2000FEF7F4FE204610BDEC3B020810B5044639
:103D3000FFF7F2FF204641F2E8111CF08EFD20460D
:103D400010BD000010B50446FEF742FF014B236092
:103D5000204610BDEC3B0208FEF7A2BE80F85D11C4
:103D600000F59C7006F0EABD37B50B460B4A0446D9
:103D70000D4600F571700A210DF074F904F5EC7030
:103D80000BF050F904F509702946019007F070F91D
:103D9000019803B0BDE830400BF044B96C3B020819
:103DA000704710B54FF4AE7104461CF056FD204626
:103DB00010BD10B50446D0F8580100F015F82046A3
:103DC000BDE810400AF00AB910B50446FFF734FC0C
:103DD000014B2360204610BD283C02080022C0E9A8
:103DE000002202727047000070B501210546154897
:103DF000154E00F099FF003818BF01202872304698
:103E000000F0B8FB0A21304600F059FC304600F0C3
:103E1000A9FC0446304600F037FC2868297A642360
:103E2000A4B25C4340F6FF73B4FBF3F403686C6028
:103E30009B689847286869680368BDE87040DB683C
:103E4000184700BF0000024030240020F0207047D7
:103E50004FF4A07070472920FDF7A2BD2820FDF780
:103E60009FBD08B5FDF770FDCA20FDF799FDC32081
:103E7000FDF77AFD0820FDF777FD5020FDF774FD72
:103E8000CF20FDF78DFD0020FDF76EFDC120FDF771
:103E90006BFD3020FDF768FDED20FDF781FD64200E
:103EA000FDF762FD0320FDF75FFD1220FDF75CFDCD
:103EB0008120FDF759FDE820FDF772FD8520FDF713
:103EC00053FD0020FDF750FD7820FDF74DFDCB2080
:103ED000FDF766FD3920FDF747FD2C20FDF744FD79
:103EE0000020FDF741FD3420FDF73EFD0220FDF7E7
:103EF0003BFDF720FDF754FD2020FDF735FDEA20BE
:103F0000FDF74EFD0020FDF72FFD0020FDF72CFDF5
:103F1000B120FDF745FD0020FDF726FD1B20FDF734
:103F200023FDB620FDF73CFD0A20FDF71DFDA22074
:103F3000FDF71AFDC020FDF733FD1020FDF714FD3D
:103F4000C120FDF72DFD1020FDF70EFDC520FDF76A
:103F500027FD4520FDF708FD1520FDF705FDC720CD
:103F6000FDF71EFD9020FDF7FFFC3620FDF718FD44
:103F7000C820FDF7F9FCF220FDF712FD0020FDF747
:103F8000F3FCB020FDF70CFDC220FDF7EDFCB620E0
:103F9000FDF706FD0A20FDF7E7FCA720FDF7E4FC8E
:103FA0002720FDF7E1FC0420FDF7DEFC2A20FDF7C9
:103FB000F7FC0020FDF7D8FC0020FDF7D5FC002021
:103FC000FDF7D2FCEF20FDF7CFFC2B20FDF7E8FC3E
:103FD0000020FDF7C9FC0020FDF7C6FC0120FDF71D
:103FE000C3FC3F20FDF7C0FCF620FDF7D9FC012003
:103FF000FDF7BAFC0020FDF7B7FC0620FDF7B4FC86
:104000002C20FDF7CDFCC820FDF718FD2620FDF77C
:10401000C7FC0120FDF7A8FCE020FDF7C1FC0F2044
:10402000FDF7A2FC2920FDF79FFC2420FDF79CFC56
:104030000C20FDF799FC0E20FDF796FC0920FDF7FA
:1040400093FC4E20FDF790FC7820FDF78DFC3C2082
:10405000FDF78AFC0920FDF787FC1320FDF784FC9F
:104060000520FDF781FC1720FDF77EFC1120FDF7F0
:104070007BFC0020FDF778FCE120FDF791FC00209F
:10408000FDF772FC1620FDF76FFC1B20FDF76CFCA2
:104090000420FDF769FC1120FDF766FC0720FDF701
:1040A00063FC3120FDF760FC3320FDF75DFC42200E
:1040B000FDF75AFC0520FDF757FC0C20FDF754FCDA
:1040C0000A20FDF751FC2820FDF74EFC2F20FDF7BC
:1040D0004BFC0F20FDF748FC1120FDF761FCC820C8
:1040E000FDF7ACFC2920FDF75BFCBDE808402C2067
:1040F000FDF756BC08B5FDF727FC0321D320FDF7DB
:104100006BFC80B208BD10B5C4B202220321204668
:10411000FDF7D0FB0A20FDF715FC20460022032105
:10412000FDF7C8FBBDE810400220FDF70BBC38B519
:104130000446E4B2FDF7BCFB00212046FDF7D2FBAC
:10414000012105462046FDF7CDFB40EA052080B25F
:1041500038BD10B5C4B240212046FDF7C3FB0306AD
:1041600007D54C212046FDF7BDFB003818BF0120C4
:1041700010BD01224B212046FDF79CFB204600226A
:104180004B21FDF797FB0020F2E773B50423C4B27F
:104190000E461546D7210DEB03022046FDF7BCFB6A
:1041A000019B1BBA1A0DC3F30B23328020462B80D0
:1041B00001224B21FDF77EFB00224B212046FDF71B
:1041C00079FB02B070BD000010B50A4B1A7890421E
:1041D00004460DD0597888420AD00AB141B901226B
:1041E0009C54FDF765FB2046BDE81040FFF78BBFF0
:1041F00010BD00BF4427002010B5C4B209212046DD
:10420000FDF770FB40F00100C2B209212046BDE875
:104210001040FDF74FBB10B5C4B209212046FDF791
:1042200061FB092100F0FE022046BDE81040FDF7C9
:1042300041BB38B5C4B20D4620460A21FDF752FBFA
:1042400040EA0502D2B220460A21BDE83840FDF717
:1042500031BB07B50190FDF72CFB01981F21FFF73B
:10426000E8FF019803B05DF804EBFFF7C5BF38B570
:10427000C4B20D4620460A21FDF734FB20EA0502B0
:10428000D2B220460A21BDE83840FDF713BB10B575
:104290000446FFF7C0FF20461F21BDE81040FFF78E
:1042A000E6BF10B5C0B20C460B21FDF71BFB20404A
:1042B00010BD1F21FFF7F5BF0A46C0B20B21FDF765
:1042C000F9BA1F21FFF7F8BF38B5C4B20D46204632
:1042D0001721FDF707FB20EA0502D2B2204617217D
:1042E000BDE83840FDF7E6BA70B5C4B20646042111
:1042F0002046FDF7F7FA042100F0FB0205462046B0
:10430000FDF7D8FA3046F021FFF7DEFF05F0F8029E
:1043100020460421FDF7CEFA492220212046FDF750
:10432000C9FA0220FDF70EFB204601222121FDF7EC
:10433000C1FA20469A224121FDF7BCFA204601220B
:104340004A21FDF7B7FA204601224B21FDF7B2FAC8
:10435000204600224B21FDF7ADFA204601225621CE
:10436000FDF7A8FA204601225821FDF7A3FA2046BE
:1043700001224021FDF79EFA2046FF220B21FDF786
:1043800099FABDE870400220FDF7DCBA054BD3F87E
:10439000882042F47002C3F888204FF000629A60CF
:1043A000704700BF00ED00E008B50B4B1A6842F4FF
:1043B00000721A601A6842F480621A601A6842F445
:1043C00080721A60032000F06BFA0020FDF7AAFD4E
:1043D000FDF742FB002008BD003C0240034A044BAD
:1043E00011681B780B441360704700BF48270020FA
:1043F00078000020014B1868704700BF4827002054
:1044000038B50446FFF7F6FF631C1CBF054B1B784D
:10441000054618BFE418FFF7EDFF431BA342FAD38C
:1044200038BD00BF7800002038B50446002800F0F1
:104430009B80056C25B9FDF72FFB656484F83C5023
:10444000236CDB0600F18E80236C23F4885323F069
:10445000020343F002032364444B5A6822F44032BF
:104460005A605A6861680A435A60236821695A6829
:1044700022F480725A605A6842EA01225A605A68ED
:10448000A16822F040725A605A680A435A609A68DA
:10449000E16822F400629A609A680A439A6034499B
:1044A000A26A8A4252D0996821F070619960996835
:1044B0000A439A609A68E16A22F040529A609A68C8
:1044C0000A439A609A6822F002029A609A68217EF2
:1044D00042EA41029A6094F82020002A3ED05A68AD
:1044E000616A42F400625A605A6822F460425A607B
:1044F0005A68013942EA41325A60DA6AE16922F4C3
:104500007002DA62DA6A013942EA0152DA629A68C2
:1045100022F400729A609A6894F8301042EA4122BC
:104520009A609A68616922F480629A609A680020B1
:1045300042EA81229A606064236C23F0030343F013
:1045400001032364002384F83C3038BD9A6822F0CC
:1045500070629A609A6822F04052B2E75A6822F478
:104560000062C9E70120EDE70120EEE700230140EA
:104570000100000F13B50023019390F83C30012B8C
:10458000024672D00168012380F83C308B68D8075E
:104590000CD58B6813F001031AD1116C41F0100196
:1045A0001164516C41F0010151645CE08B6830484A
:1045B00043F001038B602F4B1B68B3FBF0F303EB5D
:1045C00043030193019B002BE3D0019B013BF8E7E0
:1045D000136C294C23F4E06323F0010343F480734C
:1045E00013644B685B0541BF136C23F4405343F4E1
:1045F00080531364136C13F4805318BF536C4FF043
:10460000000018BF23F00603536482F83C006FF0EB
:1046100022031A4A0B60536813F01F0319D1A142F9
:1046200006D0174881420DD1526812F01F0F1AD1DF
:10463000886810F0405016D18B6843F080438B603F
:1046400002B010BD0F4881420DD1526812F0100F18
:10465000EDE7A142F4D18B6813F04053F0D18A68A2
:1046600042F080428A600020EAE70220E8E700BFCB
:1046700040420F0074000020002001400023014050
:10468000002101400022014090F83C30012B14D061
:1046900003689A6822F001029A609B68DB0707D4DE
:1046A000036C23F4885323F0010343F001030364F4
:1046B000002380F83C30184670470220704703689A
:1046C0009A68520570B504460D460BD59B68DE0509
:1046D00008D5036C43F020030364002380F83C30CA
:1046E000012070BDFFF786FE064623681A68910711
:1046F0000CD56FF012021A60226C42F40072226430
:104700009A6812F0405F17D00020EAE7681CEDD0ED
:1047100065B923681B6813F00203E6D1226C84F8A4
:104720003C3042F0040222640320DAE7FFF762FE25
:10473000801BA842EDD8D8E7207E0028E4D1DA6AB1
:1047400012F4700F02D09B685A05DDD4236C23F459
:1047500080732364236CDB04D6D4236C43F0010301
:104760002364BEE70368D86C70470000F7B50023E8
:10477000019390F83C30012B67D0012380F83C3046
:104780000D6803688E68092DACB234D904EB44027D
:10479000DF681E3A4FF0070C0CFA02FC27EA0C0700
:1047A000DF60DF6806FA02F23A43DA6049680629F8
:1047B00001EB81022ED8596B053A1F26964021EA5B
:1047C00006015963596B04FA02F20A435A632F4AED
:1047D00093420AD1122D3AD12D4B5A6822F400028D
:1047E0005A605A6842F480025A60002380F83C30D4
:1047F000184603B0F0BD1A6905EB450C072707FA08
:104800000CF722EA07021A611A6906FA0CF6164337
:104810001E61CBE70C294FF01F010BD81E6B233A0A
:10482000914026EA01011963196B04FA02F20A4366
:104830001A63CCE7DE6A413A914026EA0101D96267
:10484000D96A94400C43DC62C1E70220D1E7114BE6
:104850009D4201D0112DC8D10D4B5A6822F480021F
:104860005A605A6842F400025A600A4B9D42BCD119
:10487000094B0A4A1B68B3FBF2F30A225343019324
:10488000019B002BB1D0019B013BF8E700200140C8
:1048900000230140120000107400002040420F006D
:1048A0000749CA6822F4E0620302120403F4E063D9
:1048B000120C134343F0BF6343F40033CB607047E3
:1048C00000ED00E0164B30B5DC68C4F30224C4F1FF
:1048D0000703251D042B28BF0423062D4FF0FF35A9
:1048E0008CBF033C002405FA03F321EA0303A5402F
:1048F00022EA0502A340002843EA0203ACBF00F10C
:104900006040084A4FEA0313B8BF00F00F00DBB263
:10491000AABF00F56140135480F8003330BD00BFDA
:1049200000ED00E014ED00E0002807DB4109044A37
:1049300000F01F000123834042F82130704700BF80
:1049400000E100E010B5044650B1437903F0FF02E6
:1049500013B90271FDF7D2F801236371002010BD75
:104960000120FCE710B5044630B390F8393003F06D
:10497000FF021BB980F83820FDF7D8F8226861687B
:10498000022384F83930136823F440330B43136057
:10499000536BA16823F007030B435363136CE16867
:1049A00023F47F5323F03F030B43136400200123C0
:1049B000E06384F8393010BD0120FCE77047704790
:1049C000036870B55E681D68F207044614D5E905F2
:1049D00012D51A6822F480721A60C26B42F001028A
:1049E000C26301229A60042380F83930002380F8E2
:1049F0003830436903B19847B20616D5AB0414D5D5
:104A000023681A6822F400521A6020229A60E36B2D
:104A100043F00203E363042384F83930002384F86D
:104A2000383063690BB120469847300716D5290501
:104A300014D523681A6822F400621A6008229A606A
:104A4000E36B43F00403E363042384F83930002369
:104A500084F8383063690BB12046984772070BD54C
:104A60006B0509D523681A6822F480621A60042253
:104A70009A602046FFF7A2FFB00714D5A90512D50A
:104A800023681A6822F400721A6002229A60E36BAB
:104A9000E363012384F83930002384F83830236934
:104AA0000BB120469847F20613D5EB0411D52368C5
:104AB0001A6822F480521A6010229A60E36BE36352
:104AC000012384F83930002384F838302046FFF77A
:104AD00076FF70BDF0B590F83830012B4FF002032F
:104AE0002BD0012280F8393080F8382000EB0113F8
:104AF000D3E907425D6A184F44EA0242093C012C9F
:104B00009CBF05F07F431A434FEA0116036888BF34
:104B100042EA056299B9596A39400A435A62012C3E
:104B200082699A6103D8426A22F07F429A62012325
:104B300080F83930002380F838301846F0BDD96944
:104B400039400A43DA618219012C92691A619CBFCB
:104B500025F07F451D62EAE7F0FFFC002DE9F74FE5
:104B6000DFF8C0916D4A00230D6801249C4004EADF
:104B7000050CAC4340F0B9804D6805F003044FEAE2
:104B800043080326671E06FA08F6012F6FEA060699
:104B900034D8876807EA060ECF6807FA08F747EAAD
:104BA0000E078760476827EA0C0EC5F300179F4081
:104BB00047EA0E074760C76807EA060E8F6807FADC
:104BC00008F747EA0E07022CC76019D14FEAD30A4B
:104BD00000EB8A0A03F0070BDAF820704FEA8B0B20
:104BE0004FF00F0E0EFA0BFE27EA0E0E0F6907FAB2
:104BF0000BF747EA0E07CAF8207001E0032CDAD160
:104C0000076804FA08F437403C4315F4403F046059
:104C10006BD04FF0000ACDF804A0D9F84460404CA6
:104C200046F48046C9F84460D9F8446006F48046EA
:104C30000196019E23F0030606F1804606F59C3698
:104C400003F0030ED6F808804FEA8E0E0F2707FAFE
:104C50000EF7A04228EA07074ED004F58064A04270
:104C60004CD004F58064A0424AD004F58064A04290
:104C700048D004F58064A04246D004F58064A04288
:104C800044D004F58064A04242D004F58064A04280
:104C900040D004F58064A0423ED004F58064A04278
:104CA0000CBF09240A2404FA0EF43C43B46094684F
:104CB0006FEA0C06EF0254BF34404CEA04049460DF
:104CC000D468AF0254BF34404CEA0404D460546842
:104CD000AF0354BF34404CEA040454601468ED033D
:104CE00054BF34404CEA040414600133102B7FF4A9
:104CF0003BAF03B0BDE8F08F5446D4E70124D2E7C0
:104D00000224D0E70324CEE70424CCE70524CAE735
:104D10000624C8E70724C6E70824C4E7003C01408E
:104D200000000240003802400369194214BF01200C
:104D3000002070470AB1816170470904FBE74369AD
:104D400001EA030221EA030141EA0241816170475D
:104D500001684B6913F480634FF0000210D06FF4C8
:104D600080634B612023026380F83D3080F83E2051
:104D7000036C80F83C2043F0040303640120704777
:104D8000184670472DE9F84606460F4691461D46DF
:104D90004FEA114A3368BAF1010F0CBF5C699C6994
:104DA00027EA0404A4B2B4FA84F46409A14501D04A
:104DB000002017E06A1CEED0FFF71CFB089BC01A0E
:104DC000A84201D8002DE5D100232022336386F8C4
:104DD0003D2086F83E30326C86F83C3042F02002AE
:104DE00032640120BDE8F8862DE9F04104460F4603
:104DF000164698462568686927EA000080B2B8B16F
:104E00006B695A0516D52B6843F400732B606FF459
:104E100080636B6120220023236384F83D2084F8A3
:104E20003E30226C42F00402226484F83C300120BF
:104E3000BDE8F081731CDED0FFF7DCFAA0EB0800C0
:104E4000B04201D8002ED5D100232022236384F85C
:104E50003D2084F83E30226C42F02002E4E770B539
:104E600004460D46164621684B6913F0400301D0F5
:104E7000002010E04A69D2060ED56FF010024A6198
:104E80002022236384F83D2084F83E30226C226483
:104E900084F83C30012070BDFFF7ACFA801BA842BB
:104EA00001D8002DDFD100232022236384F83D2088
:104EB00084F83E30226C42F02002E8E770B50446E8
:104EC0000D46164623685B691B0601D5002070BDA0
:104ED0002046FFF73DFFA8B96A1CF3D0FFF78AFA16
:104EE000801BA84201D8002DECD10023202223638F
:104EF00084F83D2084F83E30226C84F83C3042F047
:104F0000200222640120E2E72DE9F0431546026801
:104F100085B0DDE90C789946136843F4807313601B
:104F20000E463B46CDF8008000224FF001110446AA
:104F3000FFF728FF236838B11B68DB0502D54FF463
:104F40000073236403200AE006F0FE061E6119497F
:104F500043463A462046FFF747FF18B1012005B007
:104F6000BDE8F083236803905A6903929B69039319
:104F7000424639462046039BFFF7A0FF40B1236C11
:104F8000042B01BF2268136843F400731360E5E744
:104F9000B9F1010F236802D1EDB21D61DFE72A0AE2
:104FA0001A61394642462046FFF788FF0028E6D1BD
:104FB0002368F1E7020001002DE9FF479A460368E4
:104FC00015461A6842F480621A601A68DDE90C78A6
:104FD00042F480721A600E463B46CDF800800022F3
:104FE0004FF001110446FFF7CDFE236848B11B685E
:104FF000DB0502D54FF400732364032004B0BDE841
:10500000F0875FFA86F906F0FE061E612A494346DC
:105010003A462046FFF7E8FE08B10120EEE7236894
:1050200003905A6903929B6903934246394620468E
:10503000039BFFF743FF40B1236C042B01BF2268A1
:10504000136843F400731360E7E7BAF1010F2368B4
:105050001AD1EDB242461D6139462046FFF72EFFB8
:1050600002460028E8D121680B6843F480730B6086
:105070002046CDF800803B464FF00111FFF782FE3D
:10508000226860B11368B3E72A0A1A6139464246BA
:105090002046FFF713FF0028CED12368D9E749F057
:1050A00001031361044943463A462046FFF79CFE3C
:1050B000003818BF0120A1E70200010070B50446C6
:1050C0000D46164623685B695B0701D5002070BD5D
:1050D0002046FFF73DFEA8B96A1CF3D0FFF78AF916
:1050E000801BA84201D8002DECD10023202223638D
:1050F00084F83D2084F83E30226C84F83C3042F045
:10510000200222640120E2E770B5044608B90120BC
:1051100070BD90F83D3003F0FF021BB980F83C20D1
:10512000FCF726FD242384F83D3023681A6822F01A
:1051300001021A601A6842F400421A601A6822F4E6
:1051400000421A6000F06AFE3F4B65689D4294BFC2
:105150003E4B3F4B98428CBF00230123002BD6D1FE
:105160002268394E51683B4BB0FBF3F321F03F010D
:105170001943B542516088BF4FF49676116A88BFD3
:10518000734321F03F0184BF4FF47A76B3FBF6F30B
:1051900001330B431362D169431E2B4821F44F4165
:1051A000854221F0FF0132D86D0040F6FC70B3FB60
:1051B000F5F30133034242D0C3F30B031943D1612A
:1051C000D4E907301168034321F0C0010B43136099
:1051D0009168D4E9030321F40341034321F0FF0163
:1051E0000B439360D4E90530D168034321F0FF01FC
:1051F0000B43D360136843F00103136000202023A6
:10520000206484F83D30206384F83E0080E7A06885
:1052100050B905EB4505B3FBF5F30133C3F30B03BD
:105220007BB143F40043C9E719206843B3FBF0F3B3
:105230000133C3F30B0323B143F44043BEE704231C
:10524000BCE70123BAE700BFA08601007F841E00EF
:10525000FF083D0040420F002DE9F7430446994600
:105260000C9E0F469046FFF7C5F894F83D30202B72
:10527000054603D0022003B0BDE8F08300903C490E
:10528000192301222046FFF77DFD0028F2D194F872
:105290003C30012BEED02068012384F83C300368B9
:1052A000D9075EBF036843F001030360036823F47A
:1052B00000630360212384F83D30402384F83E30AE
:1052C000002323640A9B6362BDF82C306385638DE1
:1052D0002385284BE362CDE900654B4642463946BB
:1052E0002046FFF711FE00282AD00120C3E7FFF770
:1052F000E5FD40B1236C042B01BF2268136843F421
:1053000000731360F1E7636A27681A4612F8011BFD
:1053100039616262628D218D013A92B262857A6949
:10532000481E80B2520720850AD548B15A783A61A2
:1053300002336362638D013B02399BB22185638531
:10534000238D2A4631462046002BD0D1FFF7B6FEEA
:105350000028CFD12268136843F400731360202320
:1053600084F83D3084F83C0084F83E0083E700BFB9
:10537000020010000000FFFF2DE9F043044687B053
:105380009946109F0D469046FFF734F894F83D304B
:10539000202B064604D00225284607B0BDE8F0833E
:1053A00000907649192301222046FFF7EBFC0028E4
:1053B000F1D194F83C30012BEDD02068012384F822
:1053C0003C300368DB075EBF036843F00103036002
:1053D000036823F400630360222384F83D304023F4
:1053E00084F83E30002323640E9B6362BDF83C309A
:1053F0006385638D2385624BE3622946CDE90076A0
:105400004B4642462046FFF7D7FD054608B1012529
:10541000C2E7228D2368B2B902905A6902929A6952
:105420000292029A1A6842F400721A60DFF85481FC
:10543000238D002B2CD1202284F83D2084F83C3091
:1054400084F83E30A8E7012A0AD11A6822F4806263
:105450001A6003905A6903929A690392039AE1E7EA
:10546000022A0ED11A6822F480621A601A6842F485
:1054700000621A6004905A6904929B690493049B29
:10548000D4E705905A6905929B690593059BCDE782
:10549000032B56D8012B15D1324639462046FFF74B
:1054A000DEFC0028B3D123681A69636A1A70636A44
:1054B00001336362238D013B2385638D013B9BB2E6
:1054C0006385B5E7022B00963B464FF0000241464C
:1054D000204619D1FFF756FC002898D123681A6896
:1054E00042F400721A601A69636A1A70626A531C85
:1054F0006362238D013B2385638D013B9BB26385F2
:1055000023681B695370D2E7FFF73CFC0246002872
:105510007FF47DAF2368196821F4806119601969EF
:10552000636A1970636A009601336362238D013BDD
:105530002385638D013B9BB2638541463B462046F4
:10554000C8E7324639462046FFF789FC00287FF439
:105550005EAF23681A69636A1A70626A531C6362D9
:10556000238D013B2385638D013B9BB263852368BB
:10557000596949077FF55CAFC3E700BF020010001F
:105580000000FFFF0400010010B590F83D30202B13
:10559000DCB216D1242380F83D3003681A6822F06B
:1055A00001021A605A6A22F010025A625A6A1143C2
:1055B00059621A6842F001021A6080F83D400020EA
:1055C00010BD0220FCE730B590F83D30202BDCB256
:1055D00016D10268242380F83D30136823F00103BC
:1055E0001360556A4FF6F0732B40194389B251622C
:1055F000136843F00103136080F83D40002030BD84
:105600000220FCE70068D1F800C0D2018432831880
:105610002DE9F043C6685D684C68D1F8189005F430
:1056200070455D60C5680CF10107C5F30B45C6F315
:105630000B463D44264445EA06455D60C668CD6894
:10564000C6F30A062E449D6805F470459D60C76840
:105650008D68C7F30A0701353D4445EA06459D605C
:105660001D690E6925F007051D614FF0000E1E61D2
:105670009D6991F8327091F83180C3F818E091F883
:10568000305045EA096545EA082545EA07459D6128
:105690005D6925F0FF055D614D695D61DD6925F49A
:1056A000E06525F00705DD61D1E907573D43DD6180
:1056B0009D6A4D6AC3F828E09D62FEB1013E062E48
:1056C0001ED8104DAD5DDE6A06F0E026DE62A4EB6A
:1056D0000C048E6AC96A6C436E43033444EA064480
:1056E000DC621C6B24F4FF6424F007041C63196360
:1056F000835843F001038350BDE8F0830425E2E7BB
:105700000125E0E78C3C020838B50446002863D048
:1057100090F8A13003F0FF021BB980F8A020FCF73D
:1057200083FA022384F8A13023689A6922F0704238
:105730009A61D4E901200243E06899690243206933
:1057400002430A439A619A68244960690A409A6050
:105750009A6842EA0042A06902439A60DA68E06906
:105760000A40DA60DA6842EA0042206A0243DA60FC
:105770001A69606A0A401A611A6942EA0042A06A1C
:1057800002431A615A690A405A615A69E16A42EA57
:105790000142216B0A435A61DA6A94F8350094F8A1
:1057A000361002F07F42DA62DD6A94F834202A4330
:1057B00042EA002242EA0142DA625A6B42F00602F1
:1057C0005A639A6942F001029A6100200123C4F8E9
:1057D000A40084F8A13038BD0120FCE700F800F0F7
:1057E00070477047036870B59E6B5D6B7207044627
:1057F00014D5690712D55A6B22F004025A630422A9
:10580000DA63D0F8A43043F00103C0F8A4300023D9
:1058100080F8A12080F8A030FFF7E2FFB20716D58C
:10582000AB0714D523685A6B22F002025A63022296
:10583000DA63D4F8A4301343C4F8A430042384F802
:10584000A130002384F8A0302046FFF7C9FFF007FD
:1058500010D5E9070ED523685A6B22F001025A636E
:105860000122DA63002384F8A12084F8A0302046C6
:10587000FBF782FD320711D52B070FD523685A6B32
:1058800022F008025A630822DA63012384F8A13067
:10589000002384F8A0302046FFF7A3FF70BD2DE958
:1058A000F04190F8A030012B06460F4694464FF089
:1058B00002001FD04FF0010886F8A08086F8A100F2
:1058C00034240D4604FB02640FCD38340FC40FCDD1
:1058D0000FC40FCD0FC42B68236030466246394693
:1058E000FFF790FE33680020C3F8248086F8A1807B
:1058F00086F8A000BDE8F08190F8A030012B4FF0B1
:10590000020312D080F8A13003685A6B22F0010222
:105910005A63074A11645A6B42F001025A63012329
:1059200080F8A130002380F8A0301846704700BFEF
:10593000006801402DE9F341044640B30368DD07E8
:1059400010D4236898075BD423681A0700F19D8060
:1059500023685B0700F1BD80A069002840F0248126
:1059600000202CE08D4B9A6802F00C02042A07D02C
:105970009A6802F00C02082A0BD15B68590208D51C
:10598000864B1B689A03DCD56368002BD9D10120B4
:1059900015E06368814DB3F5803F13D12B6843F464
:1059A00080332B60FEF726FD7C4E054633689B0353
:1059B000C7D4FEF71FFD401B6428F7D9032002B0AF
:1059C000BDE8F081B3F5A02F04D12B6843F4802308
:1059D0002B60E3E72A6822F480322A602A6822F4E6
:1059E00080222A60002BDDD1FEF704FD06462B68DD
:1059F0009F03A6D5FEF7FEFC801B6428F7D9DDE7E0
:105A0000664B9A6812F00C0F07D09A6802F00C02ED
:105A1000082A11D15B685E020ED4604A13689D07A4
:105A200002D5E368012BB2D11368216923F0F80392
:105A300043EAC103136087E7E268594BB2B1012220
:105A40001A60FEF7D7FC554D06462B68980707D518
:105A50002B68226923F0F80343EAC2032B6073E743
:105A6000FEF7C8FC801B0228EFD9A7E71A60FEF7F3
:105A7000C1FC4A4E0546336899077FF565AFFEF7CE
:105A8000B9FC401B0228F6D998E76269444B82B101
:105A90000122C3F8802EFEF7ADFC404E0546736F21
:105AA0009F073FF555AFFEF7A5FC401B0228F6D92E
:105AB00084E7C3F8802EFEF79DFC384E0546736FD1
:105AC00098077FF545AFFEF795FC401B0228F6D9F5
:105AD00074E7324B1A6C12F0805228D101921A6C82
