:020000040800F2
:10000000000003208D050008C51D0008C71D00085D
:10001000C91D0008CB1D0008CD1D00080000000010
:10002000000000000000000000000000016C00085B
:10003000CF1D000800000000916C00081965000841
:10004000DD050008DD050008DD050008DD05000808
:10005000DD050008DD050008DD050008DD050008F8
:10006000DD050008DD050008DD050008DD050008E8
:10007000DD050008DD050008DD050008DD050008D8
:10008000DD050008DD050008DD050008DD050008C8
:10009000DD050008DD050008DD050008DD050008B8
:1000A000DD050008DD050008DD050008DD050008A8
:1000B000DD050008DD050008DD050008DD05000898
:1000C000DD050008DD050008DD050008DD05000888
:1000D000DD050008DD050008DD050008DD05000878
:1000E000DD050008DD050008DD050008DD05000868
:1000F000DD050008DD050008DD050008DD05000858
:10010000DD050008DD050008DD050008DD05000847
:10011000DD050008DD050008D11D0008DD0500082B
:10012000DD050008DD050008DD050008DD05000827
:10013000DD050008DD050008DD050008DD05000817
:10014000DD050008DD050008DD050008DD05000807
:10015000DD050008DD050008DD050008DD050008F7
:10016000DD050008DD050008DD050008DD050008E7
:10017000DD050008DD050008DD05000800000000C1
:10018000DD050008DD050008DD050008DD050008C7
:10019000DD050008DD050008DD050008DD050008B7
:0C01A000DD1D0008DD050008E91D000859
:1001B00010B5054C237833B9044B13B10448AFF3A1
:1001C00000800123237010BD6401002000000000A6
:1001D000ACD8010808B5034B1BB103490348AFF382
:1001E000008008BD0000000068010020ACD80108B4
:1001F00001F0FF01102A2BDB10F0070F08D010F8D8
:10020000013B013A8B422DD010F0070F42B3F6D1DB
:10021000F0B441EA012141EA014122F007047FF0F4
:1002200000070023F0E80256083C85EA010586EA4B
:10023000010685FA47F5A3FA87F586FA47F6A5FA87
:1002400087F68EB9EED1F0BC01F0FF0102F0070293
:1002500032B110F8013B013A83EA010313B1F8D13E
:100260000020704701387047002D06BF354603381F
:10027000073815F0010F07D1013015F4807F02BF58
:10028000013015F4C03F0130F0BC0138704700BFA9
:1002900053B94AB9002908BF00281CBF4FF0FF31ED
:1002A0004FF0FF3000F070B9ADF1080C6DE904CEED
:1002B00000F006F8DDF804E0DDE9022304B0704741
:1002C0002DE9F047089E0D4604460F46002B4AD103
:1002D0008A42944665D9B2FA82F343B102FA03FC2A
:1002E000C3F120029F4020FA02F217439C404FEADC
:1002F0001C4E1FFA8CF5B7FBFEF1220C0EFB11779A
:1003000042EA074201FB05F090420AD91CEB0202C7
:1003100001F1FF3780F01C81904240F219810239CF
:100320006244121AA4B2B2FBFEF00EFB102244EAA1
:10033000024400FB05F5A5420AD91CEB040400F1B8
:10034000FF3280F00781A54240F204816444023804
:1003500040EA0140641B00211EB1DC400023C6E9D5
:100360000043BDE8F0878B4208D9002E00F0ED80F5
:100370000021C6E900050846BDE8F087B3FA83F11D
:10038000002949D1AB4202D3824200F2F880841A9C
:1003900065EB030201201746002EE2D0C6E90047B4
:1003A000DFE702B9FFDEB2FA82F3002B40F0908063
:1003B0008A1A4FEA1C471FFA8CFE0121B2FBF7F59F
:1003C00007FB1520220C42EA00420EFB05F090428A
:1003D00008D91CEB020205F1FF3802D2904200F26C
:1003E000CB804546121AA4B2B2FBF7F007FB1022ED
:1003F00044EA02440EFB00FEA64508D91CEB0404A7
:1004000000F1FF3202D2A64500F2BB801046A4EBF9
:100410000E0440EA05409FE7C1F120078B4022FA15
:1004200007FC4CEA030C05FA01F420FA07F3FD403F
:100430004FEA1C492343B5FBF9F81FFA8CFE09FB70
:1004400018551C0C44EA054408FB0EF5A54202FAB7
:1004500001F200FA01F00BD91CEB040408F1FF3A99
:1004600080F08880A54240F28580A8F102086444AB
:10047000641B9DB2B4FBF9F309FB134445EA044441
:1004800003FB0EFEA64508D91CEB040403F1FF355F
:100490006CD2A6456AD9023B644443EA0843A3FBF5
:1004A0000295A4EB0E04AC42C846AE4656D353D0D8
:1004B00056B1B0EB080264EB0E0404FA07F7CA4029
:1004C000CC401743C6E9007418460021BDE8F08708
:1004D000C3F1200102FA03FC20FA01F225FA01F12E
:1004E0009D402A434FEA1C471FFA8CFEB1FBF7F0F0
:1004F00007FB1015110C41EA054100FB0EF58D427A
:1005000004FA03F408D91CEB010100F1FF382FD2E3
:100510008D422DD902386144491B92B2B1FBF7F5E7
:1005200007FB151142EA014205FB0EF1914208D981
:100530001CEB020205F1FF3816D2914214D9023D9C
:100540006244521A45EA004138E73146304608E72E
:100550003946E6E61046FBE64845A9D2B9EB020863
:1005600065EB0C0E013BA3E74546EAE72B4694E713
:100570004046D1E7D0467BE7023D624432E7084679
:100580000AE76444023842E7704700BFDFF834D01E
:10059000002103E00C4B5B58435004310B480C4BDB
:1005A00042189A42F6D30B4A02E0002342F8043B79
:1005B000094B9A42F9D303F0A1FD1CF0FDFB00F0BA
:1005C000E9FE704700000320A4AE100800000020E0
:1005D0006401002064010020F42F0120FEE7704731
:1005E00008B500F029FDBDE8084000F0B5BC00F0FA
:1005F00025BD704710B5042104461CF013F92046B0
:1006000010BD000038B50C4B0C4C18800C4B8220F0
:1006100019806368984740F6110398420AD1094D42
:1006200023682C60822098472B688220DB689847DB
:10063000002038BD0120FCE7800100204C00002094
:1006400082010020840100204FF4A071F020FFF708
:10065000D9BF0000F7B5334D2B6804461B698220D3
:10066000984780B2208000284AD02B680DF10602FE
:100670005B6901A982209847BDF8063040F6746294
:1006800093423FD9ADF80620BDF80630D21A92B297
:100690000A2A3DD90B23B2FBF3F2234B1B889A4263
:1006A00001D9013B9AB2BDF8043040F6B8318B4213
:1006B00030D8C3F571630E339BB20F21B3FBF1F356
:1006C0001A4909888B4201D901398BB2184E194D4C
:1006D00030682F68834281B28CBF591AC91AB8B2E8
:1006E000BA428CBF101A801A89B280B2014405291F
:1006F000C8BF33603368C8BF2A6063802B68A3809B
:1007000003B0F0BDB32B9CBFB423ADF80630BBE7FC
:100710000022C8E7C3F56D6308339BB20E2BCCD81B
:100720000023D3E784010020820100208001002003
:10073000880100208C01002037B568460D4614461C
:10074000FFF788FFBDF8000030B1BDF802302B6024
:10075000BDF804302360012003B030BD032821D848
:10076000DFE800F0020B12190F4B1A68B2FA82F29E
:10077000520904210D4803F059BF0B4B5A68B2FAD5
:1007800082F252090821F5E7074B9A68B2FA82F221
:1007900052091021EEE7044BDA68B2FA82F25209EC
:1007A0002021E7E7704700BF9001002000100240C1
:1007B000032821D8DFE800F0020B12190F4B1A684A
:1007C000003A18BF012204210D4803F02FBF0B4B44
:1007D0005A68003A18BF01220821F5E7074B9A68CA
:1007E000003A18BF01221021EEE7044BDA68003A04
:1007F00018BF01222021E7E7704700BF90010020C9
:100800000010024003280DD8DFE800F00206080AB5
:100810000421054803F00FBF0821FAE71021F8E78B
:100820002021F6E7704700BF0010024008B50328FA
:1008300011D8DFE800F0020A0C0E0421074803F08B
:10084000EFFE431E5842584108BD0821F6E710212B
:10085000F4E72021F2E70020F3E700BF0010024098
:1008600070B5084D00240126E0B2FFF7DFFF18B194
:100870002B68012B18BF2E600134052C05F10405EF
:10088000F2D170BD90010020012380F8781080F82B
:100890007930704700207047034B4164003918BF1E
:1008A00001211970704700BFC32301200020704749
:1008B000836B0BB10846184770474FF6FF707047BF
:1008C000406803689B69184770477047704700008D
:1008D00010B5044600F080FC23680349D3F88C303F
:1008E0002046BDE810401847000000D008B5036856
:1008F0000446D3F880309847236820469B6F98477A
:1009000000F0ECF8236820461B6F9847292000F080
:1009100079FF00F0E3F8236820461B6F9847F8E75B
:1009200010B5044608F050FF23682046D3F8AC30D9
:10093000BDE81040184700F041BC00F045BC00F095
:1009400069BC00F017BC00F071BC00F079BC00F08D
:100950001BBC08F0A5B910B57C2104461BF062FF52
:10096000204610BD90F87A301BB1406803681B68C0
:10097000184718467047000010B590F8341090F8EA
:1009800078400C4B8C421A7809D03AB90A4A0B4984
:100990001488088810800C8001221A7010BD002A6B
:1009A000FCD0054A05491488088810800C80002274
:1009B000F3E700BFBC230120B8230120BA230120A4
:1009C00070B50D46194635B9094B0A4A0A4840F236
:1009D000D2211BF055FFC0E90F52084B003A18BF57
:1009E00001221A700368BDE87040D3F88C301847B4
:1009F000DCD9010814DA010862DA0108C2230120F7
:100A000008B5094B1B888B4203D8084B1B889342BF
:100A100005D9074B074A08489E211BF031FF074BB9
:100A20001980074B1A8008BDB8230120BA23012082
:100A3000A7DA01080ADB010862DA0108BE230120F7
:100A4000C0230120012108B50022084605F0F1FD70
:100A50000A4B186028B90A4B0A4A28210A481BF099
:100A60000FFF00220421012005F080FE074B1860D3
:100A700018B9074B034A2C21F0E708BDA401002058
:100A800028DC010871DC0108A0DC0108A0010020BD
:100A9000F1DC0108024B4FF0FF31186805F013BE7E
:100AA000A4010020014B186805F038BEA401002005
:100AB000024B0021186805F006BE00BFA40100200B
:100AC000FFF7F0BF03480449006800231A4605F009
:100AD00088BE00BFA00100200400002013B5084C10
:100AE00000231A4601A9206805F0ABFE20684FF0EC
:100AF000FF33002201A905F0A4FE02B010BD00BF23
:100B0000A001002003685B6C184701207047036850
:100B10009B6A184782B0002301930D4B1A6B42F475
:100B200000021A631A6B02F400020192019A1A6918
:100B300042F400021A611A6922F400021A61054B9C
:100B4000054A1A61054B4FF080629A6002B0704707
:100B50000038024098130020A10B000800E100E0DB
:100B600040F2EF3070470000054B0360054B4FF03B
:100B70008062C3F88820BFF34F8FBFF36F8F704739
:100B800094DE010800E100E010B504464FF45A611C
:100B9000FFF7EAFF20461BF045FE204610BD00008F
:100BA000024B1B68586803685B691847C42301201F
:100BB00070B5044625460A4B0C300026606026724C
:100BC000667245F8203B6022294608F03BFF04F599
:100BD0005A63EE602435AB42FBD1204670BD00BFA6
:100BE00094DE010808B50B290BD8DFE801F01206E6
:100BF000100A0A0A0A0808080808012008BD05208A
:100C0000FCE7054B054A064865211BF039FE00202C
:100C1000F4E70220F2E700BF33DD01084EDD0108F2
:100C200098DD010808B50A2909D8DFE801F01006A7
:100C30000E080808080606060600012008BD054B38
:100C4000054A064886211BF01BFE0020F6E702201D
:100C5000F4E700BF33DD0108E7DD010898DD010896
:100C60002DE9F84391F81D800C4641460746FFF7F1
:100C7000B9FF94F81E90054649463846FFF7B2FF83
:100C8000494606463846FFF7CDFFA18A628B434BA3
:100C9000521A1A649A61228B521A1A61E28A5863B4
:100CA00042EA01425A6420696268D863DA602768C0
:100CB000802F28D0227F0FD8202F65D0402F63D0DF
:100CC000042F1AD0354B45EA026545F40035C84576
:100CD000DD615FD0324A44E0B7F5807F04D0B7F5DC
:100CE000007FEFD12F4900E02F4941EA0262DA612B
:100CF000E2681A625E62586132E045EA026242F4DA
:100D00000032DA61F6E7A7683A1DDA62217F3A78A5
:100D100045EA016545F40035DD615E62586142B126
:100D2000012A21D0214B224A22484FF488711BF01E
:100D3000A7FDDA69798822F47F42013922F0100296
:100D400042EA0122DA610121144BDA6942F0200201
:100D5000DA61DA699206FCD410229A600029B9D0CF
:100D6000154A1A60BDE8F883DA69788822F47F4270
:100D7000013822F0100242EA0022FF3942F010024C
:100D800018BF0121DA61DFE745EA0262034B42F452
:100D90000032B6E740F20122E3E700BF00B00240B4
:100DA00001020100090002000A00020032DE01080F
:100DB0004CDE010898DD01080102020038B50C463E
:100DC000897FFFF72FFFA58AE28A164B21695863B6
:100DD00042EA05425A64628BD963521B1A64256841
:100DE000082D0ED19A611A615862207F0E4A42EA9C
:100DF0000062DA61E2681A620C4A5961D9601A60CD
:100E000038BD0022D8611A61E1680A0A480902F473
:100E1000784200F4FC600243C1F3C4010A439A63C0
:100E2000034AECE700B002400900010001020200A1
:100E300001020300012070474020704700EB811041
:100E40000830704700EB8110083070470120704770
:100E50004FF4A87070474FF4A87303FB01000830EB
:100E600070474FF4A87303FB01000830704701205E
:100E700070471020704700EB01100830704700EBFE
:100E8000011008307047084602F01CB910B5034B3A
:100E90000360044607F059FC204610BD4CDF0108F2
:100EA00010B50446FFF7F2FF204648211BF0BAFCBC
:100EB000204610BD10B5034B0360044607F045FC07
:100EC000204610BD18DF010810B50446FFF7F2FFF9
:100ED00020464FF4AC711BF0A5FC204610BD00006D
:100EE00010B5034B0360044607F02FFC204610BDED
:100EF000E4DE010810B50446FFF7F2FF2046182192
:100F00001BF090FC204610BD10B5084B0360044652
:100F100000F5C270FFF7BAFF04F12C00FFF7CAFF1B
:100F200004F11400FFF7DCFF204610BD80DF01084C
:100F300008B50248FFF7E8FF08BD00BFAC0100207C
:100F400010B50446FFF7E0FF20464FF44B711BF04D
:100F500069FC204610BD00002DE9F34100F0B8FF08
:100F6000054600F0B9FF00240146234628462246E4
:100F700000940DF0EBFF254B254A264D1A602046C4
:100F800002F09CFC24480DF049FF2B68BFF35B8FF7
:100F9000DB0735D428461BF047FC88B31F4C204B99
:100FA000236004F5E87604F1140004F12C0804F53C
:100FB000C2776060C4F80880E760266107F0C6FB6E
:100FC000184B6361404607F0C1FB174BE36238469C
:100FD00007F0BCFB154BC4F8843104F5E67002F051
:100FE000A9FD224604F5E671304602F059FD30466F
:100FF00002F068F80E481BF061FC28461BF020FC4C
:101000000C4802B0BDE8F041FFF762BC202401208B
:10101000F8120020A801002008000020AC010020E8
:1010200080DF0108E4DE010818DF01084CDF010859
:10103000310F00087C120020704700000148FFF7C4
:1010400055BC00BF7C12002070B5224E224C234DAF
:10105000234B23603046FFF7ABFD284612F042FADF
:10106000204B2148DC6000224FF48071C3E912124A
:101070001E491A86C3E91A121D4999671D4983F84A
:1010800058200B60F02101801B485A6601801B48E4
:1010900083F870204FF4A071C3E90422C3E906224B
:1010A000C3E90822C3E90A22C3E90E22C3E91022D8
:1010B000C3E91422C3E917225A67C3E90165018015
:1010C0000F4801800F490A70012283F834200E4A2C
:1010D0001A6070BDDC040020D8040020FC1200203F
:1010E000CCD901087C120020B823012001000001A6
:1010F00000000101C4230120BE230120BA230120E6
:10110000C0230120BC23012058DB01080148FFF760
:101110002BBD00BFDC040020002070478180704799
:10112000C1807047018170474181704770477047A7
:1011300070477047704710B4C4880368121B8488D6
:101140005B6D091B12B25DF8044B09B218474FF6EC
:10115000FF7383814FF0FF3303621368C361106034
:10116000704790F825201AB190F8242002B1186039
:1011700070470000034B902283F85A2383F85823CA
:10118000704700BF00E100E0094A0A49D3680A48F5
:10119000C3F30A03013B9BB20B801169C1F30A013F
:1011A000013901801364536B43F0010353637047AB
:1011B000006801408213002080130020014BD3F807
:1011C000AC00704700680140024B0122C3F8AC102C
:1011D0005A6270470068014070B5044607F0B5FDDB
:1011E00023685D6E0BF06AF901462046A847236824
:1011F000054AD3F888502046AC460023BDE870402D
:10120000A2F51631604700BF00B004D007F084BDDE
:1012100007F08EBD07F04ABD07F0ABBE90F8252061
:1012200012B103685B69184770470000034B4FF029
:1012300080629A604FF080729A60704700E100E02F
:10124000084B4FF08062C3F88820BFF34F8FBFF385
:101250006F8F4FF08072C3F88820BFF34F8FBFF3BA
:101260006F8F704700E100E010B5144C236823B382
:10127000134B144A1B6C11888B4213D1124B1988E3
:1012800003F0B6FF226892F86A30013382F86A30C0
:10129000FFF718FC206808F097FABDE8104000201E
:1012A000FFF75CBA03F0A4FF206803681B6A984745
:1012B000BDE810400020FFF77BBA10BDC423012019
:1012C00000680140821300208013002007B5064B00
:1012D000ADF806001B68054801220DF1060104F077
:1012E000CFFC03B05DF804FB1000002008150020BF
:1012F00008B5642005F091F9FBE7000030B595B022
:10130000102200210AA81BF0AEFC1422002103A821
:101310001BF0A9FC00241D4B01941A6C42F0805272
:101320001A641B6C03F080530193019B184B0294C9
:101330001A6842F440421A601B6803F44043029367
:101340000122029B4FF48033CDE9082302254FF49C
:101350008003CDE90E5308214FF4A873CDE9101393
:1013600008A804231393129503F060FF0F23CDE91F
:1013700003354FF4A0504FF48053CDE90603052107
:1013800003A8059404F02CF915B030BD00380240D4
:101390000070004080B59AB002F0BEFEFFF7AEFFCD
:1013A000142200210DA800241BF05DFCC04B00940A
:1013B0001A6BC048C04D42F010021A631A6B02F05B
:1013C00010020092009A01941A6B42F020021A63F4
:1013D0001A6B02F020020192019A02941A6B42F0F9
:1013E00080021A631A6B02F080020292029A03943E
:1013F0001A6B42F004021A631A6B02F004020392A1
:10140000039A04941A6B42F001021A631A6B02F0F9
:1014100001020492049A05941A6B42F002021A63C4
:101420001A6B02F002020592059A06941A6B42F0BA
:1014300040021A631A6B02F040020692069A079461
:101440001A6B42F008021A631B6B03F00803079340
:1014500022463C21079B03F0E9F8984822460421E4
:1014600003F0E4F8224696484FF4405103F0DEF8CA
:1014700001264FF003083C238E48CDF840800DA98B
:1014800002274FF00409CDE90D360F9402F0E2FF78
:101490008A480F940DA9CDE90D96109702F0DAFF56
:1014A0000DA94FF440538648CDE90D36CDE90F47DD
:1014B00002F0D0FF8348844B036002F0BFFE834AF2
:1014C000834B2C62C5E9002328464FF48043C5E9CD
:1014D0000434C5E90244C5E9064403F091FA102139
:1014E000284603F0CDFC2146284603F0E8FC794865
:1014F000794984624FF48273C0E900134FF4007598
:101500001823C0E906530A23744DC362C0E902449C
:10151000C0E90444C0E9084404F056FB704B0D9741
:101520004FF0100CC5E900364023C5E904C34FF461
:10153000C073C5E906344FF40063C5E908344FF4BD
:101540000053AB620DA907232846CDE90E39CDE93A
:1015500010384FF0080AC5E90249CDE9127704F0C6
:1015600031FA4FF6FF7209A92846CDE90AA6089478
:1015700009960C9404F046FA304602F0F9FD4FF655
:10158000FF7209A92846CDE9097ACDE90B6404F078
:1015900039FA4FF6FF7209A92846CDE9098ACDE943
:1015A0000B9404F02FFA4FF40C730893089B0C93E0
:1015B0004FF6FF7209A92846CDE9099A0B9604F067
:1015C00021FA40F26A51284604F03AFA34222146C0
:1015D0000DEB02001BF047FB424D434BAC86C5E9C7
:1015E00000340923C5E905361D2340F20D1EC5E967
:1015F000073840F24313C5E909E3284640F2471390
:1016000040F21718C5E90B83C5E902442C6185F83F
:10161000364003F0F5FCFF21F022CDE912144FF41F
:10162000806905214FF4A073CDE90E24CDE9149112
:10163000CDE916420DA922462846CDE910372B4D9B
:1016400018930D94ADF864408DF8664003F0A3FD47
:10165000274B2B601B6898472B68264DDB68984703
:10166000254BC5E90A47C5E90C442846C5E90034BD
:10167000C5E9027402F0F2FD3146284602F0A6FEEA
:10168000FEF7AEFFFEF7ABFF04F054FF1B4A1C4809
:10169000214604F07BFF1B4B1B4A186021461B4868
:1016A00004F074FF1A4B186004F056FFFEE700BF09
:1016B0000038024000100240D81300200008024009
:1016C000000C02409013002000300240005C0040FB
:1016D000A08601000815002000500140D41400200D
:1016E000400100A02C140020006801408813002055
:1016F000140000209813002000B00240C8DF010849
:10170000F11200088C130020A4DF0108EF05000887
:1017100084130020704770477FB5094B8DF8172060
:101720001B6802930DF117020123009201930A46F0
:101730000146044803F00CFA07B05DF804FB00BF53
:101740000C000020D81300207FB500238DF817303F
:10175000084B1B6802930A4601230DF11701009103
:1017600001930146044803F083FA9DF8170007B07F
:101770005DF804FB0C000020D81300201FB5084CB6
:1017800024680092CDE901340A4601230146054848
:1017900003F06EFA003818BF012004B010BD00BF7E
:1017A0000C000020D813002002F0E2BC08B5064867
:1017B0000022042102F03AFFBDE80840024801225D
:1017C000042102F033BF00BF0008024038B50B4DC2
:1017D000044601220A484FF4005102F027FF00227C
:1017E0000421284602F022FF2046FFF76FFD28461D
:1017F0000122BDE83840042102F018BF0008024071
:10180000000C024038B50B4D044600220A484FF444
:10181000005102F00BFF00220421284602F006FFCF
:101820002046FFF753FD28460122BDE83840042139
:1018300002F0FCBE00080240000C0240F7B5144E56
:10184000144F05460C4630460022042102F0EEFEFD
:1018500000224FF40051384602F0E8FE2846FFF718
:1018600035FD0D4B0D481B68224601A904F0A4FB71
:10187000384601224FF40051019C02F0D7FE304659
:101880000122042102F0D2FE204603B0F0BD00BFC9
:1018900000080240000C0240100000200815002043
:1018A00002F066BC0268034B9A4201D102F04EBCC2
:1018B000704700BF001000407047000082B00E4B20
:1018C00000220092596C41F480415964596C01F432
:1018D0008041009100990192196C41F08051196486
:1018E0001B6C03F080530193019B0F216FF00100EB
:1018F00002B002F063BC00BF003802400268094B2E
:101900009A4282B00BD100230193074B1A6B42F429
:1019100080521A631B6B03F480530193019B02B046
:10192000704700BF003002400038024007B50F4B3F
:1019300002689A4216D10022A3F5F0430192196B76
:1019400041F4000119631B6B03F4000301930521AB
:101950005A20019B02F032FC5A2003B05DF804EBE0
:1019600002F05EBC03B05DF804FB00BF00B00240B3
:101970002DE9F043044689B01422002103A81BF08E
:1019800072F92268244B9A4243D1244C2448002502
:101990000095236B43F004032363236B03F00403DC
:1019A0000093009B0195236B43F001032363236B9A
:1019B00003F001030193019B4FF012094FF40073F0
:1019C0004FF001080327042603A9CDE90339CDE927
:1019D0000587079602F03EFD4FF480731148079685
:1019E00003A9CDE90339CDE9058702F033FD02955E
:1019F000236C43F400032364236C03F40003029379
:101A0000029B236A43F400032362236A23F4000346
:101A1000236209B0BDE8F083005C0040003802405A
:101A20000008024000000240F0B599B004461422BC
:101A3000002107A81BF017F930220DEB020000214E
:101A40001BF011F922685E4B9A4240F0B7800823E0
:101A50000C93C0231093042312930CA84FF400336B
:101A6000159303F085FE08B1FFF726FF554B564846
:101A7000002400945A6C42F080625A645A6C02F05E
:101A800080620092009A01941A6B42F020021A635D
:101A90001A6B02F020020192019A02941A6B42F032
:101AA00001021A631A6B02F001020292029A039475
:101AB0001A6B42F002021A631A6B02F002020392DE
:101AC000039A04941A6B42F040021A631A6B02F0F4
:101AD00040020492049A05941A6B42F004021A63BD
:101AE0001A6B02F004020592059A06941A6B42F0F2
:101AF00008021A631B6B03F00803069302250E26E7
:101B0000069B0B964FF4806307A9CDE90735CDE915
:101B1000094502F09FFC41F658032C480B9607A993
:101B2000CDE907350927CDE9094502F093FC0323E8
:101B300027480B9707A9CDE90735CDE9094502F0FC
:101B400089FC4FF4706322480B9607A9CDE907354D
:101B5000CDE9094502F07EFC4FF40C631D480B965D
:101B600007A9CDE90735CDE9094502F073FCC0238B
:101B700019480B9607A9CDE90735CDE9094502F0CB
:101B800069FC082315480B9607A9CDE90735CDE96F
:101B9000094502F05FFC4FF4A0530E480B9707A9CC
:101BA000CDE90735CDE9094502F054FC582022461D
:101BB000052102F003FB582002F032FB19B0F0BD02
:101BC000006801400038024000140240000002405A
:101BD000000402400018024000080240000C0240CD
:101BE00010B5044688B01422002103A81BF03BF86E
:101BF0002268144B9A4223D103F5684300210191D6
:101C00005A6C114842F480125A645A6C02F48012E1
:101C10000192019A02911A6B42F020021A631B6B27
:101C200003F020030293029B4FF46072022303210E
:101C3000CDE903230523CDE9061303A902F00AFC2D
:101C400008B010BD00500140001402402DE9F041E1
:101C500086B0002303932B4B1C68002C4FD14FF010
:101C60000108C3F80080284B00949A6B274842EA89
:101C700008029A639B6B03EA08030093022703267A
:101C80000C25009B01A94FF63F03CDE90137CDE9B3
:101C9000046502F0DFFB1E48059501A9CDE9018727
:101CA000CDE9034602F0D6FB48F2331319480595F7
:101CB00001A9CDE90137CDE9034602F0CBFB4FF690
:101CC00083731548059501A9CDE90137CDE9034690
:101CD00002F0C0FB4CF203731048059501A9CDE951
:101CE0000137CDE9034602F0B5FB60230C480595AA
:101CF00001A9CDE90137CDE9034602F0ABFB06B0FF
:101D0000BDE8F08160150020003802400014024058
:101D1000000802400018024000100240000C02407F
:101D20000004024070B588B000230293204B1A6C67
:101D300042F010021A641B6C03F010030293054674
:101D400001A903A8029B03F0F5FC069B4BBB03F023
:101D5000E1FC184E184B336040F2E733F360174B49
:101D6000B0FBF3F3013B7360304600233361B36093
:101D7000B36104F005FB044680B9304604F0BAF9BB
:101D8000044658B9362002F04BFA0F2D0DD82246E2
:101D90002946362002F012FA094B1D60204608B091
:101DA00070BD03F0B7FC4000D3E70124F6E700BFA5
:101DB00000380240641500200010004040420F002F
:101DC0007C0000207047FEE7FEE7FEE7FEE7704775
:101DD000014804F0CDB900BF64150020014803F0AC
:101DE0007DB900BF2C140020014802F065BA00BF85
:101DF000981300200120704708B51AF0D7FF16236A
:101E000003604FF0FF3008BD08B51AF0CFFF16236E
:101E10000360FEE770B50D4614460E46731B9C42E8
:101E200001DC204670BDAFF3008006F8010BF5E73A
:101E300070B50D4614460E46731B9C4201DC2046CD
:101E400070BD16F8010BAFF30080F5E74FF0FF30DF
:101E500070474FF400534B600020704701207047DB
:101E6000002070470A4A116808B5034609B90949B4
:101E700011601068694603448B4206D91AF096FF38
:101E80000C2303604FF0FF3008BD1360FCE700BF78
:101E9000AC150020F82F0120704710B5042104462E
:101EA0001AF0C0FC204610BD012908B506D0022951
:101EB00008D059B901F04EFD006808BD01F04AFD97
:101EC0004068FAE701F046FD8068F6E70020F4E795
:101ED0000048704700E001080520704713B5002452
:101EE00051B1036801948DF8034001AA9C680DF17B
:101EF0000303A04702B010BD0846FBE7C089704746
:101F0000008A7047C088704780887047807A00F0E8
:101F10007F007047807AC0097047704770477047EC
:101F200070477047704770477047704730B4C26859
:101F300044685510034604EB6200D20748BF62595B
:101F40009B6830BC48BFD358184743682BB183689F
:101F50002BB9C06800F00100704718467047012097
:101F6000704710B5082104461AF05CFC204610BDED
:101F700010B5102104461AF055FC204610BD10B5CE
:101F80004FF4A87104461AF04DFC204610BD00F530
:101F90008670884208B505D10AF090FABDE808407D
:101FA00001F0C0B808BD70B5036804461B6B154648
:101FB00098472368294620465B6BBDE87040184768
:101FC00070B504461D46BDF91060FFF7ECFF2368AD
:101FD000294620469B6B9847236831462046DB6B99
:101FE000BDE87040184700000022C0E90122C0E9A6
:101FF0000322C0E90522C0E907224FF480728284DF
:10200000014A0260704700BF6CE0010810B526224B
:10201000044600211AF027FE2046FFF7E5FF044B97
:102020002360FF2384F826300023A362204610BDDE
:102030009CF101082DE9F04F04468BB0A246002523
:102040000BF0A4FD684BE5634AF8403B04F16C0BD0
:10205000504604F19806FFF7D9FF5846FFF7D6FF20
:102060002622294630461AF0FEFD3046FFF7BCFF17
:102070005E4BC4F898305E4BC4F8C0304FF47F0319
:1020800004F1E0094FF6FF77C4F8CC304FF0FF338E
:1020900004F58678C4E93635A4F8C47008A9C4F8F4
:1020A000C850A4F8D050C4F8D4504846ADF82030F9
:1020B00007F0CEFD2946262240461AF0D4FD4046C0
:1020C000FFF792FF4B4BC4F80C314B4BA4F83A711D
:1020D000C4E950344FF00102484B84F830214FF4EA
:1020E000A072C4E95235A4F83C7184F83E710092A4
:1020F000F0232A4629465046C4F8345184F8385112
:10210000FFF75EFF271D4FF07F42A266514638461B
:1021100006F030FB4FF4A072009229462A4658463A
:10212000F023FFF74DFF364BC4F89430594638463C
:1021300006F020FB304611223A21FFF734FF0DF163
:10214000080A4FF07F42C4F8C82031465046A4F830
:10215000CC5008F081F89AE8070004F1D40383E832
:102160000700234B089308A902233046ADF824301A
:1021700008F01AFB3146384606F0FCFA4FF001032E
:1021800008A94846ADF8203008F039FC57238322CF
:102190000093484670233A21FFF712FF294648462C
:1021A00007F011FD4946384606F0E4FA2946404654
:1021B0004FF48772FFF7F7FE0323ADF81C3008AA2F
:1021C000042307A94046ADF8203008F04BFB04F586
:1021D000A0733846C4F83431414606F0CBFA2046A5
:1021E0000BB0BDE8F08F00BFFCE001080CF1010866
:1021F000D4E0010804F20108E4E001088F1F0008A0
:102200001C0CF5FF70477047704730B4C2684468D3
:102210005510034604EB6200D20748BF62599B6821
:1022200030BC48BFD358184743682BB183682BB9DB
:10223000C06800F0010070471846704701207047E1
:1022400010B5102104461AF0EDFA204610BD10B565
:102250004FF4A87104461AF0E5FA204610BD00F5C7
:102260008670884208B505D10AF028F9BDE8084013
:1022700000F068BF08BD00002DE9F04F04468BB0A8
:10228000A24600250BF082FC674BE5634AF8403B11
:1022900004F16C0B504604F19806FFF7B7FE584660
:1022A000FFF7B4FE2622294630461AF0DCFC304601
:1022B000FFF79AFE5D4BC4F898305D4BC4F8C03010
:1022C0004FF47F0304F1E0094FF6FF77C4F8CC30F8
:1022D0004FF0FF3304F58678C4E93635A4F8C470AE
:1022E00008A9C4F8C850A4F8D050C4F8D45048463F
:1022F000ADF8203007F0ACFC2946262240461AF003
:10230000B2FC4046FFF770FE4A4BC4F80C314A4B12
:10231000A4F83A71C4E950344FF00102474B84F8F5
:1023200030214FF4A072C4E95235A4F83C7184F80E
:102330003E710092F0232A4629465046C4F8345193
:1023400084F83851FFF73CFE271D4FF07F42A2660C
:102350005146384606F00EFA4FF4A0720092294614
:102360002A465846F023FFF72BFE354BC4F894302D
:102370005946384606F0FEF9304619223A21FFF751
:1023800012FE0DF1080A4FF07F42C4F8C820314612
:102390005046A4F8CC5007F05FFF9AE8070004F11C
:1023A000D40383E80700224B089308A94FF00103E8
:1023B0003046ADF8243008F0F7F93146384606F0DB
:1023C000D9F908A94846ADF8205008F018FB802339
:1023D0007A22009348467D233A21FFF7F1FD2946F2
:1023E000484607F0F0FB4946384606F0C3F929464F
:1023F00040464FF48772FFF7D6FD0323ADF81C303B
:1024000008AA042307A94046ADF8203008F02AFAAC
:1024100004F5A0733846C4F83431414606F0AAF9F1
:1024200020460BB0BDE8F08F48E101080CF101082F
:10243000D4E0010804F2010830E101085F2200083D
:102440000CF594FF7047704700F598730868496869
:1024500003C37047704770474160704710B5002252
:10246000B1F90840B1F90A10028042808480C1802D
:1024700010BD704770470000064BC0F84C31002378
:10248000C0F8503100F5A273C0F84801C0F84031DF
:10249000704700BF1D2A0008012303727047704770
:1024A0007047704770477047704770477047704774
:1024B000704701464068036810315B6E184701465B
:1024C0004068036810311B6E18477047014640682A
:1024D000036810315B6E184770B5054640680368A5
:1024E000DB69984704463CB96868036805F1100148
:1024F0001B6EBDE870401847A188AB89C91A2368D4
:1025000020461B6B09B29847A469ECE710B4C26877
:1025100041685410034601EB6200D20748BF0A59D4
:102520009B685DF8044B48BFD358184743682BB1EC
:1025300083682BB9C06800F00100704718467047E7
:102540000120704710B5142104461AF06BF920469B
:1025500010BD10B50C2104461AF064F9204610BDD8
:1025600010B5102104461AF05DF9204610BD10B5D3
:102570004FF4AE7104461AF055F9204610BD10B55F
:10258000382104461AF04EF9204610BD10B5282116
:1025900004461AF047F9204610BD10B5382104460C
:1025A0001AF040F9204610BD10B5402104461AF03B
:1025B00039F9204610BD10B509F080FF0368BDE869
:1025C0001040DB6B1847000070B50446B2B01D49DF
:1025D000C02202A81AF016FC237C2F2B03D901235A
:1025E000237232B070BD33B9174B1B781BB109F0A1
:1025F00065FF09F069FF0325013DF2D0237C302BF4
:10260000EFD832AA02EB8303E68953F8C03C608915
:1026100093FBF6F206FB123313FB00F3ADF8040054
:102620006068A189ADF800300368ADF8061012FBB0
:1026300001F21B69ADF8022069469847237C0133FB
:102640002374D9E7C4D80108C223012073B5044616
:10265000807A637A0130C0B29842A07205D9012312
:1026600023720023A37202B070BDB4F90C20B4F938
:102670000E6000210BF03CFC10F0010283B235D15A
:10268000E081E589A37AAD1B012BADB206D11B4BCE
:102690001B781BB109F012FF09F016FF184A00233E
:1026A0001288ADF80230E3891A445B42ADF8043079
:1026B000144BADF800201B88ADF8063009F0FEFE83
:1026C000036802AA12E906001B6C98476068036859
:1026D000DB6998470446002CC5D0A18823682944AB
:1026E00020461B6B09B29847A469F4E74FF6FF71C7
:1026F0000028D8BF0A461344E381C2E7C223012061
:10270000B8230120BA230120054B1B7801462BB1C9
:10271000406818B103680C315B6E1847704700BF02
:10272000C3230120037A70B50546BBB9406803682E
:10273000DB69984704463CB96868036805F10C01F9
:102740001B6EBDE870401847A1886B8FC91A2368BB
:1027500020461B6B09B29847A469ECE770BD70B5C1
:10276000044690F8390094F838300130C0B29842ED
:1027700084F8390005D901232372002384F8393005
:1027800070BDB4F93A2000210BF0B2FB10F0010249
:1027900083B206D04FF6FF710028D8BF0A46134413
:1027A00018B2238AC01AA08760680368DB6998475B
:1027B00005462DB960680368BDE870405B6918473D
:1027C000A988A38F19442B6828461B6B09B2984728
:1027D000AD69EEE737B50446807A637A0130C0B25E
:1027E0009842A07205D9012323720023A37203B07B
:1027F00030BDB4F90C2000210BF07AFB10F001027F
:1028000083B228D1E081184B18481988258BE389B9
:10281000B0F90000ADF80600CA1A60682B445B1AD4
:1028200012B2ADF8043003682283ADF80020002214
:102830001B69ADF8022069469847A37A012BD6D1CF
:102840000B4B1B78002BD2D009F038FE03B0BDE84B
:10285000304009F039BE4FF6FF710028D8BF0A4654
:102860001344E381CFE700BFB8230120BA2301203E
:10287000C223012010B50446D0F8400158B10368C6
:10288000DB68984738B1D4F8400103689B689847E3
:102890000023C4F8403110BD2DE9F047D0E9556957
:1028A0000546B06803681B6A9847B0F5A87F05D253
:1028B000504B514AA321514819F0E2FF7068036858
:1028C0001B6A98470F2803D84D4B4B4AA421F2E7C7
:1028D000F06803681B6A9847132803D8494B464A97
:1028E000A521E8E709F0EAFDDFF82C81043009F0C2
:1028F00032FED8F8000010B10368DB689847D8F8BA
:10290000000010B103681B6898473F4F386810B14A
:1029100003685B699847D5F83C0110B103685B68B0
:102920009847386810B103681B689847D5F83C0190
:1029300010B103689B689847F068036800215B6AE0
:1029400098470023436003720374304B304A02609F
:102950001A88304B1B889A42044640D90732062118
:102960000533D208B3FBF1F308219BB2B068A38111
:10297000036862815B6AE18100219847824601F029
:102980002FF87068036800215B6A98475146064635
:1029900001F000F8C8F80040C5F83C61C7F800A095
:1029A0002EB3331DC9F80030DAF80030C6F80890AD
:1029B0005046DB68CAF83C609847336830461B686D
:1029C0009847214650460BF08DFA236820461B6934
:1029D0009847236820465B69BDE8F04718470733EE
:1029E00005320621DB08B2FBF1F292B2BEE73346B4
:1029F000D8E700BF74E1010802E2010809E3010819
:102A000050E30108F3E3010800240120B82301206A
:102A1000D4E90108BA230120042401202DE9F14F53
:102A2000D0E9555A0746A86803681B6A9847B0F56D
:102A3000A87F05D2454B464AA321464819F020FFFE
:102A4000686803681B6A98470F2803D8424B404ABE
:102A5000A421F2E7E86803681B6A98470B2803D8AB
:102A60003E4B3B4AA521E8E709F028FDDFF8F4904A
:102A7000043009F070FDD9F8000010B10368DB687C
:102A80009847D9F8000010B103681B689847DFF831
:102A9000D880D8F8000010B103685B699847D7F870
:102AA0003C0110B103685B689847D8F8000010B18A
:102AB00003681B689847D7F83C0110B103689B680E
:102AC0009847E868036800215B6A98474FF0000B5D
:102AD000234B03600446C0F804B080F808B0A8682F
:102AE000036859465B6A9847064601F017F868681C
:102AF000036859465B6A98473146054600F0E8FF8F
:102B0000C9F80040C7F83C51C8F80060E5B12B1D7A
:102B1000CAF800303368C5F808A03046DB68F563B2
:102B200098472B6828461B689847214630460BF08B
:102B3000D9F9236820461B69984723685B692046BA
:102B400001B0BDE8F04F18472B46E1E774E10108FA
:102B500096E4010809E3010850E30108F3E30108E2
:102B6000B0E9010804240120002401202DE9F74FD9
:102B7000D0E955BA0746DBF8080003681B6A984796
:102B8000B0F5A87F05D2564B564AA321564819F0F6
:102B900077FEDBF8040003681B6A98470F2803D808
:102BA000524B504AA421F1E7DBF80C0003681B6A82
:102BB0009847372803D84E4B4A4AA521E6E709F043
:102BC0007DFCDFF84091043009F0C5FCD9F8000025
:102BD00010B10368DB689847D9F8000010B10368AA
:102BE0001B689847DFF82081D8F8000010B103680F
:102BF0005B699847D7F83C0110B103685B68984758
:102C0000D8F8000010B103681B689847D7F83C015A
:102C100010B103689B689847DBF80C00036800213B
:102C20005B6A9847334B03604FF4A05303814FF422
:102C300080734363304B0361304A314BB2F900205B
:102C4000B3F900308381002545608572C581C0E9F4
:102C50000555C0E90755C0E90955C0E90B55294696
:102C60000446009210302A46FFF7AAF9DBF8080064
:102C7000036829465B6A9847064600F04FFFDBF879
:102C80000400036829465B6A98473146054600F010
:102C90001FFFC9F80040C7F83C51C8F80060E5B113
:102CA0002B1DCAF800303368C5F808A03046DB6831
:102CB000F56398472B6828461B689847214630469D
:102CC0000BF010F9236820461B69984723685B695D
:102CD000204603B0BDE8F04F18472B46E1E700BFA0
:102CE00074E1010894E5010809E3010850E30108D3
:102CF000F3E301081CEA0108DCE80108BA2301201B
:102D0000B823012004240120002401202DE9F74FDD
:102D1000D0E9555A0746A86803681B6A9847B0F57A
:102D2000A87F05D2564B574AA321574819F0A8FD52
:102D3000686803681B6A98470F2803D8534B514AA9
:102D4000A421F2E7E86803681B6A98473F2803D884
:102D50004F4B4C4AA521E8E709F0B0FBDFF8409162
:102D6000043009F0F8FBD9F8000010B10368DB6803
:102D70009847D9F8000010B103681B689847DFF83E
:102D80002481D8F8000010B103685B699847D7F830
:102D90003C0110B103685B689847D8F8000010B197
:102DA00003681B689847D7F83C0110B103689B681B
:102DB0009847E868036800215B6A98470646002246
:102DC000344B4260027246F80C3B0446304606F033
:102DD000D5FE14232387304B1B780022A287002BBB
:102DE00037D101232372A868036800215B6A9847E2
:102DF000064600F035FE6868036800215B6A984764
:102E00003146054600F006FEC9F80040C7F83C51BF
:102E1000C8F80060002D30D02B1DCAF80030336890
:102E2000C5F808A03046DB68F56398472B6828464C
:102E30001B689847214630460BF054F8236820461B
:102E40001B69984723685B69204603B0BDE8F04FD3
:102E50001847124BDFF850B0B3F900300093114619
:102E6000BBF900303046FFF7ABF8304606F001FE04
:102E7000BBF800305B426387B5E72B46CDE700BF68
:102E800074E10108A4E6010809E3010850E3010820
:102E9000F3E3010840EA0108C3230120BA2301201B
:102EA0000424012000240120B82301202DE9F74F3C
:102EB000D0E955BA0746DBF8080003681B6A984753
:102EC000B0F5927F05D2564B564AA321564819F0C9
:102ED000D7FCDBF8040003681B6A98470F2803D867
:102EE000524B504AA421F1E7DBF80C0003681B6A3F
:102EF0009847372803D84E4B4A4AA521E6E709F000
:102F0000DDFADFF84091043009F025FBD9F8000024
:102F100010B10368DB689847D9F8000010B1036866
:102F20001B689847DFF82081D8F8000010B10368CB
:102F30005B699847D7F83C0110B103685B68984714
:102F4000D8F8000010B103681B689847D7F83C0117
:102F500010B103689B689847DBF80C0003680021F8
:102F60005B6A9847334B03604FF4A05303814FF4DF
:102F700080734363304B0361304B1B885A4282811C
:102F80002F4A0025B2F9002045608572C581C0E94D
:102F90000555C0E90755C0E90955C0E90B55294653
:102FA000044600921BB22A461030FFF709F8DBF8FE
:102FB0000800036829465B6A9847064600F0F2FD60
:102FC000DBF80400036829465B6A984731460546EA
:102FD00000F0C2FDC9F80040C7F83C51C8F80060D5
:102FE000E5B12B1DCAF800303368C5F808A030469B
:102FF000DB68F56398472B6828461B68984721468D
:1030000030460AF06FFF236820461B699847236803
:103010005B69204603B0BDE8F04F18472B46E1E757
:1030200074E10108BBE7010809E3010850E3010866
:10303000F3E30108F8E90108DCE80108B8230120FE
:10304000BA2301200424012000240120044B1B6822
:1030500093F858200AB1D86C00B99868704700BF3F
:10306000C4230120F8B5044617460E4609F010FBAC
:10307000104B1C60104B2360104B0025C4E95135E8
:103080000F4BC4E953551868036801219B68C4E9D4
:103090004F55C4E955769847284600F00FFCFFF7D6
:1030A000D5FF12F04EF8FFF7D1FF12F0C5F8204619
:1030B000F8BD00BF102401205CE9010844E90108C3
:1030C000C4230120064BC0F84C310023C0F8503116
:1030D00000F5A273C0F84801C0F84031704700BF46
:1030E0001D2A0008064BC0F84C310023C0F85031AF
:1030F00000F5A273C0F84801C0F84031704700BF26
:103100006D2B0008064BC0F84C310023C0F850313D
:1031100000F5A273C0F84801C0F84031704700BF05
:1031200099280008064BC0F84C310023C0F85031F4
:1031300000F5A273C0F84801C0F84031704700BFE5
:103140000D2D0008064BC0F84C310023C0F850315B
:1031500000F5A273C0F84801C0F84031704700BFC5
:10316000AD2E0008406A7047806A704770478B88B0
:10317000C0690A68DB0A50F823001044704710B594
:10318000C2B1137BB3B1547BD27A240204F4E0645D
:103190001443026A98B202EB840213888B4202D174
:1031A00092F9020010BD05D8013880B2043200281F
:1031B000F3D1F7E70020F5E710B52C21044619F00C
:1031C00031FB204610BD000030B58BB00446BDF881
:1031D00060500895BDF85C5007959DF850500695D5
:1031E0009DF84C5005959DF8485004959DF8445025
:1031F00003959DF8405002959DF83C500195BDF80F
:10320000385000950AF0A6FA064B2360159BE3613F
:10321000169B2362199B63621A9BA36220460BB024
:1032200030BD00BF64EA010870477047704730B492
:10323000C26844685510034604EB6200D20748BFD9
:1032400062599B6830BC48BFD358184743682BB1BC
:1032500083682BB9C06800F00100704718467047BA
:103260000120704710B51021044619F0DBFA204602
:1032700010BD10B54FF4A871044619F0D3FA2046DA
:1032800010BD00F58670884208B505D109F016F921
:10329000BDE80840FFF736BF08BD00002DE9F04F3C
:1032A00004468BB0A24600250AF070FC674BE5632C
:1032B0004AF8403B04F16C0B504604F19806FEF7C7
:1032C000A5FE5846FEF7A2FE26222946304619F0F2
:1032D000CAFC3046FEF788FE5D4BC4F898305D4B63
:1032E000C4F8C0304FF47F0304F1E0094FF6FF77D4
:1032F000C4F8CC304FF0FF3304F58678C4E9363596
:10330000A4F8C47008A9C4F8C850A4F8D050C4F8F0
:10331000D4504846ADF8203006F09AFC29462622C3
:10332000404619F0A0FC4046FEF75EFE012384F8FB
:103330003031494BC4F80C31484BA4F83A71C4E918
:103340005034474BA4F83C714FF4A072C4E9523595
:1033500084F83E710092F0232A4629465046C4F86C
:10336000345184F83851FEF72BFE271D4FF07F4271
:10337000A2665146384605F0FDF94FF4A07200925E
:1033800029462A465846F023FEF71AFE354BC4F864
:1033900094305946384605F0EDF9304619223A2165
:1033A000FEF701FE0DF1080A4FF07F42C4F8C82075
:1033B00031465046A4F8CC5006F04EFF9AE807007C
:1033C00004F1D40383E807004FF0030A214B08936C
:1033D00008A93046ADF824A007F0E6F93146384692
:1033E00005F0C8F9022308A94846ADF8203007F0D7
:1033F00006FBA923582200934846AA232321FEF75F
:10340000DFFD2946484606F0DEFB4946384605F012
:10341000B1F9294640464FF48772FEF7C4FD0423F4
:1034200008AA07A94046ADF82030ADF81CA007F067
:1034300019FA04F5A0733846C4F83431414605F052
:1034400099F920460BB0BDE8F08F00BFDCEA010817
:103450000CF10108D4E0010804F20108C4EA0108F3
:1034600083320008F5D60CFF70477047704730B4C0
:10347000C26844685510034604EB6200D20748BF97
:1034800062599B6830BC48BFD358184743682BB17A
:1034900083682BB9C06800F0010070471846704778
:1034A0000120704710B51021044619F0BBF92046E1
:1034B00010BD10B54FF49271044619F0B3F92046CF
:1034C00010BDE030884208B505D108F0F7FFBDE82F
:1034D0000840FFF707BE08BD2DE9F04F04468BB04A
:1034E000A04600250AF052FB574BE56348F8403BE5
:1034F00004F16C0A404604F19806FEF787FD504639
:10350000FEF784FD29462622304619F0ACFB3046F2
:10351000FEF76AFD4D4BC4F898304D4BC4F8C030EF
:1035200004F1E0074FF6FF794FF47F034FF0FF3BC4
:10353000C4F8CC302946C4E936B5A4F8C490262294
:10354000C4F8C850A4F8D050C4F8D450384619F084
:103550008AFB3846FEF748FD012384F804313D4BD1
:10356000C4F8E0303C4BA4F80EB1C4E945343B4B01
:10357000A4F810914FF4A07BC4E9473584F8129168
:10358000F0232A4629464046C4F8085184F80C51D5
:10359000CDF800B0FEF714FD04F104094FF07F42AE
:1035A000A2664146484605F0E5F82A4629465046B7
:1035B000CDF800B0F023FEF703FD294BC4F894309A
:1035C0005146484605F0D6F830461D221521FEF733
:1035D000EAFC0DF108084FF07F42C4F8C8203146DC
:1035E0004046A4F8CC5006F037FE98E8070004F1F6
:1035F000D40383E80700164B089308A93046ADF8BA
:10360000245007F0D1F83146484605F0B3F8294672
:1036100038464FF48772FEF7C6FC0323ADF81C3022
:1036200008AA042307A93846ADF8203007F01AF994
:1036300004F58A734846C4F80831394605F09AF80B
:1036400020460BB0BDE8F08F28EB01080CF1010813
:10365000D4E0010804F2010810EB0108C3340008AB
:103660000CF527FF7047000030B5164D2C68BFF3EE
:103670005B8F14F001048FB020D1284619F0D4F8E4
:10368000E0B13F230993104B0893104B10491148A8
:103690000A940122CDE906430423CDE903320A232B
:1036A0000093CDE90B44CDE901440594FFF78CFD6F
:1036B000094819F003F9284619F0C2F805480FB077
:1036C00030BD00BFB0150020FC0302084004020812
:1036D0001C020208B415002065360008704700007F
:1036E00030B5174D2C68BFF35B8F14F001048FB019
:1036F00022D1284619F098F8F0B13F230993114BD5
:103700000893114B07930123CDE905330493042358
:10371000CDE9024314230D49009320221823CDE95B
:103720000B440B480A940194FFF74EFD094819F029
:10373000C5F8284619F084F805480FB030BD00BF21
:10374000E015002000040208440402082C020208CC
:10375000E4150020DD3600087047000030B5164D36
:103760002C68BFF35B8F14F001048FB020D1284682
:1037700019F05AF8E0B13F230993104B0893104B0E
:10378000104911480A940122CDE906430423CDE9EA
:10379000033228230093CDE90B44CDE9014405947D
:1037A000FFF712FD094819F089F8284619F048F882
:1037B00005480FB030BD00BF101600203C040208C1
:1037C00048040208EC0302081416002059370008C8
:1037D00000207047002070470EB403B503AB0021F2
:1037E00053F8042B019309F0DDFD02B05DF804EB02
:1037F00003B070470CB407B504AB53F8042B019326
:1038000009F0D0FD03B05DF804EB02B07047000092
:10381000436C10B5044673B3038F2BB9184B194A88
:10382000C521194819F02CF8C38E00EB43035B8CBB
:103830000BB30BF0B8F8238F012B03D8134B144AAA
:10384000CB21EEE7E28E531C9BB2092B194688BFB1
:10385000A3F10A0104EB410140F63F10498C81427B
:1038600009D10A2B04EB420228BF002304EB4303D7
:10387000508C588451842046BDE810400AF096BF11
:1038800054EB01085DEB010808EC010852EC01085B
:1038900060EC01080AF051BF10B586B002AC84E8B4
:1038A00006001A460AAB05930193099B0093214633
:1038B000089B08F085F906B010BD000038B518BBAC
:1038C000124B13481C681349B4B1226822440260A9
:1038D000626822440A60A26814440F4B00221A80D6
:1038E00000F038F8054600F033F80C4B1C600C4B28
:1038F0001D600C4B188007E00B4B03600B4B0B60FB
:103900000B4B1C68002CE8D138BD00BF40160020CE
:1039100044160020481600204C16002014240120D4
:103920001C240120182401205C0402084C04020815
:10393000DC040208044B1B6853F82100034B1B688E
:1039400003EB4000704700BF4816002044160020DB
:1039500004207047004870475016002010B5FFF74C
:10396000BFFE044C2060FFF7F9FE6060FFF77CFEAD
:10397000A06010BD50160020704704387047704793
:1039800010B51021044618F04DFF204610BDA0F1DF
:103990000400F5E710B500228260044AC16002F11C
:1039A000080420320460426010BD00BF34ED0108FD
:1039B0007047000010B5034B03600446FEF7B3FAEE
:1039C000204610BD64ED010810B50446FFF7F2FF74
:1039D00020464FF4A87118F025FF204610BD0000C6
:1039E00010B50446FEF726FB014B2360204610BDB0
:1039F00064ED0108FEF798BA7047043870477047C5
:103A000010B51021044618F00DFF204610BDA0F19E
:103A10000400F5E710B500228260044AC16002F19B
:103A2000080420320460426010BD00BF90ED010820
:103A30007047000010B5034B03600446FEF7E2FB3D
:103A4000204610BDC0ED010810B50446FFF7F2FF97
:103A500020464FF4A87118F0E5FE204610BD000086
:103A600010B50446FEF708FC014B2360204610BD4C
:103A7000C0ED0108FEF7C7BB704710B54FF4AE713B
:103A8000044618F0CFFE204610BD10B50446D0F80D
:103A9000580100F052F82046BDE8104008F0B8BDCB
:103AA00010B50446FFF7DEFA014B2360204610BD37
:103AB000F4ED0108704704387047704710B51021C5
:103AC000044618F0AFFE204610BDA0F10400F5E753
:103AD00010B500228260044AC16002F1080420325D
:103AE0000460426010BD00BF40EE01087047000056
:103AF00010B5034B03600446FFF796FB204610BD4C
:103B000070EE010810B50446FFF7F2FF20464FF4AF
:103B1000A87118F087FE204610BD000010B50446BD
:103B2000FFF7BCFB014B2360204610BD70EE01087F
:103B3000FFF77BBB00220260704770477047043874
:103B40007047704710B51021044618F06BFE2046F0
:103B500010BDA0F10400F5E710B500228260044A10
:103B6000C16002F1080420320460426010BD00BF51
:103B70009CEE01087047000010B5034B036004463B
:103B8000FFF772FC204610BDCCEE010810B50446CC
:103B9000FFF7F2FF20464FF4927118F043FE2046E3
:103BA00010BD000010B50446FFF796FC014B2360E2
:103BB000204610BDCCEE0108FFF757BCF02070473F
:103BC0004FF4A07070472920FDF71CBE2820FDF798
:103BD00019BE08B5FDF7EAFDCA20FDF713FEC320A4
:103BE000FDF7F4FD0820FDF7F1FD5020FDF7EEFD97
:103BF000CF20FDF707FE0020FDF7E8FDC120FDF70F
:103C0000E5FD3020FDF7E2FDED20FDF7FBFD642032
:103C1000FDF7DCFD0320FDF7D9FD1220FDF7D6FDF1
:103C20008120FDF7D3FDE820FDF7ECFD8520FDF7B1
:103C3000CDFD0020FDF7CAFD7820FDF7C7FDCB20A4
:103C4000FDF7E0FD3920FDF7C1FD2C20FDF7BEFD9D
:103C50000020FDF7BBFD3420FDF7B8FD0220FDF785
:103C6000B5FDF720FDF7CEFD2020FDF7AFFDEA20E2
:103C7000FDF7C8FD0020FDF7A9FD0020FDF7A6FD1A
:103C8000B120FDF7BFFD0020FDF7A0FD1B20FDF7D3
:103C90009DFDB620FDF7B6FD0A20FDF797FDA22099
:103CA000FDF794FDC020FDF7ADFD1020FDF78EFD62
:103CB000C120FDF7A7FD1020FDF788FDC520FDF709
:103CC000A1FD4520FDF782FD1520FDF77FFDC720F2
:103CD000FDF798FD9020FDF779FD3620FDF792FD68
:103CE000C820FDF773FDF220FDF78CFD0020FDF7E5
:103CF0006DFDB020FDF786FDC220FDF767FDB62003
:103D0000FDF780FD0A20FDF761FDA720FDF75EFDB0
:103D10002720FDF75BFD0420FDF758FD2A20FDF765
:103D200071FD0020FDF752FD0020FDF74FFD002042
:103D3000FDF74CFDEF20FDF749FD2B20FDF762FD5F
:103D40000020FDF743FD0020FDF740FD0120FDF7B9
:103D50003DFD3F20FDF73AFDF620FDF753FD012024
:103D6000FDF734FD0020FDF731FD0620FDF72EFDA7
:103D70002C20FDF747FDC820FDF792FD2620FDF71A
:103D800041FD0120FDF722FDE020FDF73BFD0F2066
:103D9000FDF71CFD2920FDF719FD2420FDF716FD78
:103DA0000C20FDF713FD0E20FDF710FD0920FDF797
:103DB0000DFD4E20FDF70AFD7820FDF707FD3C20A4
:103DC000FDF704FD0920FDF701FD1320FDF7FEFCC2
:103DD0000520FDF7FBFC1720FDF7F8FC1120FDF78F
:103DE000F5FC0020FDF7F2FCE120FDF70BFD0020C3
:103DF000FDF7ECFC1620FDF7E9FC1B20FDF7E6FCC7
:103E00000420FDF7E3FC1120FDF7E0FC0720FDF79F
:103E1000DDFC3120FDF7DAFC3320FDF7D7FC422032
:103E2000FDF7D4FC0520FDF7D1FC0C20FDF7CEFCFE
:103E30000A20FDF7CBFC2820FDF7C8FC2F20FDF75A
:103E4000C5FC0F20FDF7C2FC1120FDF7DBFCC820EC
:103E5000FDF726FD2920FDF7D5FCBDE808402C2004
:103E6000FDF7D0BC08B5FDF7A1FC0321D320FDF779
:103E7000E5FC80B208BD10B5C4B202220321204681
:103E8000FDF74AFC0A20FDF78FFC204600220321A3
:103E9000FDF742FCBDE810400220FDF785BC38B5B7
:103EA0000446E4B2FDF736FC00212046FDF74CFC49
:103EB000012105462046FDF747FC40EA052080B277
:103EC00038BD10B5C4B240212046FDF73DFC0306C5
:103ED00007D54C212046FDF737FC003818BF0120DC
:103EE00010BD01224B212046FDF716FC2046002282
:103EF0004B21FDF711FC0020F2E773B50423C4B297
:103F00000E461546D7210DEB03022046FDF736FC81
:103F1000019B1BBA1A0DC3F30B23328020462B8062
:103F200001224B21FDF7F8FB00224B212046FDF733
:103F3000F3FB02B070BD000010B50A4B1A78904236
:103F400004460DD0597888420AD00AB141B90122FD
:103F50009C54FDF7DFFB2046BDE81040FFF78BBF08
:103F600010BD00BF5C16002010B5C4B20921204668
:103F7000FDF7EAFB40F00100C2B209212046BDE88E
:103F80001040FDF7C9BB10B5C4B209212046FDF7AA
:103F9000DBFB092100F0FE022046BDE81040FDF7E2
:103FA000BBBB38B5C4B20D4620460A21FDF7CCFB99
:103FB00040EA0502D2B220460A21BDE83840FDF7AA
:103FC000ABBB07B50190FDF7A6FB01981F21FFF7DA
:103FD000E8FF019803B05DF804EBFFF7C5BF38B503
:103FE000C4B20D4620460A21FDF7AEFB20EA0502C9
:103FF000D2B220460A21BDE83840FDF78DBB10B58E
:104000000446FFF7C0FF20461F21BDE81040FFF720
:10401000E6BF10B5C0B20C460B21FDF795FB204062
:1040200010BD1F21FFF7F5BF0A46C0B20B21FDF7F7
:1040300073BB1F21FFF7F8BF38B5C4B20D46204649
:104040001721FDF781FB20EA0502D2B22046172195
:10405000BDE83840FDF760BB70B5C4B20646042128
:104060002046FDF771FB042100F0FB0205462046C7
:10407000FDF752FB3046F021FFF7DEFF05F0F802B6
:1040800020460421FDF748FB492220212046FDF768
:1040900043FB0220FDF788FB204601222121FDF78A
:1040A0003BFB20469A224121FDF736FB20460122A8
:1040B0004A21FDF731FB204601224B21FDF72CFB65
:1040C000204600224B21FDF727FB204601225621E6
:1040D000FDF722FB204601225821FDF71DFB20465B
:1040E00001224021FDF718FB2046FF220B21FDF79E
:1040F00013FBBDE870400220FDF756BB054BD3F81B
:10410000882042F47002C3F888204FF000629A6061
:10411000704700BF00ED00E008B50B4B1A6842F491
:1041200000721A601A6842F480621A601A6842F4D7
:1041300080721A60032000F02FF80020FDF7F2FDD6
:10414000FDF7BCFB002008BD003C0240034A044BC5
:1041500011681B780B441360704700BF6016002085
:1041600078000020014B1868704700BF60160020DF
:1041700038B50446FFF7F6FF631C1CBF054B1B78E0
:10418000054618BFE418FFF7EDFF431BA342FAD31F
:1041900038BD00BF780000200749CA6822F4E062F9
:1041A0000302120403F4E063120C134343F0BF63F1
:1041B00043F40033CB60704700ED00E0164B30B5A0
:1041C000DC68C4F30224C4F10703251D042B28BFB7
:1041D0000423062D4FF0FF358CBF033C002405FA65
:1041E00003F321EA0303A54022EA0502A3400028C5
:1041F00043EA0203ACBF00F16040084A4FEA0313F0
:10420000B8BF00F00F00DBB2AABF00F56140135445
:1042100080F8003330BD00BF00ED00E014ED00E099
:10422000002807DB4109044A00F01F0001238340F6
:1042300042F82130704700BF00E100E010B50446AD
:1042400050B1437903F0FF0213B90271FDF756FB39
:1042500001236371002010BD0120FCE710B5044666
:1042600030B390F8393003F0FF021BB980F83820E2
:10427000FDF75CFB22686168022384F8393013681B
:1042800023F440330B431360536BA16823F00703FF
:104290000B435363136CE16823F47F5323F03F0314
:1042A0000B43136400200123E06384F8393010BD10
:1042B0000120FCE770477047036870B55E681D68B1
:1042C000F207044614D5E90512D51A6822F4807263
:1042D0001A60C26B42F00102C26301229A60042399
:1042E00080F83930002380F83830436903B19847AB
:1042F000B20616D5AB0414D523681A6822F400520E
:104300001A6020229A60E36B43F00203E363042304
:1043100084F83930002384F8383063690BB12046C3
:104320009847300716D5290514D523681A6822F452
:1043300000621A6008229A60E36B43F00403E363AF
:10434000042384F83930002384F8383063690BB1D2
:104350002046984772070BD56B0509D523681A6864
:1043600022F480621A6004229A602046FFF7A2FFBE
:10437000B00714D5A90512D523681A6822F4007273
:104380001A6002229A60E36BE363012384F83930F8
:10439000002384F8383023690BB120469847F20691
:1043A00013D5EB0411D523681A6822F480521A60E1
:1043B00010229A60E36BE363012384F83930002311
:1043C00084F838302046FFF776FF70BDF0B590F8DE
:1043D0003830012B4FF002032BD0012280F8393006
:1043E00080F8382000EB0113D3E907425D6A184FCB
:1043F00044EA0242093C012C9CBF05F07F431A436A
:104400004FEA0116036888BF42EA056299B9596A02
:1044100039400A435A62012C82699A6103D8426A80
:1044200022F07F429A62012380F83930002380F81D
:1044300038301846F0BDD96939400A43DA6182192B
:10444000012C92691A619CBF25F07F451D62EAE745
:10445000F0FFFC002DE9F74FDFF8C0916D4A002313
:104460000D6801249C4004EA050CAC4340F0B9807F
:104470004D6805F003044FEA43080326671E06FA59
:1044800008F6012F6FEA060634D8876807EA060E99
:10449000CF6807FA08F747EA0E078760476827EAF8
:1044A0000C0EC5F300179F4047EA0E074760C76828
:1044B00007EA060E8F6807FA08F747EA0E07022C8C
:1044C000C76019D14FEAD30A00EB8A0A03F0070B41
:1044D000DAF820704FEA8B0B4FF00F0E0EFA0BFE3E
:1044E00027EA0E0E0F6907FA0BF747EA0E07CAF81C
:1044F000207001E0032CDAD1076804FA08F4374091
:104500003C4315F4403F04606BD04FF0000ACDF8F7
:1045100004A0D9F84460404C46F48046C9F8446091
:10452000D9F8446006F480460196019E23F0030604
:1045300006F1804606F59C3603F0030ED6F8088097
:104540004FEA8E0E0F2707FA0EF7A04228EA070758
:104550004ED004F58064A0424CD004F58064A042A3
:104560004AD004F58064A04248D004F58064A0429B
:1045700046D004F58064A04244D004F58064A04293
:1045800042D004F58064A04240D004F58064A0428B
:104590003ED004F58064A0420CBF09240A2404FA2A
:1045A0000EF43C43B46094686FEA0C06EF0254BF0B
:1045B00034404CEA04049460D468AF0254BF3440E1
:1045C0004CEA0404D4605468AF0354BF34404CEA4E
:1045D000040454601468ED0354BF34404CEA0404EE
:1045E00014600133102B7FF43BAF03B0BDE8F08FB4
:1045F0005446D4E70124D2E70224D0E70324CEE7CF
:104600000424CCE70524CAE70624C8E70724C6E744
:104610000824C4E7003C014000000240003802408A
:104620000369194214BF0120002070470AB181615B
:1046300070470904FBE7436901EA030221EA030129
:1046400041EA02418161704701684B6913F480635C
:104650004FF0000210D06FF480634B61202302639F
:1046600080F83D3080F83E20036C80F83C2043F019
:104670000403036401207047184670472DE9F8468B
:1046800006460F4691461D464FEA114A3368BAF175
:10469000010F0CBF5C699C6927EA0404A4B2B4FA58
:1046A00084F46409A14501D0002017E06A1CEED013
:1046B000FFF758FD089BC01AA84201D8002DE5D18C
:1046C00000232022336386F83D2086F83E30326C8A
:1046D00086F83C3042F0200232640120BDE8F886C2
:1046E0002DE9F04104460F4616469846256868694C
:1046F00027EA000080B2B8B16B695A0516D52B685D
:1047000043F400732B606FF480636B6120220023FD
:10471000236384F83D2084F83E30226C42F004028A
:10472000226484F83C300120BDE8F081731CDED0A7
:10473000FFF718FDA0EB0800B04201D8002ED5D13C
:1047400000232022236384F83D2084F83E30226C2D
:1047500042F02002E4E770B504460D461646216893
:104760004B6913F0400301D0002010E04A69D206E3
:104770000ED56FF010024A612022236384F83D2099
:1047800084F83E30226C226484F83C30012070BDF5
:10479000FFF7E8FC801BA84201D8002DDFD10023E1
:1047A0002022236384F83D2084F83E30226C42F0BE
:1047B0002002E8E770B504460D46164623685B699B
:1047C0001B0601D5002070BD2046FFF73DFFA8B9AC
:1047D0006A1CF3D0FFF7C6FC801BA84201D8002D4D
:1047E000ECD100232022236384F83D2084F83E305E
:1047F000226C84F83C3042F0200222640120E2E77F
:104800002DE9F0431546026885B0DDE90C7899463C
:10481000136843F4807313600E463B46CDF8008066
:1048200000224FF001110446FFF728FF236838B13A
:104830001B68DB0502D54FF40073236403200AE0F4
:1048400006F0FE061E61194943463A462046FFF728
:1048500047FF18B1012005B0BDE8F083236803903D
:104860005A6903929B690393424639462046039B4B
:10487000FFF7A0FF40B1236C042B01BF226813682F
:1048800043F400731360E5E7B9F1010F236802D127
:10489000EDB21D61DFE72A0A1A6139464246204619
:1048A000FFF788FF0028E6D12368F1E70200010046
:1048B0002DE9FF479A46036815461A6842F480625C
:1048C0001A601A68DDE90C7842F480721A600E46AC
:1048D0003B46CDF8008000224FF001110446FFF75F
:1048E000CDFE236848B11B68DB0502D54FF4007389
:1048F0002364032004B0BDE8F0875FFA86F906F070
:10490000FE061E612A4943463A462046FFF7E8FE66
:1049100008B10120EEE7236803905A6903929B696E
:104920000393424639462046039BFFF743FF40B1BD
:10493000236C042B01BF2268136843F400731360D7
:10494000E7E7BAF1010F23681AD1EDB242461D61C3
:1049500039462046FFF72EFF02460028E8D121689D
:104960000B6843F480730B602046CDF800803B4613
:104970004FF00111FFF782FE226860B11368B3E7C0
:104980002A0A1A61394642462046FFF713FF0028DB
:10499000CED12368D9E749F00103136104494346A6
:1049A0003A462046FFF79CFE003818BF0120A1E7D9
:1049B0000200010070B504460D46164623685B6987
:1049C0005B0701D5002070BD2046FFF73DFEA8B96A
:1049D0006A1CF3D0FFF7C6FB801BA84201D8002D4C
:1049E000ECD100232022236384F83D2084F83E305C
:1049F000226C84F83C3042F0200222640120E2E77D
:104A000070B5044608B9012070BD90F83D3003F040
:104A1000FF021BB980F83C20FCF7AAFF242384F88E
:104A20003D3023681A6822F001021A601A6842F4C5
:104A300000421A601A6822F400421A6000F06AFE0E
:104A40003F4B65689D4294BF3E4B3F4B98428CBFA5
:104A500000230123002BD6D12268394E51683B4BED
:104A6000B0FBF3F321F03F011943B542516088BF19
:104A70004FF49676116A88BF734321F03F0184BFDB
:104A80004FF47A76B3FBF6F301330B431362D1692B
:104A9000431E2B4821F44F41854221F0FF0132D8BB
:104AA0006D0040F6FC70B3FBF5F30133034242D0D6
:104AB000C3F30B031943D161D4E9073011680343F1
:104AC00021F0C0010B4313609168D4E9030321F482
:104AD0000341034321F0FF010B439360D4E9053008
:104AE000D168034321F0FF010B43D360136843F007
:104AF0000103136000202023206484F83D302063EC
:104B000084F83E0080E7A06850B905EB4505B3FB8B
:104B1000F5F30133C3F30B037BB143F40043C9E75F
:104B200019206843B3FBF0F30133C3F30B0323B144
:104B300043F44043BEE70423BCE70123BAE700BFC8
:104B4000A08601007F841E00FF083D0040420F0048
:104B50002DE9F743044699460C9E0F469046FFF711
:104B600001FB94F83D30202B054603D0022003B012
:104B7000BDE8F08300903C49192301222046FFF74D
:104B80007DFD0028F2D194F83C30012BEED0206856
:104B9000012384F83C300368D9075EBF036843F003
:104BA00001030360036823F400630360212384F896
:104BB0003D30402384F83E30002323640A9B636227
:104BC000BDF82C306385638D2385284BE362CDE9E6
:104BD00000654B46424639462046FFF711FE002845
:104BE0002AD00120C3E7FFF7E5FD40B1236C042B79
:104BF00001BF2268136843F400731360F1E7636A2E
:104C000027681A4612F8011B39616262628D218D94
:104C1000013A92B262857A69481E80B252072085B5
:104C20000AD548B15A783A6102336362638D013B19
:104C300002399BB221856385238D2A463146204661
:104C4000002BD0D1FFF7B6FE0028CFD12268136821
:104C500043F400731360202384F83D3084F83C0053
:104C600084F83E0083E700BF020010000000FFFF51
:104C70002DE9F043044687B09946109F0D469046B3
:104C8000FFF770FA94F83D30202B064604D0022539
:104C9000284607B0BDE8F083009076491923012229
:104CA0002046FFF7EBFC0028F1D194F83C30012BB3
:104CB000EDD02068012384F83C300368DB075EBF39
:104CC000036843F001030360036823F40063036097
:104CD000222384F83D30402384F83E3000232364AF
:104CE0000E9B6362BDF83C306385638D2385624B08
:104CF000E3622946CDE900764B4642462046FFF75F
:104D0000D7FD054608B10125C2E7228D2368B2B957
:104D100002905A6902929A690292029A1A6842F4BF
:104D200000721A60DFF85481238D002B2CD12022D1
:104D300084F83D2084F83C3084F83E30A8E7012A0E
:104D40000AD11A6822F480621A6003905A690392A9
:104D50009A690392039AE1E7022A0ED11A6822F4B3
:104D600080621A601A6842F400621A6004905A69FC
:104D700004929B690493049BD4E705905A690592B9
:104D80009B690593059BCDE7032B56D8012B15D1C5
:104D9000324639462046FFF7DEFC0028B3D12368AF
:104DA0001A69636A1A70636A01336362238D013B77
:104DB0002385638D013B9BB26385B5E7022B00968B
:104DC0003B464FF000024146204619D1FFF756FC02
:104DD000002898D123681A6842F400721A601A6990
:104DE000636A1A70626A531C6362238D013B2385D8
:104DF000638D013B9BB2638523681B695370D2E7C7
:104E0000FFF73CFC024600287FF47DAF2368196859
:104E100021F4806119601969636A1970636A0096E8
:104E200001336362238D013B2385638D013B9BB27C
:104E3000638541463B462046C8E732463946204610
:104E4000FFF789FC00287FF45EAF23681A69636A64
:104E50001A70626A531C6362238D013B2385638D44
:104E6000013B9BB263852368596949077FF55CAFB5
:104E7000C3E700BF020010000000FFFF04000100B4
:104E800010B590F83D30202BDCB216D1242380F8E9
:104E90003D3003681A6822F001021A605A6A22F053
:104EA00010025A625A6A114359621A6842F00102AA
:104EB0001A6080F83D40002010BD0220FCE730B5AC
:104EC00090F83D30202BDCB216D10268242380F804
:104ED0003D30136823F001031360556A4FF6F073F9
:104EE0002B40194389B25162136843F001031360E8
:104EF00080F83D40002030BD0220FCE70068D1F87A
:104F000000C0D201843283182DE9F043C6685D6881
:104F10004C68D1F8189005F470455D60C5680CF1D7
:104F20000107C5F30B45C6F30B463D44264445EA4D
:104F300006455D60C668CD68C6F30A062E449D68C6
:104F400005F470459D60C7688D68C7F30A07013591
:104F50003D4445EA06459D601D690E6925F007053B
:104F60001D614FF0000E1E619D6991F8327091F83D
:104F70003180C3F818E091F8305045EA096545EAF8
:104F8000082545EA07459D615D6925F0FF055D61DE
:104F90004D695D61DD6925F4E06525F00705DD619A
:104FA000D1E907573D43DD619D6A4D6AC3F828E0AA
:104FB0009D62FEB1013E062E1ED8104DAD5DDE6A2B
:104FC00006F0E026DE62A4EB0C048E6AC96A6C432C
:104FD0006E43033444EA0644DC621C6B24F4FF6431
:104FE00024F007041C631963835843F001038350C2
:104FF000BDE8F0830425E2E70125E0E710EF0108B2
:1050000038B50446002863D090F8A13003F0FF02C1
:105010001BB980F8A020FCF707FD022384F8A1301B
:1050200023689A6922F070429A61D4E90120024310
:10503000E06899690243206902430A439A619A68C9
:10504000244960690A409A609A6842EA0042A0696D
:1050500002439A60DA68E0690A40DA60DA6842EA94
:105060000042206A0243DA601A69606A0A401A61E3
:105070001A6942EA0042A06A02431A615A690A4068
:105080005A615A69E16A42EA0142216B0A435A6154
:10509000DA6A94F8350094F8361002F07F42DA624A
:1050A000DD6A94F834202A4342EA002242EA0142AF
:1050B000DA625A6B42F006025A639A6942F00102C0
:1050C0009A6100200123C4F8A40084F8A13038BDFF
:1050D0000120FCE700F800F070477047036870B5E6
:1050E0009E6B5D6B7207044614D5690712D55A6B27
:1050F00022F004025A630422DA63D0F8A43043F0A9
:105100000103C0F8A430002380F8A12080F8A0306B
:10511000FFF7E2FFB20716D5AB0714D523685A6B29
:1051200022F002025A630222DA63D4F8A430134355
:10513000C4F8A430042384F8A130002384F8A030FC
:105140002046FFF7C9FFF00710D5E9070ED5236801
:105150005A6B22F001025A630122DA63002384F8B9
:10516000A12084F8A0302046FCF77EF8320711D544
:105170002B070FD523685A6B22F008025A630822C6
:10518000DA63012384F8A130002384F8A03020469C
:10519000FFF7A3FF70BD2DE9F04190F8A030012B7F
:1051A00006460F4694464FF002001FD04FF001080C
:1051B00086F8A08086F8A10034240D4604FB026422
:1051C0000FCD38340FC40FCD0FC40FCD0FC42B68D3
:1051D0002360304662463946FFF790FE3368002070
:1051E000C3F8248086F8A18086F8A000BDE8F0818D
:1051F00090F8A030012B4FF0020312D080F8A130BC
:1052000003685A6B22F001025A63074A11645A6B11
:1052100042F001025A63012380F8A130002380F894
:10522000A0301846704700BF006801402DE9F341E7
:10523000044640B30368DD0710D4236898075BD4A5
:1052400023681A0700F19D8023685B0700F1BD8089
:10525000A069002840F0248100202CE08D4B9A6842
:1052600002F00C02042A07D09A6802F00C02082A05
:105270000BD15B68590208D5864B1B689A03DCD5B5
:105280006368002BD9D1012015E06368814DB3F527
:10529000803F13D12B6843F480332B60FEF762FF0D
:1052A0007C4E054633689B03C7D4FEF75BFF401B6B
:1052B0006428F7D9032002B0BDE8F081B3F5A02F30
:1052C00004D12B6843F480232B60E3E72A6822F49F
:1052D00080322A602A6822F480222A60002BDDD1E5
:1052E000FEF740FF06462B689F03A6D5FEF73AFF60
:1052F000801B6428F7D9DDE7664B9A6812F00C0F23
:1053000007D09A6802F00C02082A11D15B685E028D
:105310000ED4604A13689D0702D5E368012BB2D111
:105320001368216923F0F80343EAC103136087E798
:10533000E268594BB2B101221A60FEF713FF554DD6
:1053400006462B68980707D52B68226923F0F803D7
:1053500043EAC2032B6073E7FEF704FF801B0228B9
:10536000EFD9A7E71A60FEF7FDFE4A4E05463368FF
:1053700099077FF565AFFEF7F5FE401B0228F6D9C9
:1053800098E76269444B82B10122C3F8802EFEF790
:10539000E9FE404E0546736F9F073FF555AFFEF798
:1053A000E1FE401B0228F6D984E7C3F8802EFEF701
:1053B000D9FE384E0546736F98077FF545AFFEF767
:1053C000D1FE401B0228F6D974E7324B1A6C12F05A
:1053D000805228D101921A6C42F080521A641B6CE0
:1053E00003F080530193019B01272C4D2B68D905B5
:1053F0001BD5A368274D012B27D12B6F43F0010349
:105400002B67FEF7AFFE234E054641F28838336F17
:105410009B0739D5002F3FF41BAF1E4A136C23F0B6
:105420008053136414E70027DFE72B6843F480738D
:105430002B60FEF797FE06462B68DA05D9D4FEF7F7
:1054400091FE801B0228F7D934E7052B04D12B6F7E
:1054500043F004032B67D0E72A6F22F001022A678A
:105460002A6F22F004022A67002BCAD1FEF77AFEC7
:1054700041F2883806462B6F9807CBD5FEF772FEAF
:10548000801B4045F7D915E7FEF76CFE401B4045F1
:10549000BDD90FE7003802400000474200700040CD
:1054A000364DAB6803F00C03082B3DD0344B002283
:1054B00002281A662BD1FEF755FE06462B68990185
:1054C0001FD4D4E907321343626A43EA8213E26AC3
:1054D00043EA0263A26A5208013A43EA02436B605C
:1054E000274B264D01221A66FEF73CFE04462B6828
:1054F0009A013FF5B1AEFEF735FE001B0228F6D942
:10550000D8E6FEF72FFE801B0228D7D9D2E6FEF799
:1055100029FE04462B689B017FF59EAEFEF722FE16
:10552000001B0228F6D9C5E601283FF4C4AE6B681B
:10553000E26903F4800191427FF4A5AE216A03F091
:105540003F028A427FF49FAE616A47F6C0721A40FA
:10555000B2EB811F7FF497AEA26A520803F4403188
:10556000013AB1EB024F7FF48EAEE26A03F0706352
:10557000B3EB026F3FF470AE85E600BF0038024027
:1055800000004742134908B58B6803F00C03042B55
:105590001CD0082B1CD14A684B68496813F480035F
:1055A00014BF0D480D48C1F3881118BF002302F045
:1055B0003F02A1FB0001FAF76BFE064B5B68C3F3E9
:1055C000014301335B00B0FBF3F008BD0248FCE788
:1055D0000248FAE70038024000127A000024F40082
:1055E0002DE9F0410D46044610B90120BDE8F081D7
:1055F000434B1A6802F00F028A4228D321688F07B2
:105600002DD4C80740D43E4B1A6802F00F02AA42BC
:1056100065D8226851076BD4130707D5394A216929
:10562000936823F4604343EAC1039360FFF7AAFF42
:10563000344B354A9B68C3F30313D35CD840334BD8
:105640001860334B1868FCF76DFB0020CEE7CAB238
:105650001A701B6803F00F038B42C6D1CEE7294BAB
:1056600011F0040F1EBF9A6842F4E0529A600E07D0
:1056700042BF9A6842F460429A609A68A06822F039
:10568000F00202439A60BCE762681E4B012A1CD1FB
:105690001B6813F4003FA8D01A4EB36823F003032D
:1056A0001343B360FEF75EFD41F288380746B368E6
:1056B000626803F00C03B3EB820FA4D0FEF752FD37
:1056C000C01B4045F3D9032090E7911E01291B68B8
:1056D00002D813F0007FDEE713F0020FDBE7EAB237
:1056E0001A701B6803F00F03AB427FF47EAF90E7A4
:1056F0000449E0688B6823F4E05303438B608BE735
:10570000003C024000380240F8EE0108740000201E
:105710007C000020044B054A9B68C3F38223D35CC2
:10572000034A1068D84070470038024008EF01086B
:10573000740000200F2303600B4B9A6802F00302F1
:1057400042609A6802F0F00282609A6802F4E052C5
:10575000C2609B68DB0803F4E0530361034B1B68E2
:1057600003F00F030B60704700380240003C02401A
:10577000036813F0430FF7B5044640F08D802368AB
:1057800013F00C0F45D08B4B8B4D00221A67FEF7A0
:10579000E9FC06462B689F0000F1D08021684E0787
:1057A00015D5D4E90403D5F888201B0602F0E042A1
:1057B00043EA80131343C5F88830D5F88C30226A49
:1057C00023F4F853013A43EA0223C5F88C300D075D
:1057D00014D5794AA369D2F8881020691B0701F013
:1057E000706143EA80130B43C2F88830D2F88C30E2
:1057F000616A23F440330B43C2F88C306D4B6E4E1C
:1058000001221A67FEF7AEFC05463368980040F1A6
:105810009C8023689B0634D500230193664B674D1B
:105820001A6C42F080521A641B6C03F0805301938F
:10583000019B2B6843F480732B60FEF793FC0646B4
:105840002B68D90540F188805B4DA26A2B6F13F459
:10585000407340F08880A36A03F44072B2F5407F41
:10586000554A40F0A380916823F0704021F4F8116C
:1058700020F4407001439160116FC3F30B030B439D
:105880001367206810F010001FBF4D4B94F82C20B8
:10589000C3F8E02100204FE0464B474E00229A66B5
:1058A000FEF760FC054633681F013FD42168CD0731
:1058B00041BFD4E901231B0743EA8213C6F88430B1
:1058C000880715D53C4AE368D2F8840065681B0652
:1058D00000F0E04043EA85130343C2F88430D2F875
:1058E0008C00E36920F01F00013B0343C2F88C30B9
:1058F00049060AD5E36862681B0643EA8213A26878
:1059000043EA02732C4AC2F884302A4B2A4E012201
:105910009A66FEF727FC054633681A013FF52FAF5C
:10592000FEF720FC401B0228F6D904E0FEF71AFC23
:10593000401B0228B7D9032003B0F0BDFEF712FCCC
:10594000801B02287FF626AFF5E7FEF70BFC401B15
:1059500002287FF65AAFEEE7FEF704FC801B022810
:105960007FF66EAFE7E702F4407293423FF473AF05
:105970002B6F104A0121C2F8401E23F4407300210E
:10598000C2F8401E2B672B6FDA077FF564AFFEF776
:10599000E9FB41F2883706462B6F9B073FF55BAF6B
:1059A000FEF7E0FB801BB842F6D9C4E7916821F40A
:1059B000F81160E7000047420038024000700040E4
:1059C0000010474238B50D460446C8B190F82C3057
:1059D00003F0FF021BB980F82D20FCF737F90223F2
:1059E00084F82C30211D206800F0F8FC62682068E3
:1059F000294600F02BFD012384F82C30002038BD0F
:105A00000120FCE770B590F82C30022B05460E46BD
:105A1000D8B212D000F0FB04012C0FD1022385F87C
:105A20002C30286800F048FD3368022B06BF0523A0
:105A300085F82C3085F82C40002070BD0120FCE753
:105A400038B590F82C30022B0446D8B20DD094F81B
:105A50002C30012BDDB209D10223206884F82C30D0
:105A600000F050FD84F82C50002038BD0120FCE7E8
:105A70002DE9F3411C4616460F460546FEF772FB1C
:105A80003444241AFEF76EFB234B1B68C3F3CB335D
:105A9000804663432A680193936837EA030301D081
:105AA00000202EE0731CF7D0FEF75CFBA0EB080093
:105AB000A04229D32B685A6822F0E0025A606A6833
:105AC000B2F5827F0AD1AA68B2F5004F02D0B2F5D2
:105AD000806F03D11A6822F040021A60AA6AB2F5F8
