:020000040800F2
:1000000000800120590F0008750E00087B0E0008C3
:10001000810E0008870E00088D0E00080000000009
:10002000000000000000000000000000930E000827
:10003000A10E000800000000AF0E0008BD0E000871
:10004000A90F0008A90F0008A90F0008A90F0008B0
:10005000A90F0008A90F0008A90F0008A90F0008A0
:10006000A90F0008A90F0008A90F0008A90F000890
:10007000A90F0008A90F0008A90F0008A90F000880
:10008000A90F0008A90F0008A90F00080000000030
:10009000000000000000000000000000A90F0008A0
:1000A000A90F0008A90F0008A90F0008A90F000850
:1000B000A90F0008A90F0008A90F0008A90F000840
:1000C000A90F0008A90F0008A90F0008A90F000830
:1000D000A90F0008A90F0008A90F000800000000E0
:1000E000A90F0008A90F0008A90F000800000000D0
:1000F000000000000000000000000000A90F000840
:1001000000000000A90F0008A90F0008A90F0008AF
:1001100000000000000000000000000000000000DF
:10012000A90F0008A90F0008A90F0008A90F0008CF
:10013000A90F0008000000000000000000000000FF
:10014000000000000000000000000000A90F0008EF
:10015000A90F0008A90F0008A90F0008A90F00089F
:10016000A90F0008A90F000800000000000000000F
:10017000000000000000000000000000000000007F
:1001800000000000A90F00080000000000000000AF
:04019000A90F0008AB
:1001A00010B5054C237833B9044B13B10448AFF3B1
:1001B00000800123237010BD5C00002000000000BF
:1001C0007027000808B5034B1BB103490348AFF380
:1001D000008008BD000000006000002070270008BB
:1001E00001F0FF01102A2BDB10F0070F08D010F8E8
:1001F000013B013A8B422DD010F0070F42B3F6D1EC
:10020000F0B441EA012141EA014122F007047FF004
:1002100000070023F0E80256083C85EA010586EA5B
:10022000010685FA47F5A3FA87F586FA47F6A5FA97
:1002300087F68EB9EED1F0BC01F0FF0102F00702A3
:1002400032B110F8013B013A83EA010313B1F8D14E
:100250000020704701387047002D06BF354603382F
:10026000073815F0010F07D1013015F4807F02BF68
:10027000013015F4C03F0130F0BC0138704700BFB9
:1002800053B94AB9002908BF00281CBF4FF0FF31FD
:100290004FF0FF3000F070B9ADF1080C6DE904CEFD
:1002A00000F006F8DDF804E0DDE9022304B0704751
:1002B0002DE9F047089E0D4604460F46002B4AD113
:1002C0008A42944665D9B2FA82F343B102FA03FC3A
:1002D000C3F120029F4020FA02F217439C404FEAEC
:1002E0001C4E1FFA8CF5B7FBFEF1220C0EFB1177AA
:1002F00042EA074201FB05F090420AD91CEB0202D8
:1003000001F1FF3780F01C81904240F219810239DF
:100310006244121AA4B2B2FBFEF00EFB102244EAB1
:10032000024400FB05F5A5420AD91CEB040400F1C8
:10033000FF3280F00781A54240F204816444023814
:1003400040EA0140641B00211EB1DC400023C6E9E5
:100350000043BDE8F0878B4208D9002E00F0ED8005
:100360000021C6E900050846BDE8F087B3FA83F12D
:10037000002949D1AB4202D3824200F2F880841AAC
:1003800065EB030201201746002EE2D0C6E90047C4
:10039000DFE702B9FFDEB2FA82F3002B40F0908073
:1003A0008A1A4FEA1C471FFA8CFE0121B2FBF7F5AF
:1003B00007FB1520220C42EA00420EFB05F090429A
:1003C00008D91CEB020205F1FF3802D2904200F27C
:1003D000CB804546121AA4B2B2FBF7F007FB1022FD
:1003E00044EA02440EFB00FEA64508D91CEB0404B7
:1003F00000F1FF3202D2A64500F2BB801046A4EB0A
:100400000E0440EA05409FE7C1F120078B4022FA25
:1004100007FC4CEA030C05FA01F420FA07F3FD404F
:100420004FEA1C492343B5FBF9F81FFA8CFE09FB80
:1004300018551C0C44EA054408FB0EF5A54202FAC7
:1004400001F200FA01F00BD91CEB040408F1FF3AA9
:1004500080F08880A54240F28580A8F102086444BB
:10046000641B9DB2B4FBF9F309FB134445EA044451
:1004700003FB0EFEA64508D91CEB040403F1FF356F
:100480006CD2A6456AD9023B644443EA0843A3FB05
:100490000295A4EB0E04AC42C846AE4656D353D0E8
:1004A00056B1B0EB080264EB0E0404FA07F7CA4039
:1004B000CC401743C6E9007418460021BDE8F08718
:1004C000C3F1200102FA03FC20FA01F225FA01F13E
:1004D0009D402A434FEA1C471FFA8CFEB1FBF7F000
:1004E00007FB1015110C41EA054100FB0EF58D428A
:1004F00004FA03F408D91CEB010100F1FF382FD2F4
:100500008D422DD902386144491B92B2B1FBF7F5F7
:1005100007FB151142EA014205FB0EF1914208D991
:100520001CEB020205F1FF3816D2914214D9023DAC
:100530006244521A45EA004138E73146304608E73E
:100540003946E6E61046FBE64845A9D2B9EB020873
:1005500065EB0C0E013BA3E74546EAE72B4694E723
:100560004046D1E7D0467BE7023D624432E7084689
:100570000AE76444023842E7704700BF80B582B0A2
:1005800000AF0346FB71002280210C4801F00EF8F9
:1005900001228021094801F009F8FB79184600F092
:1005A0000FF8022000F074FD00228021034800F0C3
:1005B000FDFF00BF0837BD4680BD00BF00080240F8
:1005C00080B582B000AF0346FB71FB7903F00103F5
:1005D000002B05D0012240211E4800F0E7FF04E077
:1005E000002240211B4800F0E1FFFB7903F00203E9
:1005F000002B05D001228021174800F0D7FF04E02E
:1006000000228021144800F0D1FFFB7903F004039D
:10061000002B05D0012240210F4800F0C7FF04E065
:10062000002240210C4800F0C1FFFB7903F00803D1
:10063000002B05D001222021074800F0B7FF04E07D
:1006400000222021044800F0B1FF00BF0837BD465A
:1006500080BD00BF000402400000024080B500AF32
:100660000320FFF78BFF032000F012FD0320FFF7AC
:1006700085FF0320FFF782FF0220FFF77FFF0220A4
:10068000FFF77CFF0820FFF779FF0020FFF776FFD8
:100690000820FFF773FF0020FFF770FF0120FFF72E
:1006A0006DFF0020FFF76AFF0D20FFF767FF00BF17
:1006B00080BD000080B584B000AF03460A46FB71E0
:1006C0001346BB7100224FF400711B4800F06EFF0F
:1006D000BB79032B2BD801A252F823F0ED060008BA
:1006E0000D0700082D0700082D070008FB79803B47
:1006F000FB73FB7980331B11BB73BB7B1846FFF781
:100700003DFFFB7B1846FFF739FF10E0FB79403BCC
:10071000FB73FB79C0331B11BB73BB7B1846FFF720
:100720002DFFFB7B1846FFF729FF00E000BF00BF4D
:100730001037BD4680BD00BF0000024080B584B0C8
:1007400000AF0346FB71FB791B09FB73FB79BB739D
:1007500001224FF40071074800F028FFFB7B184688
:10076000FFF70CFFBB7B1846FFF708FF00BF1037F1
:10077000BD4680BD0000024080B582B000AF786009
:1007800006E07B685A1C7A601B781846FFF7D6FF94
:100790007B681B78002BF4D100BF00BF0837BD4633
:1007A00080BD000090B585B000AF044608461146F4
:1007B0001A462346FB710346BB710B467B711346F9
:1007C0003B71FB79032B00F03281032B00F3BD81D9
:1007D000012B03D0022B00F08F80B6E10420FFF73D
:1007E000CDFE0020FFF7CAFE01224FF40071D94868
:1007F00000F0DCFEBB791B09FB73BB79BB73FB7B91
:100800001846FFF7BBFEBB7B1846FFF7B7FE7B79A8
:100810001B09FB737B79BB73FB7B1846FFF7AEFEAE
:10082000BB7B1846FFF7AAFE3B791B09FB733B799C
:10083000BB73FB7B1846FFF7A1FEBB7B1846FFF797
:100840009DFE97F820301B09FB7397F82030BB738F
:10085000FB7B1846FFF792FEBB7B1846FFF78EFE28
:1008600097F824301B09FB7397F82430BB73FB7B8C
:100870001846FFF783FEBB7B1846FFF77FFE97F80D
:1008800028301B09FB7397F82830BB73FB7B184695
:10089000FFF774FEBB7B1846FFF770FE97F82C300D
:1008A0001B09FB7397F82C30BB73FB7B1846FFF7D3
:1008B00065FEBB7B1846FFF761FE97F830301B09D9
:1008C000FB7397F83030BB73FB7B1846FFF756FE7F
:1008D000BB7B1846FFF752FE00224FF400719D4883
:1008E00000F064FE0020FFF749FE0120FFF746FEFE
:1008F000642000F0CDFB28E10420FFF73FFE082034
:10090000FFF73CFE01224FF40071924800F04EFECA
:10091000BB791B09FB73BB79BB73FB7B1846FFF7E5
:100920002DFEBB7B1846FFF729FE7B791B09FB7365
:100930007B79BB73FB7B1846FFF720FEBB7B184619
:10094000FFF71CFE7B791B09FB737B79BB73FB7B79
:100950001846FFF713FEBB7B1846FFF70FFE3B79E7
:100960001B09FB733B79BB73FB7B1846FFF706FE45
:10097000BB7B1846FFF702FE97F820301B09FB737C
:1009800097F82030BB73FB7B1846FFF7F7FDBB7B66
:100990001846FFF7F3FD97F824301B09FB7397F80F
:1009A0002430BB73FB7B1846FFF7E8FDBB7B184682
:1009B000FFF7E4FD97F828301B09FB7397F8283000
:1009C000BB73FB7B1846FFF7D9FDBB7B1846FFF7CF
:1009D000D5FD97F82C301B09FB7397F82C30BB73AF
:1009E000FB7B1846FFF7CAFDBB7B1846FFF7C6FD29
:1009F00097F830301B09FB7397F83030BB73FB7BE3
:100A00001846FFF7BBFDBB7B1846FFF7B7FD00227A
:100A10004FF400714F4800F0C9FD0020FFF7AEFD14
:100A20000120FFF7ABFD642000F032FB8DE00420D5
:100A3000FFF7A4FDFF20FFF7A1FD01224FF4007195
:100A4000444800F0B3FDBB791B09FB73BB79BB7352
:100A5000FB7B1846FFF792FDBB7B1846FFF78EFD28
:100A60007B791B09FB737B79BB73FB7B1846FFF714
:100A700085FDBB7B1846FFF781FD3B791B09FB73A6
:100A80003B79BB73FB7B1846FFF778FDBB7B1846B1
:100A9000FFF774FD97F820301B09FB7397F820309F
:100AA000BB73FB7B1846FFF769FDBB7B1846FFF75E
:100AB00065FD97F824301B09FB7397F82430BB734E
:100AC000FB7B1846FFF75AFDBB7B1846FFF756FD28
:100AD00097F828301B09FB7397F82830BB73FB7B12
:100AE0001846FFF74BFDBB7B1846FFF747FD97F80D
:100AF0002C301B09FB7397F82C30BB73FB7B18461B
:100B0000FFF73CFDBB7B1846FFF738FD97F8303008
:100B10001B09FB7397F83030BB73FB7B1846FFF75C
:100B20002DFDBB7B1846FFF729FD00224FF4007115
:100B3000084800F03BFD0020FFF720FD0120FFF7F3
:100B40001DFD642000F0A4FA00BF00BF1437BD46AD
:100B500090BD00BF0000024080B582B000AF0346E8
:100B6000FB7101224FF400710A4800F01FFD0020C4
:100B7000FFF704FDFB79013BDBB21846FFF7FEFCF3
:100B800000224FF40071034800F010FD00BF083749
:100B9000BD4680BD0000024080B588B006AF00F0C1
:100BA00005FA00F05DF800F0BBF8FFF757FD0023F1
:100BB000049300230393042302930E2301931F2322
:100BC00000931F231F220A210120FFF7EBFD0023C2
:100BD00004930F2303931F230293182301931823D5
:100BE00000931F230F2200210220FFF7DBFD0021CD
:100BF0000020FFF75FFD1748FFF7BEFD0220FFF75B
:100C0000ABFF01210020FFF755FD1348FFF7B4FDAE
:100C10000120FFF7A1FF0023FB710023FB7114E00B
:100C2000FA793B460D49184601F0FEF801210A20E9
:100C3000FFF740FD3B461846FFF79EFD4FF4FA7064
:100C400000F026FAFB790133FB71FB79FF2BE7D12A
:100C5000E3E700BF8827000898270008A0270008BE
:100C600080B594B000AF07F1200330220021184670
:100C700001F0FAF807F10C0300221A605A609A603A
:100C8000DA601A610023BB60234B1B6C224A43F0DD
:100C900080531364204B1B6C03F08053BB60BB6814
:100CA00000237B601D4B1B6823F440431B4A43F425
:100CB00000431360194B1B6803F440437B607B685F
:100CC00002233B620123FB6210233B630023BB63CF
:100CD00007F12003184600F083FC0346002B01D0E7
:100CE00000F09AF80F23FB6000233B6100237B6137
:100CF0000023BB610023FB6107F10C0300211846B0
:100D000000F0E6FE0346002B01D000F085F800BF9E
:100D10005037BD4680BD00BF003802400070004023
:100D200080B588B000AF07F10C0300221A605A604A
:100D30009A60DA601A610023BB60334B1B6B324A46
:100D400043F001031363304B1B6B03F00103BB60E3
:100D5000BB6800237B602C4B1B6B2B4A43F00403C6
:100D60001363294B1B6B03F004037B607B68002338
:100D70003B60254B1B6B244A43F002031363224B59
:100D80001B6B03F002033B603B6800224FF4387199
:100D90001E4800F00BFC002280211D4800F006FCDC
:100DA000002240211B4800F001FC4FF43873FB6027
:100DB00001233B6100237B610023BB6107F10C032E
:100DC0001946124800F06EFA8023FB6001233B6154
:100DD00000237B610023BB6107F10C0319460C481B
:100DE00000F060FA4023FB6001233B6100237B613C
:100DF0000023BB6107F10C031946064800F052FAC4
:100E000000BF2037BD4680BD0038024000000240D0
:100E1000000802400004024080B400AF72B600BF78
:100E2000FEE7000080B483B000AF00237B60104B6E
:100E30005B6C0F4A43F4804353640D4B5B6C03F4CB
:100E400080437B607B6800233B60094B1B6C084A36
:100E500043F080531364064B1B6C03F080533B60DC
:100E60003B6800BF0C37BD465DF8047B704700BF90
:100E70000038024080B400AFFEE780B400AFFEE768
:100E800080B400AFFEE780B400AFFEE780B400AFEF
:100E9000FEE780B400AF00BFBD465DF8047B70473D
:100EA00080B400AF00BFBD465DF8047B704780B4DE
:100EB00000AF00BFBD465DF8047B704780B500AF52
:100EC00000F0C6F800BF80BD80B586B000AF786086
:100ED000144A154BD31A7B617B693B61134B1B682A
:100EE000002B02D1114B124A1A60104B1A687B6812
:100EF00013443A699A4207D200F0BEFF03460C221F
:100F00001A604FF0FF3309E0084B1B68FB60074B8A
:100F10001A687B681344054A1360FB681846183743
:100F2000BD4680BD00800120000400007800002044
:100F3000C801002080B400AF064BD3F88830054AC2
:100F400043F47003C2F8883000BFBD465DF8047BEF
:100F5000704700BF00ED00E0DFF834D00D480E49C7
:100F60000E4A002302E0D458C4500433C4188C4203
:100F7000F9D30B4A0B4C002301E013600432A24268
:100F8000FBD3FFF7D7FF00F07DFFFFF705FE7047AB
:100F900000800120000000205C000020FC270008E9
:100FA0005C000020C8010020FEE7000080B500AF13
:100FB0000E4B1B680D4A43F4007313600B4B1B6808
:100FC0000A4A43F480631360084B1B68074A43F4E2
:100FD00080731360032000F031F90F2000F008F84F
:100FE000FFF720FF0023184680BD00BF003C0240F1
:100FF00080B582B000AF7860124B1A68124B1B7834
:1010000019464FF47A73B3FBF1F3B2FBF3F31846CE
:1010100000F03BF90346002B01D001230EE07B6872
:101020000F2B0AD8002279684FF0FF3000F011F939
:10103000064A7B681360002300E001231846083746
:10104000BD4680BD000000200800002004000020F4
:1010500080B400AF064B1B781A46064B1B6813443E
:10106000044A136000BFBD465DF8047B704700BFB3
:10107000080000207C00002080B400AF034B1B68F8
:101080001846BD465DF8047B704700BF7C00002019
:1010900080B584B000AF7860FFF7EEFFB8607B6882
:1010A000FB60FB68B3F1FF3F05D00A4B1B781A4683
:1010B000FB681344FB6000BFFFF7DEFF0246BB681E
:1010C000D31AFA689A42F7D800BF00BF1037BD465E
:1010D00080BD00BF0800002080B485B000AF7860FC
:1010E0007B6803F00703FB600C4BDB68BB60BA68EE
:1010F0004FF6FF031340BB60FB681A02BB68134343
:1011000043F0BF6343F40033BB60044ABB68D36061
:1011100000BF1437BD465DF8047B704700ED00E06A
:1011200080B400AF044BDB681B0A03F007031846CA
:10113000BD465DF8047B704700ED00E080B483B0ED
:1011400000AF03463960FB7197F90730002B0ADBCB
:101150003B68DAB20C4997F907301201D2B20B445E
:1011600083F800230AE03B68DAB20849FB7903F010
:101170000F03043B1201D2B20B441A7600BF0C37A6
:10118000BD465DF8047B704700E100E000ED00E043
:1011900080B489B000AFF860B9607A60FB6803F092
:1011A0000703FB61FB69C3F10703042B28BF04237A
:1011B000BB61FB690433062B02D9FB69033B00E0EA
:1011C00000237B614FF0FF32BB6902FA03F3DA437D
:1011D000BB681A407B699A404FF0FF317B6901FA86
:1011E00003F3D9437B680B40134318462437BD46AD
:1011F0005DF8047B7047000080B582B000AF786076
:101200007B68013BB3F1807F01D301230FE00A4AE1
:101210007B68013B53600F214FF0FF30FFF78EFFDB
:10122000054B00229A60044B07221A6000231846DF
:101230000837BD4680BD00BF10E000E080B582B039
:1012400000AF78607868FFF747FF00BF0837BD46FA
:1012500080BD80B586B000AF0346B9607A60FB738D
:1012600000237B61FFF75CFF78617A68B968786971
:10127000FFF78EFF024697F90F3011461846FFF729
:101280005DFF00BF1837BD4680BD80B582B000AF9E
:1012900078607868FFF7B0FF034618460837BD4608
:1012A00080BD000080B489B000AF78603960002351
:1012B0007B6100233B610023BB610023FB6159E19B
:1012C0000122FB6902FA03F37B613B681B687A69C0
:1012D00013403B613A697B699A4240F048813B6820
:1012E0005B6803F00303012B05D03B685B6803F0E8
:1012F0000303022B30D17B689B68BB61FB695B00F9
:10130000032202FA03F3DB43BA691340BB613B6873
:10131000DA68FB695B0002FA03F3BA691343BB6145
:101320007B68BA699A607B685B68BB610122FB6974
:1013300002FA03F3DB43BA691340BB613B685B68A5
:101340001B0903F00102FB6902FA03F3BA691343B4
:10135000BB617B68BA695A603B685B6803F0030352
:10136000032B17D07B68DB68BB61FB695B00032242
:1013700002FA03F3DB43BA691340BB613B689A6826
:10138000FB695B0002FA03F3BA691343BB617B6834
:10139000BA69DA603B685B6803F00303022B23D170
:1013A000FB69DA087B68083253F82230BB61FB69BD
:1013B00003F007039B000F2202FA03F3DB43BA6931
:1013C0001340BB613B681A69FB6903F007039B008C
:1013D00002FA03F3BA691343BB61FB69DA087B685D
:1013E0000832B96943F822107B681B68BB61FB694E
:1013F0005B00032202FA03F3DB43BA691340BB61CB
:101400003B685B6803F00302FB695B0002FA03F3CD
:10141000BA691343BB617B68BA691A603B685B6851
:1014200003F44033002B00F0A2800023FB60574BF5
:101430005B6C564A43F480435364544B5B6C03F437
:101440008043FB60FB68524AFB699B08023352F8F9
:101450002330BB61FB6903F003039B000F2202FAF8
:1014600003F3DB43BA691340BB617B68494A93428B
:1014700019D07B68484A934213D07B68474A93420D
:101480000DD07B68464A934207D07B68454A934219
:1014900001D1042308E0072306E0032304E002232C
:1014A00002E0012300E00023FA6902F00302920047
:1014B0009340BA691343BB613549FB699B0802330A
:1014C000BA6941F82320384B9B68BB613B69DB4319
:1014D000BA691340BB613B685B6803F48013002B5F
:1014E00003D0BA693B691343BB612F4ABB69936060
:1014F0002D4BDB68BB613B69DB43BA691340BB61C1
:101500003B685B6803F40013002B03D0BA693B69A6
:101510001343BB61244ABB69D360234B5B68BB6147
:101520003B69DB43BA691340BB613B685B6803F40A
:101530000033002B03D0BA693B691343BB611A4ADD
:10154000BB695360184B1B68BB613B69DB43BA69DD
:101550001340BB613B685B6803F48033002B03D00E
:10156000BA693B691343BB610F4ABB691360FB69EE
:101570000133FB61FB690F2B7FF6A2AE00BF00BFFA
:101580002437BD465DF8047B704700BF0038024039
:101590000038014000000240000402400008024000
:1015A000000C024000100240003C014080B483B0B7
:1015B00000AF78600B467B8013467B707B78002BF6
:1015C00003D07A887B689A6103E07B881A047B6881
:1015D0009A6100BF0C37BD465DF8047B7047000080
:1015E00080B586B000AF78607B68002B01D1012305
:1015F00067E27B681B6803F00103002B75D0884B02
:101600009B6803F00C03042B0CD0854B9B6803F004
:101610000C03082B12D1824B5B6803F48003B3F5F3
:10162000800F0BD17E4B1B6803F40033002B5BD083
:101630007B685B68002B57D1012342E27B685B68C3
:10164000B3F5803F06D1764B1B68754A43F480336F
:1016500013601DE07B685B68B3F5A02F0CD1704B65
:101660001B686F4A43F4802313606D4B1B686C4A00
:1016700043F4803313600BE0694B1B68684A23F422
:1016800080331360664B1B68654A23F48023136024
:101690007B685B68002B13D0FFF7EEFC386108E035
:1016A000FFF7EAFC02463B69D31A642B01D90323F6
:1016B00007E25B4B1B6803F40033002BF0D014E00F
:1016C000FFF7DAFC386108E0FFF7D6FC02463B6919
:1016D000D31A642B01D90323F3E1514B1B6803F4A4
:1016E0000033002BF0D100E000BF7B681B6803F0E3
:1016F0000203002B63D04A4B9B6803F00C03002BC2
:101700000BD0474B9B6803F00C03082B1CD1444BB8
:101710005B6803F48003002B16D1414B1B6803F078
:101720000203002B05D07B68DB68012B01D001236D
:10173000C7E13B4B1B6823F0F8027B681B69DB00A9
:10174000374913430B603AE07B68DB68002B20D0FD
:10175000344B01221A60FFF78FFC386108E0FFF775
:101760008BFC02463B69D31A022B01D90323A8E163
:101770002B4B1B6803F00203002BF0D0284B1B6897
:1017800023F0F8027B681B69DB00254913430B60DB
:1017900015E0244B00221A60FFF76EFC386108E068
:1017A000FFF76AFC02463B69D31A022B01D90323D7
:1017B00087E11B4B1B6803F00203002BF0D17B6811
:1017C0001B6803F00803002B36D07B685B69002B95
:1017D00016D0154B01221A60FFF74EFC386108E065
:1017E000FFF74AFC02463B69D31A022B01D90323B7
:1017F00067E10B4B5B6F03F00203002BF0D01BE0A3
:10180000094B00221A60FFF737FC38610EE0FFF742
:1018100033FC02463B69D31A022B07D9032350E15C
:101820000038024000004742800E4742884B5B6F01
:1018300003F00203002BEAD17B681B6803F004036A
:10184000002B00F097800023FB75814B1B6C03F08D
:101850008053002B0FD10023BB607D4B1B6C7C4A57
:1018600043F0805313647A4B1B6C03F08053BB60CE
:10187000BB680123FB75774B1B6803F48073002B57
:1018800018D1744B1B68734A43F480731360FFF7DD
:10189000F3FB386108E0FFF7EFFB02463B69D31A20
:1018A000022B01D903230CE16A4B1B6803F48073FC
:1018B000002BF0D07B689B68012B06D1644B1B6F1B
:1018C000634A43F0010313671CE07B689B68052BA8
:1018D0000CD15F4B1B6F5E4A43F0040313675C4BF4
:1018E0001B6F5B4A43F0010313670BE0584B1B6F00
:1018F000574A23F001031367554B1B6F544A23F0DB
:10190000040313677B689B68002B15D0FFF7B4FBBB
:1019100038610AE0FFF7B0FB02463B69D31A41F297
:101920008832934201D90323CBE0494B1B6F03F06C
:101930000203002BEED014E0FFF79EFB38610AE0B3
:10194000FFF79AFB02463B69D31A41F28832934271
:1019500001D90323B5E03E4B1B6F03F00203002BBC
:10196000EED1FB7D012B05D1394B1B6C384A23F09E
:10197000805313647B689B69002B00F0A180344B7B
:101980009B6803F00C03082B5CD07B689B69022BDF
:1019900041D1314B00221A60FFF76EFB386108E03D
:1019A000FFF76AFB02463B69D31A022B01D90323D6
:1019B00087E0274B1B6803F00073002BF0D17B6896
:1019C000DA697B681B6A1A437B685B6A9B011A436E
:1019D0007B689B6A5B08013B1B041A437B68DB6ADC
:1019E0001B061B4913434B601B4B01221A60FFF778
:1019F00043FB386108E0FFF73FFB02463B69D31A1F
:101A0000022B01D903235CE0114B1B6803F0007328
:101A1000002BF0D054E0104B00221A60FFF72CFB93
:101A2000386108E0FFF728FB02463B69D31A022B16
:101A300001D9032345E0064B1B6803F00073002B1C
:101A4000F0D13DE07B689B69012B07D1012338E091
:101A50000038024000700040600047421B4B5B684A
:101A6000FB607B689B69012B28D0FB6803F4800234
:101A70007B68DB699A4221D1FB6803F03F027B68F7
:101A80001B6A9A421AD1FA6847F6C07313407A6803
:101A9000526A9201934211D1FB6803F440327B6891
:101AA0009B6A5B08013B1B049A4207D1FB6803F069
:101AB00070627B68DB6A1B069A4201D0012300E05A
:101AC000002318461837BD4680BD00BF00380240CD
:101AD00080B584B000AF786039607B68002B01D19D
:101AE0000123CCE0684B1B6803F007033A689A4275
:101AF0000CD9654B3A68D2B21A70634B1B6803F07D
:101B000007033A689A4201D00123B8E07B681B685A
:101B100003F00203002B20D07B681B6803F0040352
:101B2000002B05D0594B9B68584A43F4E05393600F
:101B30007B681B6803F00803002B05D0534B9B68A0
:101B4000524A43F460439360504B9B6823F0F00289
:101B50007B689B684D4913438B607B681B6803F06F
:101B60000103002B44D07B685B68012B07D1474BF6
:101B70001B6803F40033002B19D101237FE07B683D
:101B80005B68022B03D07B685B68032B07D13F4B5C
:101B90001B6803F00073002B09D101236FE03B4B5E
:101BA0001B6803F00203002B01D1012367E0374BD0
:101BB0009B6823F003027B685B68344913438B60A6
:101BC000FFF75AFAF8600AE0FFF756FA0246FB6898
:101BD000D31A41F28832934201D903234FE02B4BB1
:101BE0009B6803F00C027B685B689B009A42EBD118
:101BF000254B1B6803F007033A689A420CD2224B2C
:101C00003A68D2B21A70204B1B6803F007033A6897
:101C10009A4201D0012332E07B681B6803F0040381
:101C2000002B08D0194B9B6823F4E0527B68DB68DB
:101C3000164913438B607B681B6803F00803002B75
:101C400009D0124B9B6823F460427B681B69DB0060
:101C50000E4913438B6000F021F802460B4B9B6842
:101C60001B0903F00F030A49CB5C22FA03F3094A6C
:101C70001360094B1B681846FFF7BAF90023184692
:101C80001037BD4680BD00BF003C02400038024016
:101C9000A827000800000020040000202DE9B04F14
:101CA00090B000AF00237B630023FB6300233B6302
:101CB0000023BB63594B9B6803F00C03082B0DD02A
:101CC000082B00F2A180002B02D0042B03D09BE054
:101CD000534BBB639BE0534BBB6398E04F4B5B683C
:101CE00003F03F037B634D4B5B6803F48003002BE1
:101CF00028D04A4B5B689B0900223B627A623B6AB0
:101D0000C3F308000021474B03FB01F2002300FB53
:101D100003F31344434AA0FB0212FA620A46BA6272
:101D2000FA6A1344FB627B6B0022BB61FA61D7E95C
:101D30000623D7E90A01FEF7A3FA02460B4613462B
:101D4000FB6353E0354B5B689B0900223B617A6182
:101D50003B69C3F3080A4FF0000B52465B464FF055
:101D600000004FF00001590141EAD26150010246E2
:101D70000B46B2EB0A0863EB0B094FF000024FF081
:101D800000034FEA891343EA98634FEA8812B2EBE3
:101D9000080463EB09054FF000024FF00003EB006D
:101DA00043EA5473E20014461D4614EB0A033B60F9
:101DB00045EB0B037B604FF000024FF00003D7E9C7
:101DC000004529468B02214643EA915321468A0267
:101DD000104619467B6B0022BB60FA60D7E90223EC
:101DE000FEF74EFA02460B461346FB630B4B5B684D
:101DF0001B0C03F0030301335B003B63FA6B3B6B8B
:101E0000B2FBF3F3BB6302E0054BBB6300BFBB6BEC
:101E100018464037BD46BDE8B08F00BF00380240CD
:101E20000024F40040787D010EB400B59CB01DABD9
:101E3000029006906FF0004109480791049109490A
:101E400053F8042B05910068019302A900F092F960
:101E5000029B00221A701CB05DF804EB03B07047BF
:101E6000580000200802FFFF02440346934200D1BD
:101E7000704703F8011BF9E7014B1868704700BF72
:101E80005800002070B50D4D0D4C641BA4100026A9
:101E9000A64209D10B4D0C4C00F06AFC641BA41047
:101EA0000026A64205D170BD55F8043B984701367F
:101EB000EEE755F8043B98470136F2E7F4270008AF
:101EC000F4270008F4270008F82700087047704737
:101ED00037B5002944D051F8043C0190002BA1F102
:101EE0000404B8BFE41800F0DFF81E4A0198136834
:101EF00033B96360146003B0BDE8304000F0DAB875
:101F0000A34208D9256861198B4201BF19685B6833
:101F100049192160EDE71A465B680BB1A342FAD973
:101F200011685518A5420BD1246821445418A342C6
:101F30001160E0D11C685B6853600C441460DAE700
:101F400002D90C230360D6E7256861198B4204BFD0
:101F500019685B68636004BF491921605460CAE76F
:101F600003B030BDC001002070B50E4E0C46316884
:101F7000054611B900F0A6FB30602146284600F066
:101F8000A1FB431C0AD0C41C24F00304A04207D0C8
:101F9000211A284600F096FB013001D14FF0FF34A2
:101FA000204670BDC40100202DE9F843CD1C25F06A
:101FB000030508350C2D38BF0C25002D074601DB25
:101FC000A94205D90C233B6000263046BDE8F883C2
:101FD000DFF8D08000F068F8D8F800301C465CBB11
:101FE00029463846FFF7C0FF431C044655D1D8F8B0
:101FF00000402646002E45D1002C48D023683146AB
:10200000384604EB030900F05DFB81453FD12168B0
:102010006D1A29463846FFF7A7FF013037D02368ED
:102020002B442360D8F80030002B38D05A68A242E5
:102030002BD100225A600FE02268521B1FD40B2ABA
:1020400017D96119A342256018BF5960636808BF9A
:10205000C8F8001062514B60384604F10B0600F0DE
:1020600029F826F00706231DF21AAED09B1BA350B9
:10207000ABE7A3426268DDD1C8F80020ECE7234655
:102080006468ACE734467668B4E71346CCE70C23C3
:102090003B60384600F00EF897E72560DCE75B60B0
:1020A000FFDE00BFC00100200148FFF70FBF00BFE7
:1020B000BC0100200148FFF70ABF00BFBC0100209F
:1020C0002DE9F0478E681F46BE420B6882460C46DB
:1020D00090462CD88A8912F4906F26D065690969D8
:1020E00005EB4505A3EB010905EBD5757B1C4B44BE
:1020F0006D109D4238BF1D46530527D52946FFF771
:1021000053FF064660B321694A4600F0EBFAA38903
:1021100023F4906343F08003A381266165614E44FC
:10212000A5EB09052660A5603E46BE4200D93E46A5
:1021300020683246414600F0ABFAA3689B1BA360BF
:102140002368334423600020BDE8F0872A4600F06E
:10215000D7FA06460028E0D121695046FFF7B8FEBD
:102160000C23CAF80030A38943F04003A3814FF049
:10217000FF30E9E72DE9F04F98468B891B069DB0AB
:1021800007460D4614460ED50B6963B94021FFF78B
:102190000BFF2860286120B90C233B604FF0FF3013
:1021A000D0E040236B610023099320238DF8293070
:1021B000CDF80C803023DFF8A4818DF82A304FF061
:1021C000010923469A4613F8012B0AB1252AF9D1B1
:1021D000BAEB040B0BD05B46224629463846FFF784
:1021E0006FFF013000F0A980099A5A4409929AF8C9
:1021F0000030002B00F0A18000234FF0FF32CDE92A
:1022000005230AF1010A049307938DF853301A93BA
:102210005446052214F8011B5048FDF7E1FF049ACB
:10222000D8B9D00644BF20238DF85330110744BFDE
:102230002B238DF853309AF800302A2B15D0079AAB
:10224000544600204FF00A0C214611F8013B303B68
:10225000092B4DD9B0B1079214E0A0EB080309FA9D
:1022600003F313430493A246D2E7039B191D1B6893
:102270000391002BBBBF5B4242F00202079307931E
:10228000B8BF049223782E2B0CD163782A2B34D13B
:10229000039B1A1D1B680392002BB8BF4FF0FF333E
:1022A00002340593DFF8C4A0217803225046FDF7DD
:1022B00097FF38B1049BA0EB0A00402282401343F1
:1022C0000134049314F8011B25488DF828100622C8
:1022D000FDF786FF002838D0224B1BBB039B07333A
:1022E00023F0070308330393099B3344099368E7FA
:1022F0000CFB02320C460120A6E7002301340593B3
:1023000019464FF00A0C204610F8012B303A092AE2
:1023100003D9002BC6D00591C4E70CFB012104466C
:102320000123F0E703AB00932A460F4B04A938467C
:10233000AFF30080421C0646D6D1AB895B063FF561
:102340002DAF09981DB0BDE8F08F03AB00932A466E
:10235000054B04A9384600F079F8EBE7B8270008E8
:10236000C227000800000000C1200008BE270008A6
:102370002DE9F047164699468A680B69DDF82080FA
:102380009342B8BF1346336091F8432007460C468A
:102390000AB1013333602368990642BF33680233C0
:1023A0003360256815F0060506D104F1190AE368C3
:1023B00032689B1AAB4226DC94F84320131E226835
:1023C00018BF012392062BD404F143024946384634
:1023D000C04701301ED02368226903F00603042B96
:1023E00002BFE5683368ED1AA3680CBF25EAE575FE
:1023F00000259342C4BF9B1AED1800261A34B5423B
:102400001AD1002008E00123524649463846C04709
:10241000013003D14FF0FF30BDE8F0870135C6E74A
:10242000E1185A1C302081F84300224494F84510EA
:1024300082F843100233C7E7012322464946384653
:10244000C0470130E6D00136D9E700002DE9FF474B
:102450000F7E0C9D782F914680460C469A4601F1DE
:10246000430207D8622F0AD8002F00F0D480582FDB
:1024700000F0C08004F1420584F842703AE0A7F110
:102480006303152BF6D801A151F823F0E5240008C9
:10249000F924000875240008752400087524000834
:1024A00075240008F9240008752400087524000824
:1024B0007524000875240008FD250008252500085E
:1024C000B725000875240008752400081F26000899
:1024D00075240008252500087524000875240008C7
:1024E000BF2500082B681A1D1B682A6004F14205ED
:1024F00084F8423001239FE020682B68070603F12F
:102500000401296001D51E6803E04606FBD5B3F936
:102510000060002E03DA2D23764284F843305A48B7
:102520000A2312E02B682068191D2960050601D5D1
:102530001E6802E04106FBD51E8853486F2F0CBF72
:1025400008230A23002184F843106568A560002D44
:10255000A2BF216821F0040121600EB9002D4BD0EB
:102560001546B6FBF3F103FB1167C75D05F8017D66
:102570003746BB420E46F4D9082B0BD12368DE0741
:1025800008D5236961689942DEBF302305F8013C14
:1025900005F1FF35521B2261CDF800A04B4603AA7E
:1025A00021464046FFF7E4FE01304AD14FF0FF30AC
:1025B00004B0BDE8F087236843F02003236033486C
:1025C000782784F84570236829681F0651F8046B42
:1025D00002D45F0648BFB6B2DF0748BF43F020030E
:1025E000296048BF23601EB9236823F020032360BD
:1025F0001023A7E72448E4E71546BDE72B682668C3
:102600006169181D286035061B6801D5196002E054
:102610007006FBD51980002323611546BCE72B68A3
:102620001A1D2A601D68626800212846FDF7D8FD42
:1026300008B1401B606063682361002384F8433065
:10264000AAE723692A4649464046D0470130ADD023
:1026500023689B0713D4E068039B9842B8BF1846D1
:10266000A6E70123324649464046D04701309DD077
:102670000135E36803995B1AAB42F2DCEBE7002516
:1026800004F11906F5E700BFC9270008DA2700089A
:10269000884210B501EB020402D98442234607D8D0
:1026A000431EA14208D011F8012B03F8012FF8E7CF
:1026B000024401468A4200D110BD13F8014D02F8D0
:1026C000014DF7E738B5064D0023044608462B6058
:1026D000FEF7FAFB431C02D12B6803B1236038BD1F
:1026E000B80100200A44914200F1FF3300D1704745
:1026F00010B511F8014B03F8014F9142F9D110BD0B
:102700002DE9F041804614460E4621B9BDE8F0415E
:102710001146FFF749BC2AB9FFF7DAFB25462846E0
:10272000BDE8F08100F01BF88442074602D8B4EB04
:10273000500F12D821464046FFF736FC05460028C8
:10274000EDD0BC422246314628BF3A46FFF7CAFFC9
:1027500031464046FFF7BCFBE1E73546DFE751F87D
:10276000043C181F002BBCBF0B58C018704700005A
:10277000F8B500BFF8BC08BC9E467047F8B500BF6E
:08278000F8BC08BC9E4670473E
:1027880057656C636F6D652053544D3332000000FC
:102798004741414141414100253033750000000067
:1027A80000000000000000000102030406070809F9
:1027B800232D302B2000686C4C0065666745464722
:1027C80000303132333435363738394142434445A5
:1027D8004600303132333435363738396162636414
:0427E8006566000022
:0827EC00C4DAFF7F01000000C8
:0427F400C501000813
:0427F800A101000833
:1027FC000024F400100000000100000000000000A4
:10280C0080000020E80000205001002000000000A3
:10281C0000000000000000000000000000000000AC
:10282C00000000000000000000000000000000009C
:10283C00000000000000000000000000000000008C
:0C284C0000000000000000000C00002054
:0400000508000F5987
:00000001FF
