:020000040800F2
:10000000008001203D0B00087D09000883090008DD
:10001000890900088F090008950900080000000000
:100020000000000000000000000000009B09000824
:10003000A909000800000000B7090008C509000868
:100040008D0B00088D0B00088D0B00088D0B000830
:100050008D0B00088D0B00088D0B00088D0B000820
:100060008D0B00088D0B00088D0B00088D0B000810
:100070008D0B00088D0B00088D0B00088D0B000800
:100080008D0B00088D0B00088D0B00080000000090
:100090000000000000000000000000008D0B0008C0
:1000A0008D0B00088D0B00088D0B00088D0B0008D0
:1000B0008D0B00088D0B00088D0B00088D0B0008C0
:1000C0008D0B00088D0B00088D0B00088D0B0008B0
:1000D0008D0B00088D0B00088D0B00080000000040
:1000E0008D0B00088D0B00088D0B00080000000030
:1000F0000000000000000000000000008D0B000860
:10010000000000008D0B00088D0B00088D0B00080F
:1001100000000000000000000000000000000000DF
:100120008D0B00088D0B00088D0B00088D0B00084F
:100130008D0B00080000000000000000000000001F
:100140000000000000000000000000008D0B00080F
:100150008D0B00088D0B00088D0B00088D0B00081F
:100160008D0B00088D0B000800000000000000004F
:10017000000000000000000000000000000000007F
:10018000000000008D0B00080000000000000000CF
:040190008D0B0008CB
:1001A00010B5054C237833B9044B13B10448AFF3B1
:1001B00000800123237010BD6800002000000000B3
:1001C000D835000808B5034B1BB103490348AFF30A
:1001D000008008BD000000006C000020D835000839
:1001E00001F0FF01102A2BDB10F0070F08D010F8E8
:1001F000013B013A8B422DD010F0070F42B3F6D1EC
:10020000F0B441EA012141EA014122F007047FF004
:1002100000070023F0E80256083C85EA010586EA5B
:10022000010685FA47F5A3FA87F586FA47F6A5FA97
:1002300087F68EB9EED1F0BC01F0FF0102F00702A3
:1002400032B110F8013B013A83EA010313B1F8D14E
:100250000020704701387047002D06BF354603382F
:10026000073815F0010F07D1013015F4807F02BF68
:10027000013015F4C03F0130F0BC0138704700BFB9
:1002800053B94AB9002908BF00281CBF4FF0FF31FD
:100290004FF0FF3000F070B9ADF1080C6DE904CEFD
:1002A00000F006F8DDF804E0DDE9022304B0704751
:1002B0002DE9F047089E0D4604460F46002B4AD113
:1002C0008A42944665D9B2FA82F343B102FA03FC3A
:1002D000C3F120029F4020FA02F217439C404FEAEC
:1002E0001C4E1FFA8CF5B7FBFEF1220C0EFB1177AA
:1002F00042EA074201FB05F090420AD91CEB0202D8
:1003000001F1FF3780F01C81904240F219810239DF
:100310006244121AA4B2B2FBFEF00EFB102244EAB1
:10032000024400FB05F5A5420AD91CEB040400F1C8
:10033000FF3280F00781A54240F204816444023814
:1003400040EA0140641B00211EB1DC400023C6E9E5
:100350000043BDE8F0878B4208D9002E00F0ED8005
:100360000021C6E900050846BDE8F087B3FA83F12D
:10037000002949D1AB4202D3824200F2F880841AAC
:1003800065EB030201201746002EE2D0C6E90047C4
:10039000DFE702B9FFDEB2FA82F3002B40F0908073
:1003A0008A1A4FEA1C471FFA8CFE0121B2FBF7F5AF
:1003B00007FB1520220C42EA00420EFB05F090429A
:1003C00008D91CEB020205F1FF3802D2904200F27C
:1003D000CB804546121AA4B2B2FBF7F007FB1022FD
:1003E00044EA02440EFB00FEA64508D91CEB0404B7
:1003F00000F1FF3202D2A64500F2BB801046A4EB0A
:100400000E0440EA05409FE7C1F120078B4022FA25
:1004100007FC4CEA030C05FA01F420FA07F3FD404F
:100420004FEA1C492343B5FBF9F81FFA8CFE09FB80
:1004300018551C0C44EA054408FB0EF5A54202FAC7
:1004400001F200FA01F00BD91CEB040408F1FF3AA9
:1004500080F08880A54240F28580A8F102086444BB
:10046000641B9DB2B4FBF9F309FB134445EA044451
:1004700003FB0EFEA64508D91CEB040403F1FF356F
:100480006CD2A6456AD9023B644443EA0843A3FB05
:100490000295A4EB0E04AC42C846AE4656D353D0E8
:1004A00056B1B0EB080264EB0E0404FA07F7CA4039
:1004B000CC401743C6E9007418460021BDE8F08718
:1004C000C3F1200102FA03FC20FA01F225FA01F13E
:1004D0009D402A434FEA1C471FFA8CFEB1FBF7F000
:1004E00007FB1015110C41EA054100FB0EF58D428A
:1004F00004FA03F408D91CEB010100F1FF382FD2F4
:100500008D422DD902386144491B92B2B1FBF7F5F7
:1005100007FB151142EA014205FB0EF1914208D991
:100520001CEB020205F1FF3816D2914214D9023DAC
:100530006244521A45EA004138E73146304608E73E
:100540003946E6E61046FBE64845A9D2B9EB020873
:1005500065EB0C0E013BA3E74546EAE72B4694E723
:100560004046D1E7D0467BE7023D624432E7084689
:100570000AE76444023842E7704700BF80B582B0A2
:1005800000AF7860391D4FF0FF330122034801F0BE
:100590008AFD7B6818460837BD4680BDD80000201C
:1005A00080B582B000AF00F0F3FA00F03BF800F045
:1005B000F1F800F097F800F0C3F8154802F098F948
:1005C0000023FB711CE0FB799BB25B0099B2142302
:1005D0000322104800F0FCFE0346BB71BB79002BE0
:1005E00003D00D4802F084F907E0BB79002B04D159
:1005F000FB791946094802F07BF9FB790133FB715D
:1006000097F90730002BDEDA054802F071F9FEE7B2
:10061000F035000884000020003600080436000889
:100620000C36000880B594B000AF07F120033022EB
:100630000021184602F0B1F907F10C0300221A60FC
:100640005A609A60DA601A610023BB60234B1B6C0E
:10065000224A43F080531364204B1B6C03F08053F9
:10066000BB60BB6800237B601D4B1B6823F44043C9
:100670001B4A43F400431360194B1B6803F44043C7
:100680007B607B6802233B620123FB6210233B6398
:100690000023BB6307F12003184601F01FF803464F
:1006A000002B01D000F0ACF80F23FB6000233B616E
:1006B00000237B614FF48053BB610023FB6107F192
:1006C0000C030021184601F081FA0346002B01D0EB
:1006D00000F096F800BF5037BD4680BD003802409C
:1006E0000070004080B500AF124B134A1A60114BE6
:1006F000124A5A600F4B00229A600E4B0022DA60B9
:100700000C4B4FF480421A610A4B00225A61094B8C
:1007100000229A61074B0022DA61064B00221A621E
:10072000044800F011FD0346002B01D000F068F8EA
:1007300000BF80BD8400002000540040A08601005E
:1007400080B500AF114B124A1A60104B4FF4E132E2
:100750005A600E4B00229A600C4B0022DA600B4B61
:1007600000221A61094B0C225A61084B00229A613F
:10077000064B0022DA61054801F048FC0346002BD5
:1007800001D000F03DF800BF80BD00BFD8000020C0
:100790000044004080B485B000AF0023FB60174BDD
:1007A0001B6B164A43F080031363144B1B6B03F05F
:1007B0008003FB60FB680023BB60104B1B6B0F4A80
:1007C00043F0010313630D4B1B6B03F00103BB608C
:1007D000BB6800237B60094B1B6B084A43F0020394
:1007E0001363064B1B6B03F002037B607B6800BF47
:1007F0001437BD465DF8047B704700BF00380240E7
:1008000080B400AF72B600BFFEE7000080B483B0D2
:1008100000AF00237B60104B5B6C0F4A43F48043B6
:1008200053640D4B5B6C03F480437B607B68002357
:100830003B60094B1B6C084A43F080531364064B22
:100840001B6C03F080533B603B6800BF0C37BD4618
:100850005DF8047B704700BF0038024080B58AB065
:1008600000AF786007F1140300221A605A609A60A2
:10087000DA601A617B681B68194A93422CD1002305
:100880003B61184B1B6B174A43F002031363154B74
:100890001B6B03F002033B613B694FF440737B61C8
:1008A0001223BB610023FB6103233B6204237B62B1
:1008B00007F1140319460C4800F0C2FA0023FB604C
:1008C000084B1B6C074A43F400131364054B1B6C65
:1008D00003F40013FB60FB6800BF2837BD4680BDF2
:1008E00000540040003802400004024080B58AB045
:1008F00000AF786007F1140300221A605A609A6012
:10090000DA601A617B681B68194A93422BD1002375
:100910003B61184B1B6C174A43F400331364154BAF
:100920001B6C03F400333B613B690023FB60114BFC
:100930001B6B104A43F0010313630E4B1B6B03F058
:100940000103FB60FB680C237B610223BB61002376
:10095000FB6103233B6207237B6207F11403194603
:10096000054800F06DFA00BF2837BD4680BD00BFC6
:1009700000440040003802400000024080B400AF54
:10098000FEE780B400AFFEE780B400AFFEE780B4BE
:1009900000AFFEE780B400AFFEE780B400AF00BF59
:1009A000BD465DF8047B704780B400AF00BFBD4614
:1009B0005DF8047B704780B400AF00BFBD465DF8B2
:1009C000047B704780B500AF00F034F900BF80BDF4
:1009D00080B586B000AFF860B9607A6000237B61B3
:1009E0000AE0AFF300800146BB685A1CBA60CAB285
:1009F0001A707B6901337B617A697B689A42F0DB0C
:100A00007B6818461837BD4680BD80B586B000AFFC
:100A1000F860B9607A6000237B6109E0BB685A1C0A
:100A2000BA601B781846FFF7A9FD7B6901337B612B
:100A30007A697B689A42F1DB7B6818461837BD46B5
:100A400080BD80B483B000AF78604FF0FF331846AC
:100A50000C37BD465DF8047B704780B483B000AFAF
:100A6000786039603B684FF400525A6000231846A2
:100A70000C37BD465DF8047B704780B483B000AF8F
:100A80007860012318460C37BD465DF8047B70473B
:100A900080B485B000AFF860B9607A600023184672
:100AA0001437BD465DF8047B7047000080B586B002
:100AB00000AF7860144A154BD31A7B617B693B61A8
:100AC000134B1B68002B02D1114B124A1A60104BBA
:100AD0001A687B6813443A699A4207D201F0ACFF66
:100AE00003460C221A604FF0FF3309E0084B1B68E5
:100AF000FB60074B1A687B681344054A1360FB6868
:100B000018461837BD4680BD008001200004000053
:100B10001C0100207002002080B400AF064BD3F807
:100B20008830054A43F47003C2F8883000BFBD46E0
:100B30005DF8047B704700BF00ED00E0DFF834D0C3
:100B40000D480E490E4A002302E0D458C450043325
:100B5000C4188C42F9D30B4A0B4C002301E01360FC
:100B60000432A242FBD3FFF7D7FF01F06BFFFFF780
:100B700017FD704700800120000000206800002061
:100B80007C3600086800002070020020FEE70000AC
:100B900080B500AF0E4B1B680D4A43F40073136021
:100BA0000B4B1B680A4A43F480631360084B1B68B5
:100BB000074A43F480731360032000F00DF90F20FF
:100BC00000F008F8FFF722FE0023184680BD00BFA2
:100BD000003C024080B582B000AF7860124B1A68CA
:100BE000124B1B7819464FF47A73B3FBF1F3B2FB47
:100BF000F3F3184600F017F90346002B01D0012348
:100C00000EE07B680F2B0AD8002279684FF0FF3086
:100C100000F0EDF8064A7B681360002300E0012332
:100C200018460837BD4680BD00000020080000209F
:100C30000400002080B400AF064B1B781A46064B18
:100C40001B681344044A136000BFBD465DF8047B73
:100C5000704700BF080000202001002080B400AFD2
:100C6000034B1B681846BD465DF8047B704700BF08
:100C70002001002080B485B000AF78607B6803F06D
:100C80000703FB600C4BDB68BB60BA684FF6FF03E1
:100C90001340BB60FB681A02BB68134343F0BF6399
:100CA00043F40033BB60044ABB68D36000BF143711
:100CB000BD465DF8047B704700ED00E080B400AFF6
:100CC000044BDB681B0A03F007031846BD465DF8BA
:100CD000047B704700ED00E080B483B000AF0346B2
:100CE0003960FB7197F90730002B0ADB3B68DAB2F9
:100CF0000C4997F907301201D2B20B4483F8002354
:100D00000AE03B68DAB20849FB7903F00F03043BC1
:100D10001201D2B20B441A7600BF0C37BD465DF803
:100D2000047B704700E100E000ED00E080B489B092
:100D300000AFF860B9607A60FB6803F00703FB61FD
:100D4000FB69C3F10703042B28BF0423BB61FB69C4
:100D50000433062B02D9FB69033B00E000237B61CF
:100D60004FF0FF32BB6902FA03F3DA43BB681A4063
:100D70007B699A404FF0FF317B6901FA03F3D94355
:100D80007B680B40134318462437BD465DF8047B4F
:100D90007047000080B582B000AF78607B68013B8F
:100DA000B3F1807F01D301230FE00A4A7B68013B46
:100DB00053600F214FF0FF30FFF78EFF054B0022ED
:100DC0009A60044B07221A60002318460837BD4674
:100DD00080BD00BF10E000E080B582B000AF786059
:100DE0007868FFF747FF00BF0837BD4680BD80B574
:100DF00086B000AF0346B9607A60FB7300237B6165
:100E0000FFF75CFF78617A68B9687869FFF78EFF51
:100E1000024697F90F3011461846FFF75DFF00BFF5
:100E20001837BD4680BD80B582B000AF7860786865
:100E3000FFF7B0FF034618460837BD4680BD0000E7
:100E400080B489B000AF7860396000237B610023F3
:100E50003B610023BB610023FB6159E10122FB6977
:100E600002FA03F37B613B681B687A6913403B61BC
:100E70003A697B699A4240F048813B685B6803F0BD
:100E80000303012B05D03B685B6803F00303022BCF
:100E900030D17B689B68BB61FB695B00032202FA6F
:100EA00003F3DB43BA691340BB613B68DA68FB6953
:100EB0005B0002FA03F3BA691343BB617B68BA694A
:100EC0009A607B685B68BB610122FB6902FA03F3ED
:100ED000DB43BA691340BB613B685B681B0903F0E5
:100EE0000102FB6902FA03F3BA691343BB617B6831
:100EF000BA695A603B685B6803F00303032B17D0A1
:100F00007B68DB68BB61FB695B00032202FA03F3C9
:100F1000DB43BA691340BB613B689A68FB695B00BD
:100F200002FA03F3BA691343BB617B68BA69DA60FA
:100F30003B685B6803F00303022B23D1FB69DA08EB
:100F40007B68083253F82230BB61FB6903F007036A
:100F50009B000F2202FA03F3DB43BA691340BB6123
:100F60003B681A69FB6903F007039B0002FA03F36D
:100F7000BA691343BB61FB69DA087B680832B96957
:100F800043F822107B681B68BB61FB695B0003228E
:100F900002FA03F3DB43BA691340BB613B685B6849
:100FA00003F00302FB695B0002FA03F3BA6913431F
:100FB000BB617B68BA691A603B685B6803F44033C5
:100FC000002B00F0A2800023FB60574B5B6C564A5D
:100FD00043F480435364544B5B6C03F48043FB60E5
:100FE000FB68524AFB699B08023352F82330BB610D
:100FF000FB6903F003039B000F2202FA03F3DB43B8
:10100000BA691340BB617B68494A934219D07B6837
:10101000484A934213D07B68474A93420DD07B687D
:10102000464A934207D07B68454A934201D1042344
:1010300008E0072306E0032304E0022302E0012383
:1010400000E00023FA6902F0030292009340BA69BB
:101050001343BB613549FB699B080233BA6941F808
:101060002320384B9B68BB613B69DB43BA69134063
:10107000BB613B685B6803F48013002B03D0BA6943
:101080003B691343BB612F4ABB6993602D4BDB68FF
:10109000BB613B69DB43BA691340BB613B685B687A
:1010A00003F40013002B03D0BA693B691343BB61FF
:1010B000244ABB69D360234B5B68BB613B69DB435C
:1010C000BA691340BB613B685B6803F40033002BD3
:1010D00003D0BA693B691343BB611A4ABB695360C9
:1010E000184B1B68BB613B69DB43BA691340BB61AA
:1010F0003B685B6803F48033002B03D0BA693B691B
:101100001343BB610F4ABB691360FB690133FB6189
:10111000FB690F2B7FF6A2AE00BF00BF2437BD4690
:101120005DF8047B704700BF003802400038014082
:10113000000002400004024000080240000C02408F
:1011400000100240003C014080B584B000AF7860E0
:101150007B68002B01D101232BE17B6893F83D30A4
:10116000DBB2002B06D17B68002283F83C20786834
:10117000FFF774FB7B68242283F83D207B681B68A3
:101180001A687B681B6822F001021A607B681B6882
:101190001A687B681B6842F400421A607B681B680F
:1011A0001A687B681B6822F400421A6000F006FF90
:1011B000F8607B685B68814A934207D8FB68804A85
:1011C000934294BF01230023DBB206E0FB687D4A13
:1011D000934294BF01230023DBB2002B01D00123F3
:1011E000E7E0FB68784AA2FB03239B0CBB607B68AB
:1011F0001B685B6823F03F017B681B68BA680A4381
:101200005A607B681B681B6A23F03F017B685B6840
:101210006A4A934202D8BB68013309E0BB684FF4C5
:10122000967202FB03F3694AA2FB03239B09013375
:101230007A6812680B4313627B681B68DB6923F4CE
:101240004F4222F0FF027B685B685C498B4219D8F1
:10125000FB68591E7B685B685B00B1FBF3F3591CAC
:1012600040F6FC730B40002B0AD0FB68591E7B68CC
:101270005B685B00B1FBF3F30133C3F30B0351E095
:1012800004234FE07B689B68002B11D1FB68581E3C
:101290007B6859680B465B000B44B0FBF3F30133EA
:1012A000C3F30B03002B0CBF01230023DBB212E0BE
:1012B000FB68581E7B6859680B469B000B449900DD
:1012C0000B44B0FBF3F30133C3F30B03002B0CBF50
:1012D00001230023DBB2002B01D0012322E07B6835
:1012E0009B68002B0ED1FB68581E7B6859680B4623
:1012F0005B000B44B0FBF3F30133C3F30B0343F484
:1013000000430FE0FB68581E7B6859680B469B0042
:101310000B4499000B44B0FBF3F30133C3F30B030D
:1013200043F44043796809681343CB617B681B68C9
:101330001B6823F0C0017B68DA697B681B6A1A436B
:101340007B681B680A431A607B681B689B6823F4F0
:10135000034323F0FF037A6811697A68D268114366
:101360007A6812680B4393607B681B68DB6823F024
:10137000FF017B685A697B689B691A437B681B681D
:101380000A43DA607B681B681A687B681B6842F056
:1013900001021A607B6800221A647B68202283F8AD
:1013A0003D207B6800221A637B68002283F83E2080
:1013B000002318461037BD4680BD00BFA08601003F
:1013C0007F841E00FF083D0083DE1B43D34D621067
:1013D00080B58AB002AFF8607A603B600B467B81D3
:1013E000FFF73CFCF8610023BB61FB6893F83D30DC
:1013F000DBB2202B40F01181FB69009319230122FD
:101400008849F86800F012F90346002B01D0022346
:1014100004E1FB6893F83C30012B01D10223FDE08D
:10142000FB68012283F83C20FB681B681B6803F003
:101430000103012B07D0FB681B681A68FB681B6857
:1014400042F001021A60FB681B681A68FB681B689F
:1014500022F400621A60FB68242283F83D20FB68B6
:1014600000221A64FB68704ADA62FB681B681A681B
:10147000FB681B6842F480721A60FB6900933B684A
:1014800000224FF00111F86800F0D0F80346002B5D
:101490000DD0FB681B681B6803F48073B3F5807F75
:1014A00003D1FB684FF400721A640323B6E07B8912
:1014B000DBB21A46FB681B6802F0FE021A61FFF7F6
:1014C000CDFBF861FB681B685B6903F00203022B2C
:1014D0000CBF01230023DBB2FB75FB681B685B6953
:1014E00003F48063B3F5806F0CBF01230023DBB2EC
:1014F000BB7525E0FFF7B2FB0246FB69D31A3A68D9
:101500009A4202D33B68002B03D1FB68A02283F8E8
:101510003D20FB681B685B6903F00203022B0CBFD4
:1015200001230023DBB2FB75FB681B685B6903F4D6
:101530008063B3F5806F0CBF01230023DBB2BB7562
:10154000FB6893F83D30DBB2A02B05D0FB7D002B70
:1015500002D1BB7D002BCDD0FB68202283F83D203B
:10156000FB681B685B6903F00203022B29D1FB684F
:101570001B681A68FB681B6842F400721A6000233B
:101580003B61FB681B685B693B61FB681B689B698F
:101590003B613B69FB690093192301222149F868EB
:1015A00000F044F80346002B01D0012336E0FB682D
:1015B000202283F83D20FB68002283F83C20002392
:1015C0002CE0FB681B681A68FB681B6842F4007219
:1015D0001A60FB681B686FF480625A61FB690093B4
:1015E000192301220F49F86800F020F80346002B68
:1015F00001D0012312E0BB690133BB61BA697B688A
:101600009A42FFF432AFFB68202283F83D20FB684A
:10161000002283F83C20012300E0022318462037F3
:10162000BD4680BD020010000000FFFF80B584B001
:1016300000AFF860B9603B601346FB7125E03B6882
:10164000B3F1FF3F21D0FFF709FB0246BB69D31A74
:101650003A689A4202D33B68002B16D1FB680022FD
:101660001A63FB68202283F83D20FB68002283F880
:101670003E20FB681B6C43F02002FB681A64FB6889
:10168000002283F83C20012323E0BB681B0CDBB263
:10169000012B0DD1FB681B685B69DA43BB68134003
:1016A0009BB2002B0CBF01230023DBB21A460CE0D7
:1016B000FB681B689B69DA43BB6813409BB2002B35
:1016C0000CBF01230023DBB21A46FB799A42B6D045
:1016D000002318461037BD4680BD000080B586B097
:1016E00000AF78607B68002B01D1012367E27B6843
:1016F0001B6803F00103002B75D0884B9B6803F037
:101700000C03042B0CD0854B9B6803F00C03082BB7
:1017100012D1824B5B6803F48003B3F5800F0BD1C9
:101720007E4B1B6803F40033002B5BD07B685B6847
:10173000002B57D1012342E27B685B68B3F5803F01
:1017400006D1764B1B68754A43F4803313601DE065
:101750007B685B68B3F5A02F0CD1704B1B686F4A98
:1017600043F4802313606D4B1B686C4A43F4803351
:1017700013600BE0694B1B68684A23F480331360E5
:10178000664B1B68654A23F4802313607B685B68A3
:10179000002B13D0FFF762FA386108E0FFF75EFA1A
:1017A00002463B69D31A642B01D9032307E25B4B42
:1017B0001B6803F40033002BF0D014E0FFF74EFA5F
:1017C000386108E0FFF74AFA02463B69D31A642BF6
:1017D00001D90323F3E1514B1B6803F40033002BC1
:1017E000F0D100E000BF7B681B6803F00203002B10
:1017F00063D04A4B9B6803F00C03002B0BD0474B84
:101800009B6803F00C03082B1CD1444B5B6803F46A
:101810008003002B16D1414B1B6803F00203002B01
:1018200005D07B68DB68012B01D00123C7E13B4B6E
:101830001B6823F0F8027B681B69DB003749134300
:101840000B603AE07B68DB68002B20D0344B012230
:101850001A60FFF703FA386108E0FFF7FFF9024664
:101860003B69D31A022B01D90323A8E12B4B1B6838
:1018700003F00203002BF0D0284B1B6823F0F80282
:101880007B681B69DB00254913430B6015E0244B83
:1018900000221A60FFF7E2F9386108E0FFF7DEF98D
:1018A00002463B69D31A022B01D9032387E11B4B64
:1018B0001B6803F00203002BF0D17B681B6803F068
:1018C0000803002B36D07B685B69002B16D0154BC4
:1018D00001221A60FFF7C2F9386108E0FFF7BEF98C
:1018E00002463B69D31A022B01D9032367E10B4B54
:1018F0005B6F03F00203002BF0D01BE0094B0022CA
:101900001A60FFF7ABF938610EE0FFF7A7F902465E
:101910003B69D31A022B07D9032350E10038024058
:1019200000004742800E4742884B5B6F03F0020382
:10193000002BEAD17B681B6803F00403002B00F046
:1019400097800023FB75814B1B6C03F08053002BA9
:101950000FD10023BB607D4B1B6C7C4A43F080534E
:1019600013647A4B1B6C03F08053BB60BB6801238C
:10197000FB75774B1B6803F48073002B18D1744BF5
:101980001B68734A43F480731360FFF767F938618B
:1019900008E0FFF763F902463B69D31A022B01D92D
:1019A00003230CE16A4B1B6803F48073002BF0D017
:1019B0007B689B68012B06D1644B1B6F634A43F025
:1019C000010313671CE07B689B68052B0CD15F4B00
:1019D0001B6F5E4A43F0040313675C4B1B6F5B4A4B
:1019E00043F0010313670BE0584B1B6F574A23F07A
:1019F00001031367554B1B6F544A23F0040313670D
:101A00007B689B68002B15D0FFF728F938610AE046
:101A1000FFF724F902463B69D31A41F28832934218
:101A200001D90323CBE0494B1B6F03F00203002BCA
:101A3000EED014E0FFF712F938610AE0FFF70EF973
:101A400002463B69D31A41F28832934201D90323FB
:101A5000B5E03E4B1B6F03F00203002BEED1FB7D84
:101A6000012B05D1394B1B6C384A23F0805313648A
:101A70007B689B69002B00F0A180344B9B6803F0CE
:101A80000C03082B5CD07B689B69022B41D1314B46
:101A900000221A60FFF7E2F8386108E0FFF7DEF88D
:101AA00002463B69D31A022B01D9032387E0274B57
:101AB0001B6803F00073002BF0D17B68DA697B6848
:101AC0001B6A1A437B685B6A9B011A437B689B6AAB
:101AD0005B08013B1B041A437B68DB6A1B061B493E
:101AE00013434B601B4B01221A60FFF7B7F83861B4
:101AF00008E0FFF7B3F802463B69D31A022B01D97D
:101B000003235CE0114B1B6803F00073002BF0D043
:101B100054E0104B00221A60FFF7A0F8386108E08B
:101B2000FFF79CF802463B69D31A022B01D9032325
:101B300045E0064B1B6803F00073002BF0D13DE03D
:101B40007B689B69012B07D1012338E000380240F4
:101B500000700040600047421B4B5B68FB607B6885
:101B60009B69012B28D0FB6803F480027B68DB694A
:101B70009A4221D1FB6803F03F027B681B6A9A42BC
:101B80001AD1FA6847F6C07313407A68526A920114
:101B9000934211D1FB6803F440327B689B6A5B0877
:101BA000013B1B049A4207D1FB6803F070627B681B
:101BB000DB6A1B069A4201D0012300E0002318468D
:101BC0001837BD4680BD00BF0038024080B584B0E4
:101BD00000AF786039607B68002B01D10123CCE035
:101BE000684B1B6803F007033A689A420CD9654BAF
:101BF0003A68D2B21A70634B1B6803F007033A6865
:101C00009A4201D00123B8E07B681B6803F002030D
:101C1000002B20D07B681B6803F00403002B05D049
:101C2000594B9B68584A43F4E05393607B681B68A8
:101C300003F00803002B05D0534B9B68524A43F432
:101C400060439360504B9B6823F0F0027B689B6875
:101C50004D4913438B607B681B6803F00103002B25
:101C600044D07B685B68012B07D1474B1B6803F4AA
:101C70000033002B19D101237FE07B685B68022BC6
:101C800003D07B685B68032B07D13F4B1B6803F0D5
:101C90000073002B09D101236FE03B4B1B6803F05D
:101CA0000203002B01D1012367E0374B9B6823F02F
:101CB00003027B685B68344913438B60FEF7CEFFF9
:101CC000F8600AE0FEF7CAFF0246FB68D31A41F249
:101CD0008832934201D903234FE02B4B9B6803F0DA
:101CE0000C027B685B689B009A42EBD1254B1B681A
:101CF00003F007033A689A420CD2224B3A68D2B2F8
:101D00001A70204B1B6803F007033A689A4201D00F
:101D1000012332E07B681B6803F00403002B08D02A
:101D2000194B9B6823F4E0527B68DB681649134328
:101D30008B607B681B6803F00803002B09D0124BF3
:101D40009B6823F460427B681B69DB000E491343E8
:101D50008B6000F021F802460B4B9B681B0903F0D7
:101D60000F030A49CB5C22FA03F3094A1360094BBB
:101D70001B681846FEF72EFF002318461037BD4695
:101D800080BD00BF003C0240003802402036000801
:101D900000000020040000202DE9B04F94B000AFF7
:101DA00000237B640023FB6400233B640023BB64AB
:101DB000794B9B6803F00C03082B0DD0082B00F225
:101DC000E180002B02D0042B03D0DBE0734BBB641B
:101DD000DBE0734BBB64D8E06F4B5B6803F03F0301
:101DE0007B646D4B5B6803F48003002B63D06A4B0C
:101DF0005B689B090022BB63FA63BB6BC3F30803F8
:101E00003B6300237B63D7E90C4522462B464FF00A
:101E100000004FF00001590141EAD2615001024631
:101E20000B462146511A3961294663EB01037B6158
:101E30004FF000024FF00003D7E904AB59468B0185
:101E4000514643EA916351468A015146B2EB01087B
:101E5000594663EB01094FF000024FF000034FEACF
:101E6000C90343EA58734FEAC8029046994623468D
:101E700018EB0303BB602B4649EB0303FB604FF0F9
:101E800000024FF00003D7E9024529464B022146E4
:101E900043EAD15321464A02104619467B6C002280
:101EA000BB62FA62D7E90A23FEF7EAF902460B465B
:101EB0001346FB6458E0384B5B689B0900221846C8
:101EC0001146C0F308033B6200237B62D7E908890F
:101ED00042464B464FF000004FF00001590141EAE5
:101EE000D261500102460B464146B2EB010A494617
:101EF00063EB010B4FF000024FF000034FEA8B132E
:101F000043EA9A634FEA8A12B2EB0A0463EB0B05C9
:101F10004FF000024FF00003EB0043EA5473E2007D
:101F200014461D464346E3183B604B4645EB03030E
:101F30007B604FF000024FF00003D7E900452946CF
:101F40008B02214643EA915321468A0210461946E4
:101F50007B6C0022BB61FA61D7E90623FEF790F99A
:101F600002460B461346FB640B4B5B681B0C03F0ED
:101F7000030301335B003B64FA6C3B6CB2FBF3F38D
:101F8000BB6402E0054BBB6400BFBB6C1846503716
:101F9000BD46BDE8B08F00BF003802400024F40009
:101FA00000127A0080B400AF034B1B681846BD4690
:101FB0005DF8047B704700BF0000002080B500AFD3
:101FC000FFF7F0FF0246054B9B689B0A03F00703EF
:101FD0000349CB5C22FA03F3184680BD0038024067
:101FE0003036000880B500AFFFF7DCFF0246054B36
:101FF0009B685B0B03F007030349CB5C22FA03F3F6
:10200000184680BD003802403036000880B582B0E6
:1020100000AF78607B68002B01D101233FE07B6833
:1020200093F83D30DBB2002B06D17B68002283F8A9
:102030003C207868FEF75AFC7B68242283F83D2018
:102040007B681B68DA687B681B6822F40052DA60E0
:10205000786800F029F97B681B681A697B681B683F
:1020600022F490421A617B681B685A697B681B687E
:1020700022F02A025A617B681B68DA687B681B6859
:1020800042F40052DA607B6800221A647B682022E6
:1020900083F83D207B68202283F83E2000231846E9
:1020A0000837BD4680BD80B58AB002AFF860B96020
:1020B0003B601346FB8000237B61FB6893F83D3057
:1020C000DBB2202B7CD1BB68002B02D0FB88002B1D
:1020D00001D1012375E0FB6893F83C30012B01D15D
:1020E00002236EE0FB68012283F83C20FB6800229B
:1020F0001A64FB68212283F83D20FEF7AFFD78616A
:10210000FB68FA889A84FB68FA88DA84FB689B6823
:10211000B3F5805F08D1FB681B69002B04D1002355
:10212000FB61BB68BB6103E0BB68FB610023BB6173
:10213000FB68002283F83C202AE03B6800937B691F
:1021400000228021F86800F040F80346002B01D0FF
:10215000032336E0FB69002B0BD1BB691B881A46B1
:10216000FB681B68C2F308025A60BB690233BB619B
:1021700007E0FB691A78FB681B685A60FB6901334A
:10218000FB61FB68DB8C9BB2013B9AB2FB68DA8493
:10219000FB68DB8C9BB2002BCFD13B6800937B6943
:1021A00000224021F86800F010F80346002B01D00F
:1021B000032306E0FB68202283F83D20002300E093
:1021C000022318462037BD4680BD80B590B000AFD1
:1021D000F860B9603B601346FB7150E0BB6CB3F133
:1021E000FF3F4CD0BB6C002B07D0FEF737FD0246FB
:1021F0003B68D31ABA6C9A4241D2FB681B680C3315
:10220000BB62BB6A53E8003F7B627B6A23F4D073F6
:10221000FB63FB681B680C33FA6B7A633B63396BB7
:102220007A6B41E80023FB62FB6A002BE5D1FB6877
:102230001B6814337B617B6953E8003F3B613B695A
:1022400023F00103BB63FB681B681433BA6B3A626B
:10225000FB61F9693A6A41E80023BB61BB69002B65
:10226000E5D1FB68202283F83D20FB68202283F81B
:102270003E20FB68002283F83C2003230FE0FB682C
:102280001B681A68BB681340BA689A420CBF0123E6
:102290000023DBB21A46FB799A429FD000231846EE
:1022A0004037BD4680BD00002DE9B04FC0B000AF43
:1022B000C7F8F400D7F8F4301B681B6923F44050CA
:1022C000D7F8F430D968D7F8F4301A6840EA010337
:1022D0001361D7F8F4309A68D7F8F4301B691A43C1
:1022E000D7F8F4305B691A43D7F8F430DB6913434D
:1022F000C7F8F830D7F8F4301B68DB6823F41641D0
:1023000021F00C01D7F8F4301A68D7F8F8300B43F5
:10231000D360D7F8F4301B685B6923F44070D7F8BA
:10232000F4309969D7F8F4301A6840EA0103536130
:10233000D7F8F4301A688F4B9A4205D0D7F8F430AA
:102340001A688D4B9A4204D1FFF74CFEC7F8FC0087
:1023500003E0FFF733FEC7F8FC00D7F8F430DB6981
:10236000B3F5004F40F00C81D7F8FC300022C7F8DD
:10237000E830C7F8EC20D7E93A4522462B469118B9
:10238000B9655B41FB65D7E91623214612EB0108CD
:10239000294643EB01094FF000024FF000034FEADA
:1023A000C90343EA58734FEAC80290469946234648
:1023B00018EB0303C7F8E0302B4649EB0303C7F8DB
:1023C000E430D7F8F4305B680022C7F8D830C7F89B
:1023D000DC20D7E936120B46DB183B65134642EB8F
:1023E00003037B65D7E91423D7E93801FDF748FFDC
:1023F00002460B46614BA3FB02235B091C01D7F885
:10240000FC300022C7F8D030C7F8D420D7E934898F
:1024100042464B469118B9645B41FB64D7E91223ED
:10242000414612EB010A494643EB010B4FF0000213
:102430004FF000034FEACB0343EA5A734FEACA0254
:1024400092469B4643461AEB0303C7F8C8304B46F7
:102450004BEB0303C7F8CC30D7F8F4305B680022AD
:10246000C7F8C030C7F8C420D7E930120B46DB18D4
:102470003B64134642EB03037B64D7E91023D7E99F
:102480003201FDF7FDFE02460B4611463B4BA3FB16
:1024900001235B09642202FB03F3CB1ADB0003F187
:1024A0003202364BA3FB02235B095B0003F4F87393
:1024B0001C44D7F8FC300022C7F8B830C7F8BC205D
:1024C000D7E92E8942464B469118B9635B41FB63BD
:1024D000D7E90E2341465118396349464B417B6386
:1024E0004FF000024FF00003D7E90CAB5946CB0088
:1024F000514643EA51735146CA00104619460346F5
:1025000042469B18C7F8B0304B460A4642EB0303DD
:10251000C7F8B430D7F8F4305B680022C7F8A830A9
:10252000C7F8AC20D7E92A120B46DB18BB6213466A
:1025300042EB0303FB62D7E90A23D7E92C01FDF73D
:102540009FFE02460B460D4BA3FB02135B09642161
:1025500001FB03F3D31ADB003233084AA2FB032347
:102560005B0903F00702D7F8F4301B6822449A6035
:1025700006E100BF00100140001401401F85EB512F
:10258000D7F8FC300022C7F8A030C7F8A420D7E95C
:10259000288942464B46911839625B417B62D7E9F4
:1025A000082341465418494643EB01054FF0000209
:1025B0004FF00003EB0043EA5473E20014461D465B
:1025C0004346E318C7F898304B4645EB0303C7F87A
:1025D0009C30D7F8F4305B680022C7F89030C7F819
:1025E00094204FF000024FF00003D7E9244529461C
:1025F0008B00214643EA917321468A00D7E92601E0
:10260000FDF73EFE02460B46604BA3FB02235B092F
:102610001C01D7F8FC300022C7F88830C7F88C209E
:10262000D7E9228942464B469118B9615B41FB616B
:10263000D7E9062341465118396149464B417B6130
:102640004FF000024FF00003D7E904AB5946CB002E
:10265000514643EA51735146CA0010461946034693
:1026600042469B18C7F880304B460A4642EB0303AC
:10267000C7F88430D7F8F4305B680022BB67FA678C
:102680004FF000024FF00003D7E91E8949468B0046
:10269000414643EA917341468A00D7E92001FDF79C
:1026A000EFFD02460B461146384BA3FB01235B09A5
:1026B000642202FB03F3CB1A1B013233334AA2FB21
:1026C00003235B0903F0F0031C44D7F8FC3000221D
:1026D0003B677A67D7E91C8942464B469118B96037
:1026E0005B41FB60D7E902234146511839604946F6
:1026F0004B417B604FF000024FF00003D7E900AB85
:102700005946CB00514643EA51735146CA00104620
:102710001946034642469B18BB664B460A4642EBA7
:102720000303FB66D7F8F4305B6800223B667A66E9
:102730004FF000024FF00003D7E9188949468B009B
:10274000414643EA917341468A00D7E91A01FDF7F1
:1027500097FD02460B460D4BA3FB02135B09642158
:1027600001FB03F3D31A1B013233084AA2FB0323F4
:102770005B0903F00F02D7F8F4301B6822449A601B
:1027800000BF07F58077BD46BDE8B08F1F85EB51D0
:10279000002310B50446C0E90033C0E90433836068
:1027A00081814366C2818361194608225C3000F052
:1027B000F4F8054B6362054BA362054BE362054BDE
:1027C0002462236310BD00BF1529000837290008C3
:1027D0006F29000893290008024A0349034800F0C2
:1027E00069B800BF0C000020353300081800002035
:1027F00041680C4B994210B5044601D000F09AFD97
:10280000A168094B994202D0204600F093FDE1688F
:10281000064B994204D02046BDE8104000F08ABD26
:1028200010BD00BF240100208C010020F401002015
:1028300010B50B4B0B4C0C4A1A60204600220421A9
:10284000FFF7A6FF04F1680001220921FFF7A0FFAE
:1028500004F1D0000222BDE810401221FFF798BF1A
:102860005C02002024010020D9270008014800F064
:102870000DB900BF65020020014800F008B900BF93
:102880006502002010B50446FFF7F0FF236A1BB174
:10289000BDE81040FFF7F0BF044B2362044B1B68F8
:1028A000002BF5D1FFF7C4FFF2E700BFF1270008C6
:1028B0005C0200202DE9F8430746884614460026AE
:1028C000D4E90195B9F1010905D52468002CF7D1A7
:1028D0003046BDE8F883AB89012B07D9B5F90E3036
:1028E000013303D029463846C04706436835E9E737
:1028F0000FB407B5064904AB086853F8042B816888
:10290000019300F0E7F903B05DF804EB04B0704701
:102910006400002010B50C46B1F90E1000F068F804
:102920000028ABBF636DA3891B1823F48053ACBF91
:102930006365A38110BD2DE9F0411F468B89DB053E
:1029400005460C46164605D5B1F90E1002230022A5
:1029500000F03CF8A389B4F90E1023F48053A3814E
:1029600032463B462846BDE8F04100F053B810B56A
:102970000C46B1F90E1000F029F8431CA38915BFCD
:10298000606523F4805343F48053A38118BFA3816F
:1029900010BDB1F90E1000F009B80244034693428D
:1029A00000D1704703F8011BF9E7000038B5064D68
:1029B0000023044608462B60FEF743F8431C02D16F
:1029C0002B6803B1236038BD6002002038B5074D85
:1029D00004460846114600222A601A46FEF758F8B7
:1029E000431C02D12B6803B1236038BD6002002074
:1029F00038B5074D04460846114600222A601A469B
:102A0000FDF7E6FF431C02D12B6803B1236038BDFC
:102A10006002002038B5074D0446084611460022E2
:102A20002A601A46FDF7F1FF431C02D12B6803B15F
:102A3000236038BD60020020014B1868704700BF5A
:102A40006400002070B50D4D0D4C641BA4100026D1
:102A5000A64209D10B4D0C4C00F0BEFD641BA41026
:102A60000026A64205D170BD55F8043B98470136B3
:102A7000EEE755F8043B98470136F2E77436000854
:102A800074360008743600087836000870477047BE
:102A900037B5002944D051F8043C0190002BA1F136
:102AA0000404B8BFE41800F0DFF81E4A0198136868
:102AB00033B96360146003B0BDE8304000F0DAB8A9
:102AC000A34208D9256861198B4201BF19685B6868
:102AD00049192160EDE71A465B680BB1A342FAD9A8
:102AE00011685518A5420BD1246821445418A342FB
:102AF0001160E0D11C685B6853600C441460DAE735
:102B000002D90C230360D6E7256861198B4204BF04
:102B100019685B68636004BF491921605460CAE7A3
:102B200003B030BD6802002070B50E4E0C4631680F
:102B3000054611B900F0BCFC30602146284600F083
:102B4000B7FC431C0AD0C41C24F00304A04207D0E5
:102B5000211A284600F0ACFC013001D14FF0FF34BF
:102B6000204670BD6C0200202DE9F843CD1C25F0F5
:102B7000030508350C2D38BF0C25002D074601DB59
:102B8000A94205D90C233B6000263046BDE8F883F6
:102B9000DFF8D08000F068F8D8F800301C465CBB45
:102BA00029463846FFF7C0FF431C044655D1D8F8E4
:102BB00000402646002E45D1002C48D023683146DF
:102BC000384604EB030900F073FC81453FD12168CE
:102BD0006D1A29463846FFF7A7FF013037D0236822
:102BE0002B442360D8F80030002B38D05A68A2421A
:102BF0002BD100225A600FE02268521B1FD40B2AEF
:102C000017D96119A342256018BF5960636808BFCE
:102C1000C8F8001062514B60384604F10B0600F012
:102C200029F826F00706231DF21AAED09B1BA350ED
:102C3000ABE7A3426268DDD1C8F80020ECE7234689
:102C40006468ACE734467668B4E71346CCE70C23F7
:102C50003B60384600F00EF897E72560DCE75B60E4
:102C6000FFDE00BF680200200148FFF70FBF00BF72
:102C7000640200200148FFF70ABF00BF6402002081
:102C80009368013B002B10B4936008DA9469A34267
:102C900001DB0A2903D15DF8044B00F073BB136814
:102CA000581C1060197008465DF8044B7047F8B561
:102CB00006460F461446D518AC4201D1002007E065
:102CC00014F8011B3A463046FFF7DAFF431CF3D1F4
:102CD000F8BD00002DE9F04F0D469DB01446984612
:102CE000064618B1036A0BB9FFF7CCFD6B6ED90726
:102CF00005D4AB899A0502D4A86DFFF7C7FEAB894E
:102D00001B0701D52B699BB92946304600F078FB9B
:102D100070B16B6EDC0704D54FF0FF301DB0BDE81D
:102D2000F08FAB899805F7D4A86DFFF7B0FEF3E7F5
:102D30000023099320238DF82930CDF80C8030230F
:102D4000DFF8B0818DF82A304FF0010923469A460A
:102D500013F8012B0AB1252AF9D1BAEB040B0BD0D9
:102D60005B46224629463046FFF7A1FF013000F0BE
:102D7000A980099A5A4409929AF80030002B00F071
:102D8000A18000234FF0FF32CDE905230AF1010AAB
:102D9000049307938DF853301A935446052214F880
:102DA000011B5448FDF71CFA049AD8B9D10644BF58
:102DB00020238DF85330130744BF2B238DF8533055
:102DC0009AF800302A2B15D0079A544600204FF06D
:102DD0000A0C214611F8013B303B092B4DD9B0B10B
:102DE000079214E0A0EB080309FA03F313430493DA
:102DF000A246D2E7039B191D1B680391002BBBBFA2
:102E00005B4242F0020207930793B8BF0492237813
:102E10002E2B0CD163782A2B34D1039B1A1D1B68EF
:102E20000392002BB8BF4FF0FF3302340593DFF855
:102E3000D4A0217803225046FDF7D2F938B1049B83
:102E4000A0EB0A004022824013430134049314F89B
:102E5000011B29488DF828100622FDF7C1F900282A
:102E60003FD0264B1BBB039B073323F007030833DC
:102E70000393099B3B44099368E70CFB02320C4621
:102E80000120A6E700230134059319464FF00A0CF0
:102E9000204610F8012B303A092A03D9002BC6D05E
:102EA0000591C4E70CFB012104460123F0E703ABC5
:102EB00000932A46124B04A93046AFF30080074620
:102EC000781CD6D16B6ED90705D4AB899A0502D48C
:102ED000A86DFFF7DCFDAB895B063FF51DAF0998D8
:102EE0001CE703AB00932A46054B04A9304600F0CB
:102EF00079F8E4E7383600084236000800000000A0
:102F0000AF2C00083E3600082DE9F04716469946DA
:102F10008A680B69DDF820809342B8BF134633609E
:102F200091F8432007460C460AB101333360236809
:102F3000990642BF336802333360256815F00605F1
:102F400006D104F1190AE36832689B1AAB4226DC09
:102F500094F84320131E226818BF012392062BD435
:102F600004F1430249463846C04701301ED0236869
:102F7000226903F00603042B02BFE5683368ED1AEB
:102F8000A3680CBF25EAE57500259342C4BF9B1AD0
:102F9000ED1800261A34B5421AD1002008E00123AA
:102FA000524649463846C047013003D14FF0FF3002
:102FB000BDE8F0870135C6E7E1185A1C302081F8DA
:102FC0004300224494F8451082F843100233C7E7C7
:102FD0000123224649463846C0470130E6D0013633
:102FE000D9E700002DE9FF470F7E0C9D782F914611
:102FF00080460C469A4601F1430207D8622F0AD850
:10300000002F00F0D480582F00F0C08004F142055A
:1030100084F842703AE0A7F16303152BF6D801A1BA
:1030200051F823F07D300008913000080D30000881
:103030000D3000080D3000080D30000891300008F8
:103040000D3000080D3000080D3000080D3000086C
:1030500095310008BD3000084F3100080D300008E0
:103060000D300008B73100080D300008BD300008F1
:103070000D3000080D300008573100082B681A1D6C
:103080001B682A6004F1420584F8423001239FE066
:1030900020682B68070603F10401296001D51E682A
:1030A00003E04606FBD5B3F90060002E03DA2D23BA
:1030B000764284F843305A480A2312E02B6820688D
:1030C000191D2960050601D51E6802E04106FBD5E1
:1030D0001E8853486F2F0CBF08230A23002184F851
:1030E00043106568A560002DA2BF216821F004018E
:1030F00021600EB9002D4BD01546B6FBF3F103FB52
:103100001167C75D05F8017D3746BB420E46F4D90D
:10311000082B0BD12368DE0708D523696168994223
:10312000DEBF302305F8013C05F1FF35521B22615B
:10313000CDF800A04B4603AA21464046FFF7E4FE27
:1031400001304AD14FF0FF3004B0BDE8F08723686A
:1031500043F0200323603348782784F845702368C0
:1031600029681F0651F8046B02D45F0648BFB6B247
:10317000DF0748BF43F02003296048BF23601EB922
:10318000236823F0200323601023A7E72448E4E703
:103190001546BDE72B6826686169181D286035064D
:1031A0001B6801D5196002E07006FBD51980002369
:1031B00023611546BCE72B681A1D2A601D686268EA
:1031C00000212846FDF70CF808B1401B60606368D9
:1031D0002361002384F84330AAE723692A4649463D
:1031E0004046D0470130ADD023689B0713D4E06838
:1031F000039B9842B8BF1846A6E7012332464946CA
:103200004046D04701309DD00135E36803995B1AF1
:10321000AB42F2DCEBE7002504F11906F5E700BF4D
:10322000493600085A3600088A892DE9F0410546DA
:1032300010070C4658D44B68002B05DC0B6C002B98
:1032400002DC0020BDE8F081E66A002EF9D0002300
:1032500012F480522F68216A2B6032D0606DA389EE
:103260005A0705D56368C01A636B0BB1236CC01A8B
:1032700000230246E66A216A2846B047431CA38918
:1032800006D129681D292BD8294A0A41D60727D4F7
:1032900000226260D9042269226004D5421C01D157
:1032A0002B6803B96065616B2F600029C9D004F1F8
:1032B0004403994202D02846FFF7EAFB00206063EE
:1032C000C0E701232846B047411CC8D12B68002B1A
:1032D000C5D01D2B01D0162B01D12F60B1E7A389DA
:1032E00043F04003A381ADE70F69002FA9D09307F6
:1032F0000E6808BF4B690F6018BF0023A6EB0708D4
:103300008B60B8F1000F9CDD216AA66A43463A46FD
:103310002846B047002806DCA38943F04003A38178
:103320004FF0FF308EE70744A8EB0008E9E700BF45
:10333000FEFFBFDF38B50B6905460C4613B9002503
:10334000284638BD18B1036A0BB9FFF79BFAB4F9E8
:103350000C30002BF3D0626ED00704D4990502D450
:10336000A06DFFF793FB28462146FFF75DFF636ED4
:10337000DA070546E4D4A3899B05E1D4A06DFFF7E5
:1033800086FBDDE7F8B50E461446054618B1036A1C
:103390000BB9FFF777FAA369A360A3891A0725D5AC
:1033A00023691BB323682269981A6369F6B28342C2
:1033B000374604DC21462846FFF7BCFFE0B9A36886
:1033C000013BA36023685A1C22601E706269431C83
:1033D0009A4204D0A389DB0706D50A2E04D12146E0
:1033E0002846FFF7A7FF38B93846F8BD21462846DA
:1033F00000F006F80028D5D04FF0FF37F4E70000C2
:1034000038B52A4B054618680C4618B1036A0BB943
:10341000FFF738FAA389B4F90C20180722D4D9068B
:1034200007D409232B6042F04003A3814FF0FF3003
:1034300034E0580712D5616B41B104F1440399425D
:1034400002D02846FFF724FB00236363A38923F0FF
:103450002403A3810023636023692360A38943F0CD
:103460000803A38123694BB9A38903F42073B3F53F
:10347000007F03D02146284600F050F8A089B4F917
:103480000C2010F001030AD00023A36063695B42A3
:10349000A361236943B910F08000C4D138BD81070E
:1034A00058BF6369A360F4E70020F7E764000020D9
:1034B00038B5064D0023044608462B60FDF7F6FAA2
:1034C000431C02D12B6803B1236038BD6002002089
:1034D00070B50C46B1F90E10002996B015461E467F
:1034E0000DDAA38913F0800F4FF000010CBF4FF4E9
:1034F00080634023002031602B6016B070BD6A46A7
:1035000000F048F80028ECDB019901F47041A1F5C6
:103510000053594259414FF48063EBE78B8973B5EF
:103520009D0706460C4607D504F147032360236137
:103530000123636102B070BD01AB6A46FFF7C8FFAB
:10354000009905463046FFF70FFB48B9B4F90C3037
:103550009A05EFD423F0030343F00203A381E3E7CA
:10356000A389206043F08003A381009B6361019BDA
:1035700020615BB1B4F90E10304600F01DF828B19F
:10358000A38923F0030343F00103A381A3891D430F
:10359000A581CFE738B5074D0023044608461146FC
:1035A0002B60FDF75AFA431C02D12B6803B123604C
:1035B00038BD00BF6002002038B5064D0023044628
:1035C00008462B60FDF759FA431C02D12B6803B162
:1035D000236038BD60020020F8B500BFF8BC08BC0D
:1035E0009E467047F8B500BFF8BC08BC9E467047C1
:1035F0005363616E657220493243200A0D0000005A
:103600002D0A0D00307825580A0D00005363616EB5
:103610006E65722066696E616C697A61646F000024
:103620000000000000000000010203040607080972
:103630000000000001020304232D302B2000686CE1
:103640004C006566674546470030313233343536C5
:1036500037383941424344454600303132333435FE
:0C3660003637383961626364656600002B
:08366C0044CCFF7F01000000C7
:04367400C501000884
:04367800A1010008A4
:10367C000024F40010000000010000000000000015
:10368C0003000000240100200000000024010020A1
:10369C008C010020F401002000000000000000005C
:1036AC00000000000000000000000000000000000E
:1036BC0000000000000000000000000000000000FE
:1036CC0000000000000000000000000000000000EE
:0836DC000000000018000020AE
:0400000508000B3DA7
:00000001FF
